{
	"Dates_since_B_E_B_Launch.sol": {
		"BlockchainEpochCounter": {
			"abi": [
				{
					"inputs": [],
					"name": "SinceBaseThePrettyChildLaunch",
					"outputs": [
						{
							"internalType": "string",
							"name": "",
							"type": "string"
						}
					],
					"stateMutability": "view",
					"type": "function"
				},
				{
					"inputs": [],
					"name": "SinceBitcoinTheDadLaunch",
					"outputs": [
						{
							"internalType": "string",
							"name": "",
							"type": "string"
						}
					],
					"stateMutability": "view",
					"type": "function"
				},
				{
					"inputs": [],
					"name": "SinceEthereumTheMotherLaunch",
					"outputs": [
						{
							"internalType": "string",
							"name": "",
							"type": "string"
						}
					],
					"stateMutability": "view",
					"type": "function"
				}
			],
			"devdoc": {
				"kind": "dev",
				"methods": {},
				"version": 1
			},
			"evm": {
				"assembly": "    /* \"Dates_since_B_E_B_Launch.sol\":61:4651  contract BlockchainEpochCounter {... */\n  mstore(0x40, 0x80)\n  callvalue\n  dup1\n  iszero\n  tag_1\n  jumpi\n  0x00\n  dup1\n  revert\ntag_1:\n  pop\n  dataSize(sub_0)\n  dup1\n  dataOffset(sub_0)\n  0x00\n  codecopy\n  0x00\n  return\nstop\n\nsub_0: assembly {\n        /* \"Dates_since_B_E_B_Launch.sol\":61:4651  contract BlockchainEpochCounter {... */\n      mstore(0x40, 0x80)\n      callvalue\n      dup1\n      iszero\n      tag_1\n      jumpi\n      0x00\n      dup1\n      revert\n    tag_1:\n      pop\n      jumpi(tag_2, lt(calldatasize, 0x04))\n      shr(0xe0, calldataload(0x00))\n      dup1\n      0x0f68108b\n      eq\n      tag_3\n      jumpi\n      dup1\n      0xa2ed1673\n      eq\n      tag_4\n      jumpi\n      dup1\n      0xfd86547c\n      eq\n      tag_5\n      jumpi\n    tag_2:\n      0x00\n      dup1\n      revert\n        /* \"Dates_since_B_E_B_Launch.sol\":1106:1251  function SinceBaseThePrettyChildLaunch() public view returns (string memory) {... */\n    tag_3:\n      tag_6\n      tag_7\n      jump\t// in\n    tag_6:\n      mload(0x40)\n      tag_8\n      swap2\n      swap1\n      tag_9\n      jump\t// in\n    tag_8:\n      mload(0x40)\n      dup1\n      swap2\n      sub\n      swap1\n      return\n        /* \"Dates_since_B_E_B_Launch.sol\":556:699  function SinceBitcoinTheDadLaunch() public view returns (string memory) {... */\n    tag_4:\n      tag_10\n      tag_11\n      jump\t// in\n    tag_10:\n      mload(0x40)\n      tag_12\n      swap2\n      swap1\n      tag_9\n      jump\t// in\n    tag_12:\n      mload(0x40)\n      dup1\n      swap2\n      sub\n      swap1\n      return\n        /* \"Dates_since_B_E_B_Launch.sol\":830:978  function SinceEthereumTheMotherLaunch() public view returns (string memory) {... */\n    tag_5:\n      tag_13\n      tag_14\n      jump\t// in\n    tag_13:\n      mload(0x40)\n      tag_15\n      swap2\n      swap1\n      tag_9\n      jump\t// in\n    tag_15:\n      mload(0x40)\n      dup1\n      swap2\n      sub\n      swap1\n      return\n        /* \"Dates_since_B_E_B_Launch.sol\":1106:1251  function SinceBaseThePrettyChildLaunch() public view returns (string memory) {... */\n    tag_7:\n        /* \"Dates_since_B_E_B_Launch.sol\":1168:1181  string memory */\n      0x60\n        /* \"Dates_since_B_E_B_Launch.sol\":1201:1243  _getFormattedDate(BASE_CREATION_TIMESTAMP) */\n      tag_17\n        /* \"Dates_since_B_E_B_Launch.sol\":387:397  1691596800 */\n      0x64d3b800\n        /* \"Dates_since_B_E_B_Launch.sol\":1201:1218  _getFormattedDate */\n      tag_18\n        /* \"Dates_since_B_E_B_Launch.sol\":1201:1243  _getFormattedDate(BASE_CREATION_TIMESTAMP) */\n      jump\t// in\n    tag_17:\n        /* \"Dates_since_B_E_B_Launch.sol\":1194:1243  return _getFormattedDate(BASE_CREATION_TIMESTAMP) */\n      swap1\n      pop\n        /* \"Dates_since_B_E_B_Launch.sol\":1106:1251  function SinceBaseThePrettyChildLaunch() public view returns (string memory) {... */\n      swap1\n      jump\t// out\n        /* \"Dates_since_B_E_B_Launch.sol\":556:699  function SinceBitcoinTheDadLaunch() public view returns (string memory) {... */\n    tag_11:\n        /* \"Dates_since_B_E_B_Launch.sol\":613:626  string memory */\n      0x60\n        /* \"Dates_since_B_E_B_Launch.sol\":646:691  _getFormattedDate(BITCOIN_CREATION_TIMESTAMP) */\n      tag_20\n        /* \"Dates_since_B_E_B_Launch.sol\":204:214  1231006500 */\n      0x495fab24\n        /* \"Dates_since_B_E_B_Launch.sol\":646:663  _getFormattedDate */\n      tag_18\n        /* \"Dates_since_B_E_B_Launch.sol\":646:691  _getFormattedDate(BITCOIN_CREATION_TIMESTAMP) */\n      jump\t// in\n    tag_20:\n        /* \"Dates_since_B_E_B_Launch.sol\":639:691  return _getFormattedDate(BITCOIN_CREATION_TIMESTAMP) */\n      swap1\n      pop\n        /* \"Dates_since_B_E_B_Launch.sol\":556:699  function SinceBitcoinTheDadLaunch() public view returns (string memory) {... */\n      swap1\n      jump\t// out\n        /* \"Dates_since_B_E_B_Launch.sol\":830:978  function SinceEthereumTheMotherLaunch() public view returns (string memory) {... */\n    tag_14:\n        /* \"Dates_since_B_E_B_Launch.sol\":891:904  string memory */\n      0x60\n        /* \"Dates_since_B_E_B_Launch.sol\":924:970  _getFormattedDate(ETHEREUM_CREATION_TIMESTAMP) */\n      tag_22\n        /* \"Dates_since_B_E_B_Launch.sol\":297:307  1438277160 */\n      0x55ba5e28\n        /* \"Dates_since_B_E_B_Launch.sol\":924:941  _getFormattedDate */\n      tag_18\n        /* \"Dates_since_B_E_B_Launch.sol\":924:970  _getFormattedDate(ETHEREUM_CREATION_TIMESTAMP) */\n      jump\t// in\n    tag_22:\n        /* \"Dates_since_B_E_B_Launch.sol\":917:970  return _getFormattedDate(ETHEREUM_CREATION_TIMESTAMP) */\n      swap1\n      pop\n        /* \"Dates_since_B_E_B_Launch.sol\":830:978  function SinceEthereumTheMotherLaunch() public view returns (string memory) {... */\n      swap1\n      jump\t// out\n        /* \"Dates_since_B_E_B_Launch.sol\":1502:2174  function _getFormattedDate(uint256 startTimestamp)... */\n    tag_18:\n        /* \"Dates_since_B_E_B_Launch.sol\":1603:1616  string memory */\n      0x60\n        /* \"Dates_since_B_E_B_Launch.sol\":1675:1689  startTimestamp */\n      dup2\n        /* \"Dates_since_B_E_B_Launch.sol\":1656:1671  block.timestamp */\n      timestamp\n        /* \"Dates_since_B_E_B_Launch.sol\":1656:1689  block.timestamp >= startTimestamp */\n      lt\n      iszero\n        /* \"Dates_since_B_E_B_Launch.sol\":1634:1767  require(... */\n      tag_24\n      jumpi\n      mload(0x40)\n      0x08c379a000000000000000000000000000000000000000000000000000000000\n      dup2\n      mstore\n      0x04\n      add\n      tag_25\n      swap1\n      tag_26\n      jump\t// in\n    tag_25:\n      mload(0x40)\n      dup1\n      swap2\n      sub\n      swap1\n      revert\n    tag_24:\n        /* \"Dates_since_B_E_B_Launch.sol\":1778:1797  uint256 elapsedDays */\n      0x00\n        /* \"Dates_since_B_E_B_Launch.sol\":1837:1843  1 days */\n      0x015180\n        /* \"Dates_since_B_E_B_Launch.sol\":1819:1833  startTimestamp */\n      dup4\n        /* \"Dates_since_B_E_B_Launch.sol\":1801:1816  block.timestamp */\n      timestamp\n        /* \"Dates_since_B_E_B_Launch.sol\":1801:1833  block.timestamp - startTimestamp */\n      tag_27\n      swap2\n      swap1\n      tag_28\n      jump\t// in\n    tag_27:\n        /* \"Dates_since_B_E_B_Launch.sol\":1800:1843  (block.timestamp - startTimestamp) / 1 days */\n      tag_29\n      swap2\n      swap1\n      tag_30\n      jump\t// in\n    tag_29:\n        /* \"Dates_since_B_E_B_Launch.sol\":1778:1843  uint256 elapsedDays = (block.timestamp - startTimestamp) / 1 days */\n      swap1\n      pop\n        /* \"Dates_since_B_E_B_Launch.sol\":1857:1869  uint256 year */\n      0x00\n        /* \"Dates_since_B_E_B_Launch.sol\":1871:1884  uint256 month */\n      dup1\n        /* \"Dates_since_B_E_B_Launch.sol\":1886:1897  uint256 day */\n      0x00\n        /* \"Dates_since_B_E_B_Launch.sol\":1901:1928  _calculateDate(elapsedDays) */\n      tag_31\n        /* \"Dates_since_B_E_B_Launch.sol\":1916:1927  elapsedDays */\n      dup5\n        /* \"Dates_since_B_E_B_Launch.sol\":1901:1915  _calculateDate */\n      tag_32\n        /* \"Dates_since_B_E_B_Launch.sol\":1901:1928  _calculateDate(elapsedDays) */\n      jump\t// in\n    tag_31:\n        /* \"Dates_since_B_E_B_Launch.sol\":1856:1928  (uint256 year, uint256 month, uint256 day) = _calculateDate(elapsedDays) */\n      swap3\n      pop\n      swap3\n      pop\n      swap3\n      pop\n        /* \"Dates_since_B_E_B_Launch.sol\":2004:2021  uintToString(day) */\n      tag_33\n        /* \"Dates_since_B_E_B_Launch.sol\":2017:2020  day */\n      dup2\n        /* \"Dates_since_B_E_B_Launch.sol\":2004:2016  uintToString */\n      tag_34\n        /* \"Dates_since_B_E_B_Launch.sol\":2004:2021  uintToString(day) */\n      jump\t// in\n    tag_33:\n        /* \"Dates_since_B_E_B_Launch.sol\":2062:2081  uintToString(month) */\n      tag_35\n        /* \"Dates_since_B_E_B_Launch.sol\":2075:2080  month */\n      dup4\n        /* \"Dates_since_B_E_B_Launch.sol\":2062:2074  uintToString */\n      tag_34\n        /* \"Dates_since_B_E_B_Launch.sol\":2062:2081  uintToString(month) */\n      jump\t// in\n    tag_35:\n        /* \"Dates_since_B_E_B_Launch.sol\":2122:2140  uintToString(year) */\n      tag_36\n        /* \"Dates_since_B_E_B_Launch.sol\":2135:2139  year */\n      dup6\n        /* \"Dates_since_B_E_B_Launch.sol\":2122:2134  uintToString */\n      tag_34\n        /* \"Dates_since_B_E_B_Launch.sol\":2122:2140  uintToString(year) */\n      jump\t// in\n    tag_36:\n        /* \"Dates_since_B_E_B_Launch.sol\":1969:2155  abi.encodePacked(... */\n      add(0x20, mload(0x40))\n      tag_37\n      swap4\n      swap3\n      swap2\n      swap1\n      tag_38\n      jump\t// in\n    tag_37:\n      mload(0x40)\n      0x20\n      dup2\n      dup4\n      sub\n      sub\n      dup2\n      mstore\n      swap1\n      0x40\n      mstore\n        /* \"Dates_since_B_E_B_Launch.sol\":1941:2166  return string(... */\n      swap5\n      pop\n      pop\n      pop\n      pop\n      pop\n        /* \"Dates_since_B_E_B_Launch.sol\":1502:2174  function _getFormattedDate(uint256 startTimestamp)... */\n      swap2\n      swap1\n      pop\n      jump\t// out\n        /* \"Dates_since_B_E_B_Launch.sol\":2265:3719  function _calculateDate(uint256 _days)... */\n    tag_32:\n        /* \"Dates_since_B_E_B_Launch.sol\":2368:2380  uint256 year */\n      0x00\n        /* \"Dates_since_B_E_B_Launch.sol\":2395:2408  uint256 month */\n      dup1\n        /* \"Dates_since_B_E_B_Launch.sol\":2423:2434  uint256 day */\n      0x00\n        /* \"Dates_since_B_E_B_Launch.sol\":2469:2473  2009 */\n      0x07d9\n        /* \"Dates_since_B_E_B_Launch.sol\":2462:2473  year = 2009 */\n      swap3\n      pop\n        /* \"Dates_since_B_E_B_Launch.sol\":2564:2594  uint256[12] memory daysInMonth */\n      0x00\n        /* \"Dates_since_B_E_B_Launch.sol\":2564:3045  uint256[12] memory daysInMonth = [... */\n      mload(0x40)\n      dup1\n      0x0180\n      add\n      0x40\n      mstore\n      dup1\n        /* \"Dates_since_B_E_B_Launch.sol\":2620:2622  31 */\n      0x1f\n        /* \"Dates_since_B_E_B_Launch.sol\":2564:3045  uint256[12] memory daysInMonth = [... */\n      dup2\n      mstore\n      0x20\n      add\n        /* \"Dates_since_B_E_B_Launch.sol\":2657:2659  28 */\n      0x1c\n        /* \"Dates_since_B_E_B_Launch.sol\":2564:3045  uint256[12] memory daysInMonth = [... */\n      dup2\n      mstore\n      0x20\n      add\n        /* \"Dates_since_B_E_B_Launch.sol\":2695:2697  31 */\n      0x1f\n        /* \"Dates_since_B_E_B_Launch.sol\":2564:3045  uint256[12] memory daysInMonth = [... */\n      dup2\n      mstore\n      0x20\n      add\n        /* \"Dates_since_B_E_B_Launch.sol\":2729:2731  30 */\n      0x1e\n        /* \"Dates_since_B_E_B_Launch.sol\":2564:3045  uint256[12] memory daysInMonth = [... */\n      dup2\n      mstore\n      0x20\n      add\n        /* \"Dates_since_B_E_B_Launch.sol\":2764:2766  31 */\n      0x1f\n        /* \"Dates_since_B_E_B_Launch.sol\":2564:3045  uint256[12] memory daysInMonth = [... */\n      dup2\n      mstore\n      0x20\n      add\n        /* \"Dates_since_B_E_B_Launch.sol\":2797:2799  30 */\n      0x1e\n        /* \"Dates_since_B_E_B_Launch.sol\":2564:3045  uint256[12] memory daysInMonth = [... */\n      dup2\n      mstore\n      0x20\n      add\n        /* \"Dates_since_B_E_B_Launch.sol\":2831:2833  31 */\n      0x1f\n        /* \"Dates_since_B_E_B_Launch.sol\":2564:3045  uint256[12] memory daysInMonth = [... */\n      dup2\n      mstore\n      0x20\n      add\n        /* \"Dates_since_B_E_B_Launch.sol\":2868:2870  31 */\n      0x1f\n        /* \"Dates_since_B_E_B_Launch.sol\":2564:3045  uint256[12] memory daysInMonth = [... */\n      dup2\n      mstore\n      0x20\n      add\n        /* \"Dates_since_B_E_B_Launch.sol\":2903:2905  30 */\n      0x1e\n        /* \"Dates_since_B_E_B_Launch.sol\":2564:3045  uint256[12] memory daysInMonth = [... */\n      dup2\n      mstore\n      0x20\n      add\n        /* \"Dates_since_B_E_B_Launch.sol\":2942:2944  31 */\n      0x1f\n        /* \"Dates_since_B_E_B_Launch.sol\":2564:3045  uint256[12] memory daysInMonth = [... */\n      dup2\n      mstore\n      0x20\n      add\n        /* \"Dates_since_B_E_B_Launch.sol\":2979:2981  30 */\n      0x1e\n        /* \"Dates_since_B_E_B_Launch.sol\":2564:3045  uint256[12] memory daysInMonth = [... */\n      dup2\n      mstore\n      0x20\n      add\n        /* \"Dates_since_B_E_B_Launch.sol\":3017:3019  31 */\n      0x1f\n        /* \"Dates_since_B_E_B_Launch.sol\":2564:3045  uint256[12] memory daysInMonth = [... */\n      dup2\n      mstore\n      pop\n      swap1\n      pop\n        /* \"Dates_since_B_E_B_Launch.sol\":3058:3342  while (_days >= 365) {... */\n    tag_40:\n        /* \"Dates_since_B_E_B_Launch.sol\":3074:3077  365 */\n      0x016d\n        /* \"Dates_since_B_E_B_Launch.sol\":3065:3070  _days */\n      dup6\n        /* \"Dates_since_B_E_B_Launch.sol\":3065:3077  _days >= 365 */\n      lt\n        /* \"Dates_since_B_E_B_Launch.sol\":3058:3342  while (_days >= 365) {... */\n      tag_41\n      jumpi\n        /* \"Dates_since_B_E_B_Launch.sol\":3098:3115  _isLeapYear(year) */\n      tag_42\n        /* \"Dates_since_B_E_B_Launch.sol\":3110:3114  year */\n      dup5\n        /* \"Dates_since_B_E_B_Launch.sol\":3098:3109  _isLeapYear */\n      tag_43\n        /* \"Dates_since_B_E_B_Launch.sol\":3098:3115  _isLeapYear(year) */\n      jump\t// in\n    tag_42:\n        /* \"Dates_since_B_E_B_Launch.sol\":3094:3331  if (_isLeapYear(year)) {... */\n      iszero\n      tag_44\n      jumpi\n        /* \"Dates_since_B_E_B_Launch.sol\":3149:3152  366 */\n      0x016e\n        /* \"Dates_since_B_E_B_Launch.sol\":3140:3145  _days */\n      dup6\n        /* \"Dates_since_B_E_B_Launch.sol\":3140:3152  _days >= 366 */\n      lt\n        /* \"Dates_since_B_E_B_Launch.sol\":3136:3238  if (_days >= 366) {... */\n      tag_45\n      jumpi\n        /* \"Dates_since_B_E_B_Launch.sol\":3186:3189  366 */\n      0x016e\n        /* \"Dates_since_B_E_B_Launch.sol\":3177:3189  _days -= 366 */\n      dup6\n      tag_46\n      swap2\n      swap1\n      tag_28\n      jump\t// in\n    tag_46:\n      swap5\n      pop\n        /* \"Dates_since_B_E_B_Launch.sol\":3212:3218  year++ */\n      dup4\n      dup1\n      tag_47\n      swap1\n      tag_48\n      jump\t// in\n    tag_47:\n      swap5\n      pop\n      pop\n        /* \"Dates_since_B_E_B_Launch.sol\":3136:3238  if (_days >= 366) {... */\n    tag_45:\n        /* \"Dates_since_B_E_B_Launch.sol\":3094:3331  if (_isLeapYear(year)) {... */\n      jump(tag_49)\n    tag_44:\n        /* \"Dates_since_B_E_B_Launch.sol\":3287:3290  365 */\n      0x016d\n        /* \"Dates_since_B_E_B_Launch.sol\":3278:3290  _days -= 365 */\n      dup6\n      tag_50\n      swap2\n      swap1\n      tag_28\n      jump\t// in\n    tag_50:\n      swap5\n      pop\n        /* \"Dates_since_B_E_B_Launch.sol\":3309:3315  year++ */\n      dup4\n      dup1\n      tag_51\n      swap1\n      tag_48\n      jump\t// in\n    tag_51:\n      swap5\n      pop\n      pop\n        /* \"Dates_since_B_E_B_Launch.sol\":3094:3331  if (_isLeapYear(year)) {... */\n    tag_49:\n        /* \"Dates_since_B_E_B_Launch.sol\":3058:3342  while (_days >= 365) {... */\n      jump(tag_40)\n    tag_41:\n        /* \"Dates_since_B_E_B_Launch.sol\":3358:3375  _isLeapYear(year) */\n      tag_52\n        /* \"Dates_since_B_E_B_Launch.sol\":3370:3374  year */\n      dup5\n        /* \"Dates_since_B_E_B_Launch.sol\":3358:3369  _isLeapYear */\n      tag_43\n        /* \"Dates_since_B_E_B_Launch.sol\":3358:3375  _isLeapYear(year) */\n      jump\t// in\n    tag_52:\n        /* \"Dates_since_B_E_B_Launch.sol\":3354:3469  if (_isLeapYear(year)) {... */\n      iszero\n      tag_53\n      jumpi\n        /* \"Dates_since_B_E_B_Launch.sol\":3409:3411  29 */\n      0x1d\n        /* \"Dates_since_B_E_B_Launch.sol\":3392:3403  daysInMonth */\n      dup2\n        /* \"Dates_since_B_E_B_Launch.sol\":3404:3405  1 */\n      0x01\n        /* \"Dates_since_B_E_B_Launch.sol\":3392:3406  daysInMonth[1] */\n      0x0c\n      dup2\n      lt\n      tag_54\n      jumpi\n      tag_55\n      tag_56\n      jump\t// in\n    tag_55:\n    tag_54:\n      0x20\n      mul\n      add\n        /* \"Dates_since_B_E_B_Launch.sol\":3392:3411  daysInMonth[1] = 29 */\n      dup2\n      dup2\n      mstore\n      pop\n      pop\n        /* \"Dates_since_B_E_B_Launch.sol\":3354:3469  if (_isLeapYear(year)) {... */\n    tag_53:\n        /* \"Dates_since_B_E_B_Launch.sol\":3486:3495  uint256 i */\n      0x00\n        /* \"Dates_since_B_E_B_Launch.sol\":3481:3712  for (uint256 i = 0; i < 12; i++) {... */\n    tag_57:\n        /* \"Dates_since_B_E_B_Launch.sol\":3505:3507  12 */\n      0x0c\n        /* \"Dates_since_B_E_B_Launch.sol\":3501:3502  i */\n      dup2\n        /* \"Dates_since_B_E_B_Launch.sol\":3501:3507  i < 12 */\n      lt\n        /* \"Dates_since_B_E_B_Launch.sol\":3481:3712  for (uint256 i = 0; i < 12; i++) {... */\n      iszero\n      tag_58\n      jumpi\n        /* \"Dates_since_B_E_B_Launch.sol\":3541:3552  daysInMonth */\n      dup2\n        /* \"Dates_since_B_E_B_Launch.sol\":3553:3554  i */\n      dup2\n        /* \"Dates_since_B_E_B_Launch.sol\":3541:3555  daysInMonth[i] */\n      0x0c\n      dup2\n      lt\n      tag_60\n      jumpi\n      tag_61\n      tag_56\n      jump\t// in\n    tag_61:\n    tag_60:\n      0x20\n      mul\n      add\n      mload\n        /* \"Dates_since_B_E_B_Launch.sol\":3533:3538  _days */\n      dup7\n        /* \"Dates_since_B_E_B_Launch.sol\":3533:3555  _days < daysInMonth[i] */\n      lt\n        /* \"Dates_since_B_E_B_Launch.sol\":3529:3663  if (_days < daysInMonth[i]) {... */\n      iszero\n      tag_62\n      jumpi\n        /* \"Dates_since_B_E_B_Launch.sol\":3588:3589  1 */\n      0x01\n        /* \"Dates_since_B_E_B_Launch.sol\":3584:3585  i */\n      dup2\n        /* \"Dates_since_B_E_B_Launch.sol\":3584:3589  i + 1 */\n      tag_63\n      swap2\n      swap1\n      tag_64\n      jump\t// in\n    tag_63:\n        /* \"Dates_since_B_E_B_Launch.sol\":3576:3589  month = i + 1 */\n      swap4\n      pop\n        /* \"Dates_since_B_E_B_Launch.sol\":3622:3623  1 */\n      0x01\n        /* \"Dates_since_B_E_B_Launch.sol\":3614:3619  _days */\n      dup7\n        /* \"Dates_since_B_E_B_Launch.sol\":3614:3623  _days + 1 */\n      tag_65\n      swap2\n      swap1\n      tag_64\n      jump\t// in\n    tag_65:\n        /* \"Dates_since_B_E_B_Launch.sol\":3608:3623  day = _days + 1 */\n      swap3\n      pop\n        /* \"Dates_since_B_E_B_Launch.sol\":3642:3647  break */\n      jump(tag_58)\n        /* \"Dates_since_B_E_B_Launch.sol\":3529:3663  if (_days < daysInMonth[i]) {... */\n    tag_62:\n        /* \"Dates_since_B_E_B_Launch.sol\":3686:3697  daysInMonth */\n      dup2\n        /* \"Dates_since_B_E_B_Launch.sol\":3698:3699  i */\n      dup2\n        /* \"Dates_since_B_E_B_Launch.sol\":3686:3700  daysInMonth[i] */\n      0x0c\n      dup2\n      lt\n      tag_66\n      jumpi\n      tag_67\n      tag_56\n      jump\t// in\n    tag_67:\n    tag_66:\n      0x20\n      mul\n      add\n      mload\n        /* \"Dates_since_B_E_B_Launch.sol\":3677:3700  _days -= daysInMonth[i] */\n      dup7\n      tag_68\n      swap2\n      swap1\n      tag_28\n      jump\t// in\n    tag_68:\n      swap6\n      pop\n        /* \"Dates_since_B_E_B_Launch.sol\":3509:3512  i++ */\n      dup1\n      dup1\n      0x01\n      add\n      swap2\n      pop\n      pop\n        /* \"Dates_since_B_E_B_Launch.sol\":3481:3712  for (uint256 i = 0; i < 12; i++) {... */\n      jump(tag_57)\n    tag_58:\n      pop\n        /* \"Dates_since_B_E_B_Launch.sol\":2451:3719  {... */\n      pop\n        /* \"Dates_since_B_E_B_Launch.sol\":2265:3719  function _calculateDate(uint256 _days)... */\n      swap2\n      swap4\n      swap1\n      swap3\n      pop\n      jump\t// out\n        /* \"Dates_since_B_E_B_Launch.sol\":4106:4648  function uintToString(uint256 _value) internal pure returns (string memory) {... */\n    tag_34:\n        /* \"Dates_since_B_E_B_Launch.sol\":4167:4180  string memory */\n      0x60\n        /* \"Dates_since_B_E_B_Launch.sol\":4207:4208  0 */\n      0x00\n        /* \"Dates_since_B_E_B_Launch.sol\":4197:4203  _value */\n      dup3\n        /* \"Dates_since_B_E_B_Launch.sol\":4197:4208  _value == 0 */\n      sub\n        /* \"Dates_since_B_E_B_Launch.sol\":4193:4247  if (_value == 0) {... */\n      tag_70\n      jumpi\n        /* \"Dates_since_B_E_B_Launch.sol\":4225:4235  return \"0\" */\n      mload(0x40)\n      dup1\n      0x40\n      add\n      0x40\n      mstore\n      dup1\n      0x01\n      dup2\n      mstore\n      0x20\n      add\n      0x3000000000000000000000000000000000000000000000000000000000000000\n      dup2\n      mstore\n      pop\n      swap1\n      pop\n      jump(tag_69)\n        /* \"Dates_since_B_E_B_Launch.sol\":4193:4247  if (_value == 0) {... */\n    tag_70:\n        /* \"Dates_since_B_E_B_Launch.sol\":4257:4269  uint256 temp */\n      0x00\n        /* \"Dates_since_B_E_B_Launch.sol\":4272:4278  _value */\n      dup3\n        /* \"Dates_since_B_E_B_Launch.sol\":4257:4278  uint256 temp = _value */\n      swap1\n      pop\n        /* \"Dates_since_B_E_B_Launch.sol\":4289:4303  uint256 digits */\n      0x00\n        /* \"Dates_since_B_E_B_Launch.sol\":4314:4392  while (temp != 0) {... */\n    tag_71:\n        /* \"Dates_since_B_E_B_Launch.sol\":4329:4330  0 */\n      0x00\n        /* \"Dates_since_B_E_B_Launch.sol\":4321:4325  temp */\n      dup3\n        /* \"Dates_since_B_E_B_Launch.sol\":4321:4330  temp != 0 */\n      eq\n        /* \"Dates_since_B_E_B_Launch.sol\":4314:4392  while (temp != 0) {... */\n      tag_72\n      jumpi\n        /* \"Dates_since_B_E_B_Launch.sol\":4347:4355  digits++ */\n      dup1\n      dup1\n      tag_73\n      swap1\n      tag_48\n      jump\t// in\n    tag_73:\n      swap2\n      pop\n      pop\n        /* \"Dates_since_B_E_B_Launch.sol\":4378:4380  10 */\n      0x0a\n        /* \"Dates_since_B_E_B_Launch.sol\":4370:4380  temp /= 10 */\n      dup3\n      tag_74\n      swap2\n      swap1\n      tag_30\n      jump\t// in\n    tag_74:\n      swap2\n      pop\n        /* \"Dates_since_B_E_B_Launch.sol\":4314:4392  while (temp != 0) {... */\n      jump(tag_71)\n    tag_72:\n        /* \"Dates_since_B_E_B_Launch.sol\":4402:4421  bytes memory buffer */\n      0x00\n        /* \"Dates_since_B_E_B_Launch.sol\":4434:4440  digits */\n      dup2\n        /* \"Dates_since_B_E_B_Launch.sol\":4424:4441  new bytes(digits) */\n      0xffffffffffffffff\n      dup2\n      gt\n      iszero\n      tag_75\n      jumpi\n      tag_76\n      tag_77\n      jump\t// in\n    tag_76:\n    tag_75:\n      mload(0x40)\n      swap1\n      dup1\n      dup3\n      mstore\n      dup1\n      0x1f\n      add\n      not(0x1f)\n      and\n      0x20\n      add\n      dup3\n      add\n      0x40\n      mstore\n      dup1\n      iszero\n      tag_78\n      jumpi\n      dup2\n      0x20\n      add\n      0x01\n      dup3\n      mul\n      dup1\n      calldatasize\n      dup4\n      calldatacopy\n      dup1\n      dup3\n      add\n      swap2\n      pop\n      pop\n      swap1\n      pop\n    tag_78:\n      pop\n        /* \"Dates_since_B_E_B_Launch.sol\":4402:4441  bytes memory buffer = new bytes(digits) */\n      swap1\n      pop\n        /* \"Dates_since_B_E_B_Launch.sol\":4452:4609  while (_value != 0) {... */\n    tag_79:\n        /* \"Dates_since_B_E_B_Launch.sol\":4469:4470  0 */\n      0x00\n        /* \"Dates_since_B_E_B_Launch.sol\":4459:4465  _value */\n      dup6\n        /* \"Dates_since_B_E_B_Launch.sol\":4459:4470  _value != 0 */\n      eq\n        /* \"Dates_since_B_E_B_Launch.sol\":4452:4609  while (_value != 0) {... */\n      tag_80\n      jumpi\n        /* \"Dates_since_B_E_B_Launch.sol\":4497:4498  1 */\n      0x01\n        /* \"Dates_since_B_E_B_Launch.sol\":4487:4498  digits -= 1 */\n      dup3\n      tag_81\n      swap2\n      swap1\n      tag_28\n      jump\t// in\n    tag_81:\n      swap2\n      pop\n        /* \"Dates_since_B_E_B_Launch.sol\":4565:4567  10 */\n      0x0a\n        /* \"Dates_since_B_E_B_Launch.sol\":4556:4562  _value */\n      dup6\n        /* \"Dates_since_B_E_B_Launch.sol\":4556:4567  _value % 10 */\n      tag_82\n      swap2\n      swap1\n      tag_83\n      jump\t// in\n    tag_82:\n        /* \"Dates_since_B_E_B_Launch.sol\":4543:4545  48 */\n      0x30\n        /* \"Dates_since_B_E_B_Launch.sol\":4543:4568  48 + uint256(_value % 10) */\n      tag_84\n      swap2\n      swap1\n      tag_64\n      jump\t// in\n    tag_84:\n        /* \"Dates_since_B_E_B_Launch.sol\":4530:4570  bytes1(uint8(48 + uint256(_value % 10))) */\n      0xf8\n      shl\n        /* \"Dates_since_B_E_B_Launch.sol\":4513:4519  buffer */\n      dup2\n        /* \"Dates_since_B_E_B_Launch.sol\":4520:4526  digits */\n      dup4\n        /* \"Dates_since_B_E_B_Launch.sol\":4513:4527  buffer[digits] */\n      dup2\n      mload\n      dup2\n      lt\n      tag_85\n      jumpi\n      tag_86\n      tag_56\n      jump\t// in\n    tag_86:\n    tag_85:\n      0x20\n      add\n      add\n        /* \"Dates_since_B_E_B_Launch.sol\":4513:4570  buffer[digits] = bytes1(uint8(48 + uint256(_value % 10))) */\n      swap1\n      not(0xffffffffffffffffffffffffffffffffffffffffffffffffffffffffffffff)\n      and\n      swap1\n      dup2\n      0x00\n      byte\n      swap1\n      mstore8\n      pop\n        /* \"Dates_since_B_E_B_Launch.sol\":4595:4597  10 */\n      0x0a\n        /* \"Dates_since_B_E_B_Launch.sol\":4585:4597  _value /= 10 */\n      dup6\n      tag_87\n      swap2\n      swap1\n      tag_30\n      jump\t// in\n    tag_87:\n      swap5\n      pop\n        /* \"Dates_since_B_E_B_Launch.sol\":4452:4609  while (_value != 0) {... */\n      jump(tag_79)\n    tag_80:\n        /* \"Dates_since_B_E_B_Launch.sol\":4633:4639  buffer */\n      dup1\n        /* \"Dates_since_B_E_B_Launch.sol\":4619:4640  return string(buffer) */\n      swap4\n      pop\n      pop\n      pop\n      pop\n        /* \"Dates_since_B_E_B_Launch.sol\":4106:4648  function uintToString(uint256 _value) internal pure returns (string memory) {... */\n    tag_69:\n      swap2\n      swap1\n      pop\n      jump\t// out\n        /* \"Dates_since_B_E_B_Launch.sol\":3779:4037  function _isLeapYear(uint256 _year) internal pure returns (bool) {... */\n    tag_43:\n        /* \"Dates_since_B_E_B_Launch.sol\":3838:3842  bool */\n      0x00\n        /* \"Dates_since_B_E_B_Launch.sol\":3872:3873  0 */\n      dup1\n        /* \"Dates_since_B_E_B_Launch.sol\":3867:3868  4 */\n      0x04\n        /* \"Dates_since_B_E_B_Launch.sol\":3859:3864  _year */\n      dup4\n        /* \"Dates_since_B_E_B_Launch.sol\":3859:3868  _year % 4 */\n      tag_89\n      swap2\n      swap1\n      tag_83\n      jump\t// in\n    tag_89:\n        /* \"Dates_since_B_E_B_Launch.sol\":3859:3873  _year % 4 == 0 */\n      sub\n        /* \"Dates_since_B_E_B_Launch.sol\":3855:4007  if (_year % 4 == 0) {... */\n      tag_90\n      jumpi\n        /* \"Dates_since_B_E_B_Launch.sol\":3909:3910  0 */\n      0x00\n        /* \"Dates_since_B_E_B_Launch.sol\":3902:3905  100 */\n      0x64\n        /* \"Dates_since_B_E_B_Launch.sol\":3894:3899  _year */\n      dup4\n        /* \"Dates_since_B_E_B_Launch.sol\":3894:3905  _year % 100 */\n      tag_91\n      swap2\n      swap1\n      tag_83\n      jump\t// in\n    tag_91:\n        /* \"Dates_since_B_E_B_Launch.sol\":3894:3910  _year % 100 == 0 */\n      sub\n        /* \"Dates_since_B_E_B_Launch.sol\":3890:3970  if (_year % 100 == 0) {... */\n      tag_92\n      jumpi\n        /* \"Dates_since_B_E_B_Launch.sol\":3953:3954  0 */\n      0x00\n        /* \"Dates_since_B_E_B_Launch.sol\":3946:3949  400 */\n      0x0190\n        /* \"Dates_since_B_E_B_Launch.sol\":3938:3943  _year */\n      dup4\n        /* \"Dates_since_B_E_B_Launch.sol\":3938:3949  _year % 400 */\n      tag_93\n      swap2\n      swap1\n      tag_83\n      jump\t// in\n    tag_93:\n        /* \"Dates_since_B_E_B_Launch.sol\":3938:3954  _year % 400 == 0 */\n      eq\n        /* \"Dates_since_B_E_B_Launch.sol\":3931:3954  return _year % 400 == 0 */\n      swap1\n      pop\n      jump(tag_88)\n        /* \"Dates_since_B_E_B_Launch.sol\":3890:3970  if (_year % 100 == 0) {... */\n    tag_92:\n        /* \"Dates_since_B_E_B_Launch.sol\":3991:3995  true */\n      0x01\n        /* \"Dates_since_B_E_B_Launch.sol\":3984:3995  return true */\n      swap1\n      pop\n      jump(tag_88)\n        /* \"Dates_since_B_E_B_Launch.sol\":3855:4007  if (_year % 4 == 0) {... */\n    tag_90:\n        /* \"Dates_since_B_E_B_Launch.sol\":4024:4029  false */\n      0x00\n        /* \"Dates_since_B_E_B_Launch.sol\":4017:4029  return false */\n      swap1\n      pop\n        /* \"Dates_since_B_E_B_Launch.sol\":3779:4037  function _isLeapYear(uint256 _year) internal pure returns (bool) {... */\n    tag_88:\n      swap2\n      swap1\n      pop\n      jump\t// out\n        /* \"#utility.yul\":7:106   */\n    tag_94:\n        /* \"#utility.yul\":59:65   */\n      0x00\n        /* \"#utility.yul\":93:98   */\n      dup2\n        /* \"#utility.yul\":87:99   */\n      mload\n        /* \"#utility.yul\":77:99   */\n      swap1\n      pop\n        /* \"#utility.yul\":7:106   */\n      swap2\n      swap1\n      pop\n      jump\t// out\n        /* \"#utility.yul\":112:281   */\n    tag_95:\n        /* \"#utility.yul\":196:207   */\n      0x00\n        /* \"#utility.yul\":230:236   */\n      dup3\n        /* \"#utility.yul\":225:228   */\n      dup3\n        /* \"#utility.yul\":218:237   */\n      mstore\n        /* \"#utility.yul\":270:274   */\n      0x20\n        /* \"#utility.yul\":265:268   */\n      dup3\n        /* \"#utility.yul\":261:275   */\n      add\n        /* \"#utility.yul\":246:275   */\n      swap1\n      pop\n        /* \"#utility.yul\":112:281   */\n      swap3\n      swap2\n      pop\n      pop\n      jump\t// out\n        /* \"#utility.yul\":287:535   */\n    tag_96:\n        /* \"#utility.yul\":369:370   */\n      0x00\n        /* \"#utility.yul\":379:492   */\n    tag_112:\n        /* \"#utility.yul\":393:399   */\n      dup4\n        /* \"#utility.yul\":390:391   */\n      dup2\n        /* \"#utility.yul\":387:400   */\n      lt\n        /* \"#utility.yul\":379:492   */\n      iszero\n      tag_114\n      jumpi\n        /* \"#utility.yul\":478:479   */\n      dup1\n        /* \"#utility.yul\":473:476   */\n      dup3\n        /* \"#utility.yul\":469:480   */\n      add\n        /* \"#utility.yul\":463:481   */\n      mload\n        /* \"#utility.yul\":459:460   */\n      dup2\n        /* \"#utility.yul\":454:457   */\n      dup5\n        /* \"#utility.yul\":450:461   */\n      add\n        /* \"#utility.yul\":443:482   */\n      mstore\n        /* \"#utility.yul\":415:417   */\n      0x20\n        /* \"#utility.yul\":412:413   */\n      dup2\n        /* \"#utility.yul\":408:418   */\n      add\n        /* \"#utility.yul\":403:418   */\n      swap1\n      pop\n        /* \"#utility.yul\":379:492   */\n      jump(tag_112)\n    tag_114:\n        /* \"#utility.yul\":526:527   */\n      0x00\n        /* \"#utility.yul\":517:523   */\n      dup5\n        /* \"#utility.yul\":512:515   */\n      dup5\n        /* \"#utility.yul\":508:524   */\n      add\n        /* \"#utility.yul\":501:528   */\n      mstore\n        /* \"#utility.yul\":349:535   */\n      pop\n        /* \"#utility.yul\":287:535   */\n      pop\n      pop\n      pop\n      jump\t// out\n        /* \"#utility.yul\":541:643   */\n    tag_97:\n        /* \"#utility.yul\":582:588   */\n      0x00\n        /* \"#utility.yul\":633:635   */\n      0x1f\n        /* \"#utility.yul\":629:636   */\n      not\n        /* \"#utility.yul\":624:626   */\n      0x1f\n        /* \"#utility.yul\":617:622   */\n      dup4\n        /* \"#utility.yul\":613:627   */\n      add\n        /* \"#utility.yul\":609:637   */\n      and\n        /* \"#utility.yul\":599:637   */\n      swap1\n      pop\n        /* \"#utility.yul\":541:643   */\n      swap2\n      swap1\n      pop\n      jump\t// out\n        /* \"#utility.yul\":649:1026   */\n    tag_98:\n        /* \"#utility.yul\":737:740   */\n      0x00\n        /* \"#utility.yul\":765:804   */\n      tag_117\n        /* \"#utility.yul\":798:803   */\n      dup3\n        /* \"#utility.yul\":765:804   */\n      tag_94\n      jump\t// in\n    tag_117:\n        /* \"#utility.yul\":820:891   */\n      tag_118\n        /* \"#utility.yul\":884:890   */\n      dup2\n        /* \"#utility.yul\":879:882   */\n      dup6\n        /* \"#utility.yul\":820:891   */\n      tag_95\n      jump\t// in\n    tag_118:\n        /* \"#utility.yul\":813:891   */\n      swap4\n      pop\n        /* \"#utility.yul\":900:965   */\n      tag_119\n        /* \"#utility.yul\":958:964   */\n      dup2\n        /* \"#utility.yul\":953:956   */\n      dup6\n        /* \"#utility.yul\":946:950   */\n      0x20\n        /* \"#utility.yul\":939:944   */\n      dup7\n        /* \"#utility.yul\":935:951   */\n      add\n        /* \"#utility.yul\":900:965   */\n      tag_96\n      jump\t// in\n    tag_119:\n        /* \"#utility.yul\":990:1019   */\n      tag_120\n        /* \"#utility.yul\":1012:1018   */\n      dup2\n        /* \"#utility.yul\":990:1019   */\n      tag_97\n      jump\t// in\n    tag_120:\n        /* \"#utility.yul\":985:988   */\n      dup5\n        /* \"#utility.yul\":981:1020   */\n      add\n        /* \"#utility.yul\":974:1020   */\n      swap2\n      pop\n        /* \"#utility.yul\":741:1026   */\n      pop\n        /* \"#utility.yul\":649:1026   */\n      swap3\n      swap2\n      pop\n      pop\n      jump\t// out\n        /* \"#utility.yul\":1032:1345   */\n    tag_9:\n        /* \"#utility.yul\":1145:1149   */\n      0x00\n        /* \"#utility.yul\":1183:1185   */\n      0x20\n        /* \"#utility.yul\":1172:1181   */\n      dup3\n        /* \"#utility.yul\":1168:1186   */\n      add\n        /* \"#utility.yul\":1160:1186   */\n      swap1\n      pop\n        /* \"#utility.yul\":1232:1241   */\n      dup2\n        /* \"#utility.yul\":1226:1230   */\n      dup2\n        /* \"#utility.yul\":1222:1242   */\n      sub\n        /* \"#utility.yul\":1218:1219   */\n      0x00\n        /* \"#utility.yul\":1207:1216   */\n      dup4\n        /* \"#utility.yul\":1203:1220   */\n      add\n        /* \"#utility.yul\":1196:1243   */\n      mstore\n        /* \"#utility.yul\":1260:1338   */\n      tag_122\n        /* \"#utility.yul\":1333:1337   */\n      dup2\n        /* \"#utility.yul\":1324:1330   */\n      dup5\n        /* \"#utility.yul\":1260:1338   */\n      tag_98\n      jump\t// in\n    tag_122:\n        /* \"#utility.yul\":1252:1338   */\n      swap1\n      pop\n        /* \"#utility.yul\":1032:1345   */\n      swap3\n      swap2\n      pop\n      pop\n      jump\t// out\n        /* \"#utility.yul\":1351:1588   */\n    tag_99:\n        /* \"#utility.yul\":1491:1525   */\n      0x43757272656e742074696d65206973206265666f72652074686520626c6f636b\n        /* \"#utility.yul\":1487:1488   */\n      0x00\n        /* \"#utility.yul\":1479:1485   */\n      dup3\n        /* \"#utility.yul\":1475:1489   */\n      add\n        /* \"#utility.yul\":1468:1526   */\n      mstore\n        /* \"#utility.yul\":1560:1580   */\n      0x636861696e206c61756e636820646174652e0000000000000000000000000000\n        /* \"#utility.yul\":1555:1557   */\n      0x20\n        /* \"#utility.yul\":1547:1553   */\n      dup3\n        /* \"#utility.yul\":1543:1558   */\n      add\n        /* \"#utility.yul\":1536:1581   */\n      mstore\n        /* \"#utility.yul\":1351:1588   */\n      pop\n      jump\t// out\n        /* \"#utility.yul\":1594:1960   */\n    tag_100:\n        /* \"#utility.yul\":1736:1739   */\n      0x00\n        /* \"#utility.yul\":1757:1824   */\n      tag_125\n        /* \"#utility.yul\":1821:1823   */\n      0x32\n        /* \"#utility.yul\":1816:1819   */\n      dup4\n        /* \"#utility.yul\":1757:1824   */\n      tag_95\n      jump\t// in\n    tag_125:\n        /* \"#utility.yul\":1750:1824   */\n      swap2\n      pop\n        /* \"#utility.yul\":1833:1926   */\n      tag_126\n        /* \"#utility.yul\":1922:1925   */\n      dup3\n        /* \"#utility.yul\":1833:1926   */\n      tag_99\n      jump\t// in\n    tag_126:\n        /* \"#utility.yul\":1951:1953   */\n      0x40\n        /* \"#utility.yul\":1946:1949   */\n      dup3\n        /* \"#utility.yul\":1942:1954   */\n      add\n        /* \"#utility.yul\":1935:1954   */\n      swap1\n      pop\n        /* \"#utility.yul\":1594:1960   */\n      swap2\n      swap1\n      pop\n      jump\t// out\n        /* \"#utility.yul\":1966:2385   */\n    tag_26:\n        /* \"#utility.yul\":2132:2136   */\n      0x00\n        /* \"#utility.yul\":2170:2172   */\n      0x20\n        /* \"#utility.yul\":2159:2168   */\n      dup3\n        /* \"#utility.yul\":2155:2173   */\n      add\n        /* \"#utility.yul\":2147:2173   */\n      swap1\n      pop\n        /* \"#utility.yul\":2219:2228   */\n      dup2\n        /* \"#utility.yul\":2213:2217   */\n      dup2\n        /* \"#utility.yul\":2209:2229   */\n      sub\n        /* \"#utility.yul\":2205:2206   */\n      0x00\n        /* \"#utility.yul\":2194:2203   */\n      dup4\n        /* \"#utility.yul\":2190:2207   */\n      add\n        /* \"#utility.yul\":2183:2230   */\n      mstore\n        /* \"#utility.yul\":2247:2378   */\n      tag_128\n        /* \"#utility.yul\":2373:2377   */\n      dup2\n        /* \"#utility.yul\":2247:2378   */\n      tag_100\n      jump\t// in\n    tag_128:\n        /* \"#utility.yul\":2239:2378   */\n      swap1\n      pop\n        /* \"#utility.yul\":1966:2385   */\n      swap2\n      swap1\n      pop\n      jump\t// out\n        /* \"#utility.yul\":2391:2468   */\n    tag_101:\n        /* \"#utility.yul\":2428:2435   */\n      0x00\n        /* \"#utility.yul\":2457:2462   */\n      dup2\n        /* \"#utility.yul\":2446:2462   */\n      swap1\n      pop\n        /* \"#utility.yul\":2391:2468   */\n      swap2\n      swap1\n      pop\n      jump\t// out\n        /* \"#utility.yul\":2474:2654   */\n    tag_102:\n        /* \"#utility.yul\":2522:2599   */\n      0x4e487b7100000000000000000000000000000000000000000000000000000000\n        /* \"#utility.yul\":2519:2520   */\n      0x00\n        /* \"#utility.yul\":2512:2600   */\n      mstore\n        /* \"#utility.yul\":2619:2623   */\n      0x11\n        /* \"#utility.yul\":2616:2617   */\n      0x04\n        /* \"#utility.yul\":2609:2624   */\n      mstore\n        /* \"#utility.yul\":2643:2647   */\n      0x24\n        /* \"#utility.yul\":2640:2641   */\n      0x00\n        /* \"#utility.yul\":2633:2648   */\n      revert\n        /* \"#utility.yul\":2660:2854   */\n    tag_28:\n        /* \"#utility.yul\":2700:2704   */\n      0x00\n        /* \"#utility.yul\":2720:2740   */\n      tag_132\n        /* \"#utility.yul\":2738:2739   */\n      dup3\n        /* \"#utility.yul\":2720:2740   */\n      tag_101\n      jump\t// in\n    tag_132:\n        /* \"#utility.yul\":2715:2740   */\n      swap2\n      pop\n        /* \"#utility.yul\":2754:2774   */\n      tag_133\n        /* \"#utility.yul\":2772:2773   */\n      dup4\n        /* \"#utility.yul\":2754:2774   */\n      tag_101\n      jump\t// in\n    tag_133:\n        /* \"#utility.yul\":2749:2774   */\n      swap3\n      pop\n        /* \"#utility.yul\":2798:2799   */\n      dup3\n        /* \"#utility.yul\":2795:2796   */\n      dup3\n        /* \"#utility.yul\":2791:2800   */\n      sub\n        /* \"#utility.yul\":2783:2800   */\n      swap1\n      pop\n        /* \"#utility.yul\":2822:2823   */\n      dup2\n        /* \"#utility.yul\":2816:2820   */\n      dup2\n        /* \"#utility.yul\":2813:2824   */\n      gt\n        /* \"#utility.yul\":2810:2847   */\n      iszero\n      tag_134\n      jumpi\n        /* \"#utility.yul\":2827:2845   */\n      tag_135\n      tag_102\n      jump\t// in\n    tag_135:\n        /* \"#utility.yul\":2810:2847   */\n    tag_134:\n        /* \"#utility.yul\":2660:2854   */\n      swap3\n      swap2\n      pop\n      pop\n      jump\t// out\n        /* \"#utility.yul\":2860:3040   */\n    tag_103:\n        /* \"#utility.yul\":2908:2985   */\n      0x4e487b7100000000000000000000000000000000000000000000000000000000\n        /* \"#utility.yul\":2905:2906   */\n      0x00\n        /* \"#utility.yul\":2898:2986   */\n      mstore\n        /* \"#utility.yul\":3005:3009   */\n      0x12\n        /* \"#utility.yul\":3002:3003   */\n      0x04\n        /* \"#utility.yul\":2995:3010   */\n      mstore\n        /* \"#utility.yul\":3029:3033   */\n      0x24\n        /* \"#utility.yul\":3026:3027   */\n      0x00\n        /* \"#utility.yul\":3019:3034   */\n      revert\n        /* \"#utility.yul\":3046:3231   */\n    tag_30:\n        /* \"#utility.yul\":3086:3087   */\n      0x00\n        /* \"#utility.yul\":3103:3123   */\n      tag_138\n        /* \"#utility.yul\":3121:3122   */\n      dup3\n        /* \"#utility.yul\":3103:3123   */\n      tag_101\n      jump\t// in\n    tag_138:\n        /* \"#utility.yul\":3098:3123   */\n      swap2\n      pop\n        /* \"#utility.yul\":3137:3157   */\n      tag_139\n        /* \"#utility.yul\":3155:3156   */\n      dup4\n        /* \"#utility.yul\":3137:3157   */\n      tag_101\n      jump\t// in\n    tag_139:\n        /* \"#utility.yul\":3132:3157   */\n      swap3\n      pop\n        /* \"#utility.yul\":3176:3177   */\n      dup3\n        /* \"#utility.yul\":3166:3201   */\n      tag_140\n      jumpi\n        /* \"#utility.yul\":3181:3199   */\n      tag_141\n      tag_103\n      jump\t// in\n    tag_141:\n        /* \"#utility.yul\":3166:3201   */\n    tag_140:\n        /* \"#utility.yul\":3223:3224   */\n      dup3\n        /* \"#utility.yul\":3220:3221   */\n      dup3\n        /* \"#utility.yul\":3216:3225   */\n      div\n        /* \"#utility.yul\":3211:3225   */\n      swap1\n      pop\n        /* \"#utility.yul\":3046:3231   */\n      swap3\n      swap2\n      pop\n      pop\n      jump\t// out\n        /* \"#utility.yul\":3237:3385   */\n    tag_104:\n        /* \"#utility.yul\":3339:3350   */\n      0x00\n        /* \"#utility.yul\":3376:3379   */\n      dup2\n        /* \"#utility.yul\":3361:3379   */\n      swap1\n      pop\n        /* \"#utility.yul\":3237:3385   */\n      swap3\n      swap2\n      pop\n      pop\n      jump\t// out\n        /* \"#utility.yul\":3391:3781   */\n    tag_105:\n        /* \"#utility.yul\":3497:3500   */\n      0x00\n        /* \"#utility.yul\":3525:3564   */\n      tag_144\n        /* \"#utility.yul\":3558:3563   */\n      dup3\n        /* \"#utility.yul\":3525:3564   */\n      tag_94\n      jump\t// in\n    tag_144:\n        /* \"#utility.yul\":3580:3669   */\n      tag_145\n        /* \"#utility.yul\":3662:3668   */\n      dup2\n        /* \"#utility.yul\":3657:3660   */\n      dup6\n        /* \"#utility.yul\":3580:3669   */\n      tag_104\n      jump\t// in\n    tag_145:\n        /* \"#utility.yul\":3573:3669   */\n      swap4\n      pop\n        /* \"#utility.yul\":3678:3743   */\n      tag_146\n        /* \"#utility.yul\":3736:3742   */\n      dup2\n        /* \"#utility.yul\":3731:3734   */\n      dup6\n        /* \"#utility.yul\":3724:3728   */\n      0x20\n        /* \"#utility.yul\":3717:3722   */\n      dup7\n        /* \"#utility.yul\":3713:3729   */\n      add\n        /* \"#utility.yul\":3678:3743   */\n      tag_96\n      jump\t// in\n    tag_146:\n        /* \"#utility.yul\":3768:3774   */\n      dup1\n        /* \"#utility.yul\":3763:3766   */\n      dup5\n        /* \"#utility.yul\":3759:3775   */\n      add\n        /* \"#utility.yul\":3752:3775   */\n      swap2\n      pop\n        /* \"#utility.yul\":3501:3781   */\n      pop\n        /* \"#utility.yul\":3391:3781   */\n      swap3\n      swap2\n      pop\n      pop\n      jump\t// out\n        /* \"#utility.yul\":3787:3938   */\n    tag_106:\n        /* \"#utility.yul\":3927:3930   */\n      0x2f00000000000000000000000000000000000000000000000000000000000000\n        /* \"#utility.yul\":3923:3924   */\n      0x00\n        /* \"#utility.yul\":3915:3921   */\n      dup3\n        /* \"#utility.yul\":3911:3925   */\n      add\n        /* \"#utility.yul\":3904:3931   */\n      mstore\n        /* \"#utility.yul\":3787:3938   */\n      pop\n      jump\t// out\n        /* \"#utility.yul\":3944:4344   */\n    tag_107:\n        /* \"#utility.yul\":4104:4107   */\n      0x00\n        /* \"#utility.yul\":4125:4209   */\n      tag_149\n        /* \"#utility.yul\":4207:4208   */\n      0x01\n        /* \"#utility.yul\":4202:4205   */\n      dup4\n        /* \"#utility.yul\":4125:4209   */\n      tag_104\n      jump\t// in\n    tag_149:\n        /* \"#utility.yul\":4118:4209   */\n      swap2\n      pop\n        /* \"#utility.yul\":4218:4311   */\n      tag_150\n        /* \"#utility.yul\":4307:4310   */\n      dup3\n        /* \"#utility.yul\":4218:4311   */\n      tag_106\n      jump\t// in\n    tag_150:\n        /* \"#utility.yul\":4336:4337   */\n      0x01\n        /* \"#utility.yul\":4331:4334   */\n      dup3\n        /* \"#utility.yul\":4327:4338   */\n      add\n        /* \"#utility.yul\":4320:4338   */\n      swap1\n      pop\n        /* \"#utility.yul\":3944:4344   */\n      swap2\n      swap1\n      pop\n      jump\t// out\n        /* \"#utility.yul\":4350:5477   */\n    tag_38:\n        /* \"#utility.yul\":4780:4783   */\n      0x00\n        /* \"#utility.yul\":4802:4897   */\n      tag_152\n        /* \"#utility.yul\":4893:4896   */\n      dup3\n        /* \"#utility.yul\":4884:4890   */\n      dup7\n        /* \"#utility.yul\":4802:4897   */\n      tag_105\n      jump\t// in\n    tag_152:\n        /* \"#utility.yul\":4795:4897   */\n      swap2\n      pop\n        /* \"#utility.yul\":4914:5062   */\n      tag_153\n        /* \"#utility.yul\":5058:5061   */\n      dup3\n        /* \"#utility.yul\":4914:5062   */\n      tag_107\n      jump\t// in\n    tag_153:\n        /* \"#utility.yul\":4907:5062   */\n      swap2\n      pop\n        /* \"#utility.yul\":5079:5174   */\n      tag_154\n        /* \"#utility.yul\":5170:5173   */\n      dup3\n        /* \"#utility.yul\":5161:5167   */\n      dup6\n        /* \"#utility.yul\":5079:5174   */\n      tag_105\n      jump\t// in\n    tag_154:\n        /* \"#utility.yul\":5072:5174   */\n      swap2\n      pop\n        /* \"#utility.yul\":5191:5339   */\n      tag_155\n        /* \"#utility.yul\":5335:5338   */\n      dup3\n        /* \"#utility.yul\":5191:5339   */\n      tag_107\n      jump\t// in\n    tag_155:\n        /* \"#utility.yul\":5184:5339   */\n      swap2\n      pop\n        /* \"#utility.yul\":5356:5451   */\n      tag_156\n        /* \"#utility.yul\":5447:5450   */\n      dup3\n        /* \"#utility.yul\":5438:5444   */\n      dup5\n        /* \"#utility.yul\":5356:5451   */\n      tag_105\n      jump\t// in\n    tag_156:\n        /* \"#utility.yul\":5349:5451   */\n      swap2\n      pop\n        /* \"#utility.yul\":5468:5471   */\n      dup2\n        /* \"#utility.yul\":5461:5471   */\n      swap1\n      pop\n        /* \"#utility.yul\":4350:5477   */\n      swap5\n      swap4\n      pop\n      pop\n      pop\n      pop\n      jump\t// out\n        /* \"#utility.yul\":5483:5716   */\n    tag_48:\n        /* \"#utility.yul\":5522:5525   */\n      0x00\n        /* \"#utility.yul\":5545:5569   */\n      tag_158\n        /* \"#utility.yul\":5563:5568   */\n      dup3\n        /* \"#utility.yul\":5545:5569   */\n      tag_101\n      jump\t// in\n    tag_158:\n        /* \"#utility.yul\":5536:5569   */\n      swap2\n      pop\n        /* \"#utility.yul\":5591:5657   */\n      0xffffffffffffffffffffffffffffffffffffffffffffffffffffffffffffffff\n        /* \"#utility.yul\":5584:5589   */\n      dup3\n        /* \"#utility.yul\":5581:5658   */\n      sub\n        /* \"#utility.yul\":5578:5681   */\n      tag_159\n      jumpi\n        /* \"#utility.yul\":5661:5679   */\n      tag_160\n      tag_102\n      jump\t// in\n    tag_160:\n        /* \"#utility.yul\":5578:5681   */\n    tag_159:\n        /* \"#utility.yul\":5708:5709   */\n      0x01\n        /* \"#utility.yul\":5701:5706   */\n      dup3\n        /* \"#utility.yul\":5697:5710   */\n      add\n        /* \"#utility.yul\":5690:5710   */\n      swap1\n      pop\n        /* \"#utility.yul\":5483:5716   */\n      swap2\n      swap1\n      pop\n      jump\t// out\n        /* \"#utility.yul\":5722:5902   */\n    tag_56:\n        /* \"#utility.yul\":5770:5847   */\n      0x4e487b7100000000000000000000000000000000000000000000000000000000\n        /* \"#utility.yul\":5767:5768   */\n      0x00\n        /* \"#utility.yul\":5760:5848   */\n      mstore\n        /* \"#utility.yul\":5867:5871   */\n      0x32\n        /* \"#utility.yul\":5864:5865   */\n      0x04\n        /* \"#utility.yul\":5857:5872   */\n      mstore\n        /* \"#utility.yul\":5891:5895   */\n      0x24\n        /* \"#utility.yul\":5888:5889   */\n      0x00\n        /* \"#utility.yul\":5881:5896   */\n      revert\n        /* \"#utility.yul\":5908:6099   */\n    tag_64:\n        /* \"#utility.yul\":5948:5951   */\n      0x00\n        /* \"#utility.yul\":5967:5987   */\n      tag_163\n        /* \"#utility.yul\":5985:5986   */\n      dup3\n        /* \"#utility.yul\":5967:5987   */\n      tag_101\n      jump\t// in\n    tag_163:\n        /* \"#utility.yul\":5962:5987   */\n      swap2\n      pop\n        /* \"#utility.yul\":6001:6021   */\n      tag_164\n        /* \"#utility.yul\":6019:6020   */\n      dup4\n        /* \"#utility.yul\":6001:6021   */\n      tag_101\n      jump\t// in\n    tag_164:\n        /* \"#utility.yul\":5996:6021   */\n      swap3\n      pop\n        /* \"#utility.yul\":6044:6045   */\n      dup3\n        /* \"#utility.yul\":6041:6042   */\n      dup3\n        /* \"#utility.yul\":6037:6046   */\n      add\n        /* \"#utility.yul\":6030:6046   */\n      swap1\n      pop\n        /* \"#utility.yul\":6065:6068   */\n      dup1\n        /* \"#utility.yul\":6062:6063   */\n      dup3\n        /* \"#utility.yul\":6059:6069   */\n      gt\n        /* \"#utility.yul\":6056:6092   */\n      iszero\n      tag_165\n      jumpi\n        /* \"#utility.yul\":6072:6090   */\n      tag_166\n      tag_102\n      jump\t// in\n    tag_166:\n        /* \"#utility.yul\":6056:6092   */\n    tag_165:\n        /* \"#utility.yul\":5908:6099   */\n      swap3\n      swap2\n      pop\n      pop\n      jump\t// out\n        /* \"#utility.yul\":6105:6285   */\n    tag_77:\n        /* \"#utility.yul\":6153:6230   */\n      0x4e487b7100000000000000000000000000000000000000000000000000000000\n        /* \"#utility.yul\":6150:6151   */\n      0x00\n        /* \"#utility.yul\":6143:6231   */\n      mstore\n        /* \"#utility.yul\":6250:6254   */\n      0x41\n        /* \"#utility.yul\":6247:6248   */\n      0x04\n        /* \"#utility.yul\":6240:6255   */\n      mstore\n        /* \"#utility.yul\":6274:6278   */\n      0x24\n        /* \"#utility.yul\":6271:6272   */\n      0x00\n        /* \"#utility.yul\":6264:6279   */\n      revert\n        /* \"#utility.yul\":6291:6467   */\n    tag_83:\n        /* \"#utility.yul\":6323:6324   */\n      0x00\n        /* \"#utility.yul\":6340:6360   */\n      tag_169\n        /* \"#utility.yul\":6358:6359   */\n      dup3\n        /* \"#utility.yul\":6340:6360   */\n      tag_101\n      jump\t// in\n    tag_169:\n        /* \"#utility.yul\":6335:6360   */\n      swap2\n      pop\n        /* \"#utility.yul\":6374:6394   */\n      tag_170\n        /* \"#utility.yul\":6392:6393   */\n      dup4\n        /* \"#utility.yul\":6374:6394   */\n      tag_101\n      jump\t// in\n    tag_170:\n        /* \"#utility.yul\":6369:6394   */\n      swap3\n      pop\n        /* \"#utility.yul\":6413:6414   */\n      dup3\n        /* \"#utility.yul\":6403:6438   */\n      tag_171\n      jumpi\n        /* \"#utility.yul\":6418:6436   */\n      tag_172\n      tag_103\n      jump\t// in\n    tag_172:\n        /* \"#utility.yul\":6403:6438   */\n    tag_171:\n        /* \"#utility.yul\":6459:6460   */\n      dup3\n        /* \"#utility.yul\":6456:6457   */\n      dup3\n        /* \"#utility.yul\":6452:6461   */\n      mod\n        /* \"#utility.yul\":6447:6461   */\n      swap1\n      pop\n        /* \"#utility.yul\":6291:6467   */\n      swap3\n      swap2\n      pop\n      pop\n      jump\t// out\n\n    auxdata: 0xa26469706673582212205d39c5bf63a8e1ade2313458a12a1d74bf78eee67ab9e0d946dab70df158e91864736f6c634300081c0033\n}\n",
				"bytecode": {
					"linkReferences": {},
					"object": "6080604052348015600f57600080fd5b506108fb8061001f6000396000f3fe608060405234801561001057600080fd5b50600436106100415760003560e01c80630f68108b14610046578063a2ed167314610064578063fd86547c14610082575b600080fd5b61004e6100a0565b60405161005b919061056a565b60405180910390f35b61006c6100b4565b604051610079919061056a565b60405180910390f35b61008a6100c8565b604051610097919061056a565b60405180910390f35b60606100af6364d3b8006100dc565b905090565b60606100c363495fab246100dc565b905090565b60606100d76355ba5e286100dc565b905090565b606081421015610121576040517f08c379a0000000000000000000000000000000000000000000000000000000008152600401610118906105fe565b60405180910390fd5b60006201518083426101339190610657565b61013d91906106ba565b9050600080600061014d8461019a565b92509250925061015c81610326565b61016583610326565b61016e85610326565b60405160200161018093929190610773565b604051602081830303815290604052945050505050919050565b60008060006107d992506000604051806101800160405280601f8152602001601c8152602001601f8152602001601e8152602001601f8152602001601e8152602001601f8152602001601f8152602001601e8152602001601f8152602001601e8152602001601f81525090505b61016d851061026f5761021984610486565b1561024b5761016e85106102465761016e856102359190610657565b94508380610242906107ba565b9450505b61026a565b61016d856102599190610657565b94508380610266906107ba565b9450505b610207565b61027884610486565b1561029d57601d816001600c811061029357610292610802565b5b6020020181815250505b60005b600c81101561031d578181600c81106102bc576102bb610802565b5b60200201518610156102eb576001816102d59190610831565b93506001866102e49190610831565b925061031d565b8181600c81106102fe576102fd610802565b5b60200201518661030e9190610657565b955080806001019150506102a0565b50509193909250565b60606000820361036d576040518060400160405280600181526020017f30000000000000000000000000000000000000000000000000000000000000008152509050610481565b600082905060005b6000821461039f578080610388906107ba565b915050600a8261039891906106ba565b9150610375565b60008167ffffffffffffffff8111156103bb576103ba610865565b5b6040519080825280601f01601f1916602001820160405280156103ed5781602001600182028036833780820191505090505b5090505b6000851461047a576001826104069190610657565b9150600a856104159190610894565b60306104219190610831565b60f81b81838151811061043757610436610802565b5b60200101907effffffffffffffffffffffffffffffffffffffffffffffffffffffffffffff1916908160001a905350600a8561047391906106ba565b94506103f1565b8093505050505b919050565b6000806004836104969190610894565b036104d05760006064836104aa9190610894565b036104c7576000610190836104bf9190610894565b1490506104d5565b600190506104d5565b600090505b919050565b600081519050919050565b600082825260208201905092915050565b60005b838110156105145780820151818401526020810190506104f9565b60008484015250505050565b6000601f19601f8301169050919050565b600061053c826104da565b61054681856104e5565b93506105568185602086016104f6565b61055f81610520565b840191505092915050565b600060208201905081810360008301526105848184610531565b905092915050565b7f43757272656e742074696d65206973206265666f72652074686520626c6f636b60008201527f636861696e206c61756e636820646174652e0000000000000000000000000000602082015250565b60006105e86032836104e5565b91506105f38261058c565b604082019050919050565b60006020820190508181036000830152610617816105db565b9050919050565b6000819050919050565b7f4e487b7100000000000000000000000000000000000000000000000000000000600052601160045260246000fd5b60006106628261061e565b915061066d8361061e565b925082820390508181111561068557610684610628565b5b92915050565b7f4e487b7100000000000000000000000000000000000000000000000000000000600052601260045260246000fd5b60006106c58261061e565b91506106d08361061e565b9250826106e0576106df61068b565b5b828204905092915050565b600081905092915050565b6000610701826104da565b61070b81856106eb565b935061071b8185602086016104f6565b80840191505092915050565b7f2f00000000000000000000000000000000000000000000000000000000000000600082015250565b600061075d6001836106eb565b915061076882610727565b600182019050919050565b600061077f82866106f6565b915061078a82610750565b915061079682856106f6565b91506107a182610750565b91506107ad82846106f6565b9150819050949350505050565b60006107c58261061e565b91507fffffffffffffffffffffffffffffffffffffffffffffffffffffffffffffffff82036107f7576107f6610628565b5b600182019050919050565b7f4e487b7100000000000000000000000000000000000000000000000000000000600052603260045260246000fd5b600061083c8261061e565b91506108478361061e565b925082820190508082111561085f5761085e610628565b5b92915050565b7f4e487b7100000000000000000000000000000000000000000000000000000000600052604160045260246000fd5b600061089f8261061e565b91506108aa8361061e565b9250826108ba576108b961068b565b5b82820690509291505056fea26469706673582212205d39c5bf63a8e1ade2313458a12a1d74bf78eee67ab9e0d946dab70df158e91864736f6c634300081c0033",
					"opcodes": "PUSH1 0x80 PUSH1 0x40 MSTORE CALLVALUE DUP1 ISZERO PUSH1 0xF JUMPI PUSH1 0x0 DUP1 REVERT JUMPDEST POP PUSH2 0x8FB DUP1 PUSH2 0x1F PUSH1 0x0 CODECOPY PUSH1 0x0 RETURN INVALID PUSH1 0x80 PUSH1 0x40 MSTORE CALLVALUE DUP1 ISZERO PUSH2 0x10 JUMPI PUSH1 0x0 DUP1 REVERT JUMPDEST POP PUSH1 0x4 CALLDATASIZE LT PUSH2 0x41 JUMPI PUSH1 0x0 CALLDATALOAD PUSH1 0xE0 SHR DUP1 PUSH4 0xF68108B EQ PUSH2 0x46 JUMPI DUP1 PUSH4 0xA2ED1673 EQ PUSH2 0x64 JUMPI DUP1 PUSH4 0xFD86547C EQ PUSH2 0x82 JUMPI JUMPDEST PUSH1 0x0 DUP1 REVERT JUMPDEST PUSH2 0x4E PUSH2 0xA0 JUMP JUMPDEST PUSH1 0x40 MLOAD PUSH2 0x5B SWAP2 SWAP1 PUSH2 0x56A JUMP JUMPDEST PUSH1 0x40 MLOAD DUP1 SWAP2 SUB SWAP1 RETURN JUMPDEST PUSH2 0x6C PUSH2 0xB4 JUMP JUMPDEST PUSH1 0x40 MLOAD PUSH2 0x79 SWAP2 SWAP1 PUSH2 0x56A JUMP JUMPDEST PUSH1 0x40 MLOAD DUP1 SWAP2 SUB SWAP1 RETURN JUMPDEST PUSH2 0x8A PUSH2 0xC8 JUMP JUMPDEST PUSH1 0x40 MLOAD PUSH2 0x97 SWAP2 SWAP1 PUSH2 0x56A JUMP JUMPDEST PUSH1 0x40 MLOAD DUP1 SWAP2 SUB SWAP1 RETURN JUMPDEST PUSH1 0x60 PUSH2 0xAF PUSH4 0x64D3B800 PUSH2 0xDC JUMP JUMPDEST SWAP1 POP SWAP1 JUMP JUMPDEST PUSH1 0x60 PUSH2 0xC3 PUSH4 0x495FAB24 PUSH2 0xDC JUMP JUMPDEST SWAP1 POP SWAP1 JUMP JUMPDEST PUSH1 0x60 PUSH2 0xD7 PUSH4 0x55BA5E28 PUSH2 0xDC JUMP JUMPDEST SWAP1 POP SWAP1 JUMP JUMPDEST PUSH1 0x60 DUP2 TIMESTAMP LT ISZERO PUSH2 0x121 JUMPI PUSH1 0x40 MLOAD PUSH32 0x8C379A000000000000000000000000000000000000000000000000000000000 DUP2 MSTORE PUSH1 0x4 ADD PUSH2 0x118 SWAP1 PUSH2 0x5FE JUMP JUMPDEST PUSH1 0x40 MLOAD DUP1 SWAP2 SUB SWAP1 REVERT JUMPDEST PUSH1 0x0 PUSH3 0x15180 DUP4 TIMESTAMP PUSH2 0x133 SWAP2 SWAP1 PUSH2 0x657 JUMP JUMPDEST PUSH2 0x13D SWAP2 SWAP1 PUSH2 0x6BA JUMP JUMPDEST SWAP1 POP PUSH1 0x0 DUP1 PUSH1 0x0 PUSH2 0x14D DUP5 PUSH2 0x19A JUMP JUMPDEST SWAP3 POP SWAP3 POP SWAP3 POP PUSH2 0x15C DUP2 PUSH2 0x326 JUMP JUMPDEST PUSH2 0x165 DUP4 PUSH2 0x326 JUMP JUMPDEST PUSH2 0x16E DUP6 PUSH2 0x326 JUMP JUMPDEST PUSH1 0x40 MLOAD PUSH1 0x20 ADD PUSH2 0x180 SWAP4 SWAP3 SWAP2 SWAP1 PUSH2 0x773 JUMP JUMPDEST PUSH1 0x40 MLOAD PUSH1 0x20 DUP2 DUP4 SUB SUB DUP2 MSTORE SWAP1 PUSH1 0x40 MSTORE SWAP5 POP POP POP POP POP SWAP2 SWAP1 POP JUMP JUMPDEST PUSH1 0x0 DUP1 PUSH1 0x0 PUSH2 0x7D9 SWAP3 POP PUSH1 0x0 PUSH1 0x40 MLOAD DUP1 PUSH2 0x180 ADD PUSH1 0x40 MSTORE DUP1 PUSH1 0x1F DUP2 MSTORE PUSH1 0x20 ADD PUSH1 0x1C DUP2 MSTORE PUSH1 0x20 ADD PUSH1 0x1F DUP2 MSTORE PUSH1 0x20 ADD PUSH1 0x1E DUP2 MSTORE PUSH1 0x20 ADD PUSH1 0x1F DUP2 MSTORE PUSH1 0x20 ADD PUSH1 0x1E DUP2 MSTORE PUSH1 0x20 ADD PUSH1 0x1F DUP2 MSTORE PUSH1 0x20 ADD PUSH1 0x1F DUP2 MSTORE PUSH1 0x20 ADD PUSH1 0x1E DUP2 MSTORE PUSH1 0x20 ADD PUSH1 0x1F DUP2 MSTORE PUSH1 0x20 ADD PUSH1 0x1E DUP2 MSTORE PUSH1 0x20 ADD PUSH1 0x1F DUP2 MSTORE POP SWAP1 POP JUMPDEST PUSH2 0x16D DUP6 LT PUSH2 0x26F JUMPI PUSH2 0x219 DUP5 PUSH2 0x486 JUMP JUMPDEST ISZERO PUSH2 0x24B JUMPI PUSH2 0x16E DUP6 LT PUSH2 0x246 JUMPI PUSH2 0x16E DUP6 PUSH2 0x235 SWAP2 SWAP1 PUSH2 0x657 JUMP JUMPDEST SWAP5 POP DUP4 DUP1 PUSH2 0x242 SWAP1 PUSH2 0x7BA JUMP JUMPDEST SWAP5 POP POP JUMPDEST PUSH2 0x26A JUMP JUMPDEST PUSH2 0x16D DUP6 PUSH2 0x259 SWAP2 SWAP1 PUSH2 0x657 JUMP JUMPDEST SWAP5 POP DUP4 DUP1 PUSH2 0x266 SWAP1 PUSH2 0x7BA JUMP JUMPDEST SWAP5 POP POP JUMPDEST PUSH2 0x207 JUMP JUMPDEST PUSH2 0x278 DUP5 PUSH2 0x486 JUMP JUMPDEST ISZERO PUSH2 0x29D JUMPI PUSH1 0x1D DUP2 PUSH1 0x1 PUSH1 0xC DUP2 LT PUSH2 0x293 JUMPI PUSH2 0x292 PUSH2 0x802 JUMP JUMPDEST JUMPDEST PUSH1 0x20 MUL ADD DUP2 DUP2 MSTORE POP POP JUMPDEST PUSH1 0x0 JUMPDEST PUSH1 0xC DUP2 LT ISZERO PUSH2 0x31D JUMPI DUP2 DUP2 PUSH1 0xC DUP2 LT PUSH2 0x2BC JUMPI PUSH2 0x2BB PUSH2 0x802 JUMP JUMPDEST JUMPDEST PUSH1 0x20 MUL ADD MLOAD DUP7 LT ISZERO PUSH2 0x2EB JUMPI PUSH1 0x1 DUP2 PUSH2 0x2D5 SWAP2 SWAP1 PUSH2 0x831 JUMP JUMPDEST SWAP4 POP PUSH1 0x1 DUP7 PUSH2 0x2E4 SWAP2 SWAP1 PUSH2 0x831 JUMP JUMPDEST SWAP3 POP PUSH2 0x31D JUMP JUMPDEST DUP2 DUP2 PUSH1 0xC DUP2 LT PUSH2 0x2FE JUMPI PUSH2 0x2FD PUSH2 0x802 JUMP JUMPDEST JUMPDEST PUSH1 0x20 MUL ADD MLOAD DUP7 PUSH2 0x30E SWAP2 SWAP1 PUSH2 0x657 JUMP JUMPDEST SWAP6 POP DUP1 DUP1 PUSH1 0x1 ADD SWAP2 POP POP PUSH2 0x2A0 JUMP JUMPDEST POP POP SWAP2 SWAP4 SWAP1 SWAP3 POP JUMP JUMPDEST PUSH1 0x60 PUSH1 0x0 DUP3 SUB PUSH2 0x36D JUMPI PUSH1 0x40 MLOAD DUP1 PUSH1 0x40 ADD PUSH1 0x40 MSTORE DUP1 PUSH1 0x1 DUP2 MSTORE PUSH1 0x20 ADD PUSH32 0x3000000000000000000000000000000000000000000000000000000000000000 DUP2 MSTORE POP SWAP1 POP PUSH2 0x481 JUMP JUMPDEST PUSH1 0x0 DUP3 SWAP1 POP PUSH1 0x0 JUMPDEST PUSH1 0x0 DUP3 EQ PUSH2 0x39F JUMPI DUP1 DUP1 PUSH2 0x388 SWAP1 PUSH2 0x7BA JUMP JUMPDEST SWAP2 POP POP PUSH1 0xA DUP3 PUSH2 0x398 SWAP2 SWAP1 PUSH2 0x6BA JUMP JUMPDEST SWAP2 POP PUSH2 0x375 JUMP JUMPDEST PUSH1 0x0 DUP2 PUSH8 0xFFFFFFFFFFFFFFFF DUP2 GT ISZERO PUSH2 0x3BB JUMPI PUSH2 0x3BA PUSH2 0x865 JUMP JUMPDEST JUMPDEST PUSH1 0x40 MLOAD SWAP1 DUP1 DUP3 MSTORE DUP1 PUSH1 0x1F ADD PUSH1 0x1F NOT AND PUSH1 0x20 ADD DUP3 ADD PUSH1 0x40 MSTORE DUP1 ISZERO PUSH2 0x3ED JUMPI DUP2 PUSH1 0x20 ADD PUSH1 0x1 DUP3 MUL DUP1 CALLDATASIZE DUP4 CALLDATACOPY DUP1 DUP3 ADD SWAP2 POP POP SWAP1 POP JUMPDEST POP SWAP1 POP JUMPDEST PUSH1 0x0 DUP6 EQ PUSH2 0x47A JUMPI PUSH1 0x1 DUP3 PUSH2 0x406 SWAP2 SWAP1 PUSH2 0x657 JUMP JUMPDEST SWAP2 POP PUSH1 0xA DUP6 PUSH2 0x415 SWAP2 SWAP1 PUSH2 0x894 JUMP JUMPDEST PUSH1 0x30 PUSH2 0x421 SWAP2 SWAP1 PUSH2 0x831 JUMP JUMPDEST PUSH1 0xF8 SHL DUP2 DUP4 DUP2 MLOAD DUP2 LT PUSH2 0x437 JUMPI PUSH2 0x436 PUSH2 0x802 JUMP JUMPDEST JUMPDEST PUSH1 0x20 ADD ADD SWAP1 PUSH31 0xFFFFFFFFFFFFFFFFFFFFFFFFFFFFFFFFFFFFFFFFFFFFFFFFFFFFFFFFFFFFFF NOT AND SWAP1 DUP2 PUSH1 0x0 BYTE SWAP1 MSTORE8 POP PUSH1 0xA DUP6 PUSH2 0x473 SWAP2 SWAP1 PUSH2 0x6BA JUMP JUMPDEST SWAP5 POP PUSH2 0x3F1 JUMP JUMPDEST DUP1 SWAP4 POP POP POP POP JUMPDEST SWAP2 SWAP1 POP JUMP JUMPDEST PUSH1 0x0 DUP1 PUSH1 0x4 DUP4 PUSH2 0x496 SWAP2 SWAP1 PUSH2 0x894 JUMP JUMPDEST SUB PUSH2 0x4D0 JUMPI PUSH1 0x0 PUSH1 0x64 DUP4 PUSH2 0x4AA SWAP2 SWAP1 PUSH2 0x894 JUMP JUMPDEST SUB PUSH2 0x4C7 JUMPI PUSH1 0x0 PUSH2 0x190 DUP4 PUSH2 0x4BF SWAP2 SWAP1 PUSH2 0x894 JUMP JUMPDEST EQ SWAP1 POP PUSH2 0x4D5 JUMP JUMPDEST PUSH1 0x1 SWAP1 POP PUSH2 0x4D5 JUMP JUMPDEST PUSH1 0x0 SWAP1 POP JUMPDEST SWAP2 SWAP1 POP JUMP JUMPDEST PUSH1 0x0 DUP2 MLOAD SWAP1 POP SWAP2 SWAP1 POP JUMP JUMPDEST PUSH1 0x0 DUP3 DUP3 MSTORE PUSH1 0x20 DUP3 ADD SWAP1 POP SWAP3 SWAP2 POP POP JUMP JUMPDEST PUSH1 0x0 JUMPDEST DUP4 DUP2 LT ISZERO PUSH2 0x514 JUMPI DUP1 DUP3 ADD MLOAD DUP2 DUP5 ADD MSTORE PUSH1 0x20 DUP2 ADD SWAP1 POP PUSH2 0x4F9 JUMP JUMPDEST PUSH1 0x0 DUP5 DUP5 ADD MSTORE POP POP POP POP JUMP JUMPDEST PUSH1 0x0 PUSH1 0x1F NOT PUSH1 0x1F DUP4 ADD AND SWAP1 POP SWAP2 SWAP1 POP JUMP JUMPDEST PUSH1 0x0 PUSH2 0x53C DUP3 PUSH2 0x4DA JUMP JUMPDEST PUSH2 0x546 DUP2 DUP6 PUSH2 0x4E5 JUMP JUMPDEST SWAP4 POP PUSH2 0x556 DUP2 DUP6 PUSH1 0x20 DUP7 ADD PUSH2 0x4F6 JUMP JUMPDEST PUSH2 0x55F DUP2 PUSH2 0x520 JUMP JUMPDEST DUP5 ADD SWAP2 POP POP SWAP3 SWAP2 POP POP JUMP JUMPDEST PUSH1 0x0 PUSH1 0x20 DUP3 ADD SWAP1 POP DUP2 DUP2 SUB PUSH1 0x0 DUP4 ADD MSTORE PUSH2 0x584 DUP2 DUP5 PUSH2 0x531 JUMP JUMPDEST SWAP1 POP SWAP3 SWAP2 POP POP JUMP JUMPDEST PUSH32 0x43757272656E742074696D65206973206265666F72652074686520626C6F636B PUSH1 0x0 DUP3 ADD MSTORE PUSH32 0x636861696E206C61756E636820646174652E0000000000000000000000000000 PUSH1 0x20 DUP3 ADD MSTORE POP JUMP JUMPDEST PUSH1 0x0 PUSH2 0x5E8 PUSH1 0x32 DUP4 PUSH2 0x4E5 JUMP JUMPDEST SWAP2 POP PUSH2 0x5F3 DUP3 PUSH2 0x58C JUMP JUMPDEST PUSH1 0x40 DUP3 ADD SWAP1 POP SWAP2 SWAP1 POP JUMP JUMPDEST PUSH1 0x0 PUSH1 0x20 DUP3 ADD SWAP1 POP DUP2 DUP2 SUB PUSH1 0x0 DUP4 ADD MSTORE PUSH2 0x617 DUP2 PUSH2 0x5DB JUMP JUMPDEST SWAP1 POP SWAP2 SWAP1 POP JUMP JUMPDEST PUSH1 0x0 DUP2 SWAP1 POP SWAP2 SWAP1 POP JUMP JUMPDEST PUSH32 0x4E487B7100000000000000000000000000000000000000000000000000000000 PUSH1 0x0 MSTORE PUSH1 0x11 PUSH1 0x4 MSTORE PUSH1 0x24 PUSH1 0x0 REVERT JUMPDEST PUSH1 0x0 PUSH2 0x662 DUP3 PUSH2 0x61E JUMP JUMPDEST SWAP2 POP PUSH2 0x66D DUP4 PUSH2 0x61E JUMP JUMPDEST SWAP3 POP DUP3 DUP3 SUB SWAP1 POP DUP2 DUP2 GT ISZERO PUSH2 0x685 JUMPI PUSH2 0x684 PUSH2 0x628 JUMP JUMPDEST JUMPDEST SWAP3 SWAP2 POP POP JUMP JUMPDEST PUSH32 0x4E487B7100000000000000000000000000000000000000000000000000000000 PUSH1 0x0 MSTORE PUSH1 0x12 PUSH1 0x4 MSTORE PUSH1 0x24 PUSH1 0x0 REVERT JUMPDEST PUSH1 0x0 PUSH2 0x6C5 DUP3 PUSH2 0x61E JUMP JUMPDEST SWAP2 POP PUSH2 0x6D0 DUP4 PUSH2 0x61E JUMP JUMPDEST SWAP3 POP DUP3 PUSH2 0x6E0 JUMPI PUSH2 0x6DF PUSH2 0x68B JUMP JUMPDEST JUMPDEST DUP3 DUP3 DIV SWAP1 POP SWAP3 SWAP2 POP POP JUMP JUMPDEST PUSH1 0x0 DUP2 SWAP1 POP SWAP3 SWAP2 POP POP JUMP JUMPDEST PUSH1 0x0 PUSH2 0x701 DUP3 PUSH2 0x4DA JUMP JUMPDEST PUSH2 0x70B DUP2 DUP6 PUSH2 0x6EB JUMP JUMPDEST SWAP4 POP PUSH2 0x71B DUP2 DUP6 PUSH1 0x20 DUP7 ADD PUSH2 0x4F6 JUMP JUMPDEST DUP1 DUP5 ADD SWAP2 POP POP SWAP3 SWAP2 POP POP JUMP JUMPDEST PUSH32 0x2F00000000000000000000000000000000000000000000000000000000000000 PUSH1 0x0 DUP3 ADD MSTORE POP JUMP JUMPDEST PUSH1 0x0 PUSH2 0x75D PUSH1 0x1 DUP4 PUSH2 0x6EB JUMP JUMPDEST SWAP2 POP PUSH2 0x768 DUP3 PUSH2 0x727 JUMP JUMPDEST PUSH1 0x1 DUP3 ADD SWAP1 POP SWAP2 SWAP1 POP JUMP JUMPDEST PUSH1 0x0 PUSH2 0x77F DUP3 DUP7 PUSH2 0x6F6 JUMP JUMPDEST SWAP2 POP PUSH2 0x78A DUP3 PUSH2 0x750 JUMP JUMPDEST SWAP2 POP PUSH2 0x796 DUP3 DUP6 PUSH2 0x6F6 JUMP JUMPDEST SWAP2 POP PUSH2 0x7A1 DUP3 PUSH2 0x750 JUMP JUMPDEST SWAP2 POP PUSH2 0x7AD DUP3 DUP5 PUSH2 0x6F6 JUMP JUMPDEST SWAP2 POP DUP2 SWAP1 POP SWAP5 SWAP4 POP POP POP POP JUMP JUMPDEST PUSH1 0x0 PUSH2 0x7C5 DUP3 PUSH2 0x61E JUMP JUMPDEST SWAP2 POP PUSH32 0xFFFFFFFFFFFFFFFFFFFFFFFFFFFFFFFFFFFFFFFFFFFFFFFFFFFFFFFFFFFFFFFF DUP3 SUB PUSH2 0x7F7 JUMPI PUSH2 0x7F6 PUSH2 0x628 JUMP JUMPDEST JUMPDEST PUSH1 0x1 DUP3 ADD SWAP1 POP SWAP2 SWAP1 POP JUMP JUMPDEST PUSH32 0x4E487B7100000000000000000000000000000000000000000000000000000000 PUSH1 0x0 MSTORE PUSH1 0x32 PUSH1 0x4 MSTORE PUSH1 0x24 PUSH1 0x0 REVERT JUMPDEST PUSH1 0x0 PUSH2 0x83C DUP3 PUSH2 0x61E JUMP JUMPDEST SWAP2 POP PUSH2 0x847 DUP4 PUSH2 0x61E JUMP JUMPDEST SWAP3 POP DUP3 DUP3 ADD SWAP1 POP DUP1 DUP3 GT ISZERO PUSH2 0x85F JUMPI PUSH2 0x85E PUSH2 0x628 JUMP JUMPDEST JUMPDEST SWAP3 SWAP2 POP POP JUMP JUMPDEST PUSH32 0x4E487B7100000000000000000000000000000000000000000000000000000000 PUSH1 0x0 MSTORE PUSH1 0x41 PUSH1 0x4 MSTORE PUSH1 0x24 PUSH1 0x0 REVERT JUMPDEST PUSH1 0x0 PUSH2 0x89F DUP3 PUSH2 0x61E JUMP JUMPDEST SWAP2 POP PUSH2 0x8AA DUP4 PUSH2 0x61E JUMP JUMPDEST SWAP3 POP DUP3 PUSH2 0x8BA JUMPI PUSH2 0x8B9 PUSH2 0x68B JUMP JUMPDEST JUMPDEST DUP3 DUP3 MOD SWAP1 POP SWAP3 SWAP2 POP POP JUMP INVALID LOG2 PUSH5 0x6970667358 0x22 SLT KECCAK256 TSTORE CODECOPY 0xC5 0xBF PUSH4 0xA8E1ADE2 BALANCE CALLVALUE PC LOG1 0x2A SAR PUSH21 0xBF78EEE67AB9E0D946DAB70DF158E91864736F6C63 NUMBER STOP ADDMOD SHR STOP CALLER "
				},
				"gasEstimates": {
					"creation": {
						"codeDepositCost": "459800",
						"executionCost": "493",
						"totalCost": "460293"
					},
					"external": {
						"SinceBaseThePrettyChildLaunch()": "infinite",
						"SinceBitcoinTheDadLaunch()": "infinite",
						"SinceEthereumTheMotherLaunch()": "infinite"
					},
					"internal": {
						"_calculateDate(uint256)": "infinite",
						"_getFormattedDate(uint256)": "infinite",
						"_isLeapYear(uint256)": "infinite",
						"uintToString(uint256)": "infinite"
					}
				},
				"methodIdentifiers": {
					"SinceBaseThePrettyChildLaunch()": "0f68108b",
					"SinceBitcoinTheDadLaunch()": "a2ed1673",
					"SinceEthereumTheMotherLaunch()": "fd86547c"
				}
			},
			"storageLayout": {
				"storage": [],
				"types": null
			},
			"userdoc": {
				"kind": "user",
				"methods": {
					"SinceBaseThePrettyChildLaunch()": {
						"notice": "Retourne une chaîne de caractères indiquant la date en jours/mois/année depuis le lancement de Base"
					},
					"SinceBitcoinTheDadLaunch()": {
						"notice": "Retourne une chaîne de caractères indiquant la date en jours/mois/année depuis le lancement de Bitcoin"
					},
					"SinceEthereumTheMotherLaunch()": {
						"notice": "Retourne une chaîne de caractères indiquant la date en jours/mois/année depuis le lancement d'Ethereum"
					}
				},
				"version": 1
			}
		}
	}
}