{
	"Date_Since_Origin_Final.sol": {
		"BitcoinEpochCounter": {
			"abi": [
				{
					"inputs": [],
					"name": "getDaysSinceOrigin",
					"outputs": [
						{
							"internalType": "uint256",
							"name": "",
							"type": "uint256"
						}
					],
					"stateMutability": "view",
					"type": "function"
				},
				{
					"inputs": [],
					"name": "getSecondsSinceOrigin",
					"outputs": [
						{
							"internalType": "uint256",
							"name": "",
							"type": "uint256"
						}
					],
					"stateMutability": "view",
					"type": "function"
				},
				{
					"inputs": [],
					"name": "getThedate",
					"outputs": [
						{
							"internalType": "string",
							"name": "",
							"type": "string"
						}
					],
					"stateMutability": "view",
					"type": "function"
				}
			],
			"devdoc": {
				"kind": "dev",
				"methods": {
					"getDaysSinceOrigin()": {
						"returns": {
							"_0": "DaysSinceOrigin Nombre de jours écoulés"
						}
					},
					"getSecondsSinceOrigin()": {
						"returns": {
							"_0": "SecondsSinceOrigin Le timestamp actuel"
						}
					},
					"getThedate()": {
						"returns": {
							"_0": "Thedate Une chaîne formatée"
						}
					}
				},
				"version": 1
			},
			"evm": {
				"assembly": "    /* \"Date_Since_Origin_Final.sol\":61:4556  contract BitcoinEpochCounter {... */\n  mstore(0x40, 0x80)\n  callvalue\n  dup1\n  iszero\n  tag_1\n  jumpi\n  0x00\n  dup1\n  revert\ntag_1:\n  pop\n  dataSize(sub_0)\n  dup1\n  dataOffset(sub_0)\n  0x00\n  codecopy\n  0x00\n  return\nstop\n\nsub_0: assembly {\n        /* \"Date_Since_Origin_Final.sol\":61:4556  contract BitcoinEpochCounter {... */\n      mstore(0x40, 0x80)\n      callvalue\n      dup1\n      iszero\n      tag_1\n      jumpi\n      0x00\n      dup1\n      revert\n    tag_1:\n      pop\n      jumpi(tag_2, lt(calldatasize, 0x04))\n      shr(0xe0, calldataload(0x00))\n      dup1\n      0x1d261e4a\n      eq\n      tag_3\n      jumpi\n      dup1\n      0x69f57170\n      eq\n      tag_4\n      jumpi\n      dup1\n      0xbc8fa719\n      eq\n      tag_5\n      jumpi\n    tag_2:\n      0x00\n      dup1\n      revert\n        /* \"Date_Since_Origin_Final.sol\":633:920  function getDaysSinceOrigin() public view returns (uint256) {... */\n    tag_3:\n      tag_6\n      tag_7\n      jump\t// in\n    tag_6:\n      mload(0x40)\n      tag_8\n      swap2\n      swap1\n      tag_9\n      jump\t// in\n    tag_8:\n      mload(0x40)\n      dup1\n      swap2\n      sub\n      swap1\n      return\n        /* \"Date_Since_Origin_Final.sol\":1091:1525  function getThedate() public view returns (string memory) {... */\n    tag_4:\n      tag_10\n      tag_11\n      jump\t// in\n    tag_10:\n      mload(0x40)\n      tag_12\n      swap2\n      swap1\n      tag_13\n      jump\t// in\n    tag_12:\n      mload(0x40)\n      dup1\n      swap2\n      sub\n      swap1\n      return\n        /* \"Date_Since_Origin_Final.sol\":377:481  function getSecondsSinceOrigin() public view returns (uint256) {... */\n    tag_5:\n      tag_14\n      tag_15\n      jump\t// in\n    tag_14:\n      mload(0x40)\n      tag_16\n      swap2\n      swap1\n      tag_9\n      jump\t// in\n    tag_16:\n      mload(0x40)\n      dup1\n      swap2\n      sub\n      swap1\n      return\n        /* \"Date_Since_Origin_Final.sol\":633:920  function getDaysSinceOrigin() public view returns (uint256) {... */\n    tag_7:\n        /* \"Date_Since_Origin_Final.sol\":684:691  uint256 */\n      0x00\n        /* \"Date_Since_Origin_Final.sol\":219:229  1230940800 */\n      0x495eaa80\n        /* \"Date_Since_Origin_Final.sol\":726:741  block.timestamp */\n      timestamp\n        /* \"Date_Since_Origin_Final.sol\":726:771  block.timestamp >= BITCOIN_CREATION_TIMESTAMP */\n      lt\n      iszero\n        /* \"Date_Since_Origin_Final.sol\":704:839  require(... */\n      tag_18\n      jumpi\n      mload(0x40)\n      0x08c379a000000000000000000000000000000000000000000000000000000000\n      dup2\n      mstore\n      0x04\n      add\n      tag_19\n      swap1\n      tag_20\n      jump\t// in\n    tag_19:\n      mload(0x40)\n      dup1\n      swap2\n      sub\n      swap1\n      revert\n    tag_18:\n        /* \"Date_Since_Origin_Final.sol\":906:912  1 days */\n      0x015180\n        /* \"Date_Since_Origin_Final.sol\":219:229  1230940800 */\n      0x495eaa80\n        /* \"Date_Since_Origin_Final.sol\":858:873  block.timestamp */\n      timestamp\n        /* \"Date_Since_Origin_Final.sol\":858:902  block.timestamp - BITCOIN_CREATION_TIMESTAMP */\n      tag_21\n      swap2\n      swap1\n      tag_22\n      jump\t// in\n    tag_21:\n        /* \"Date_Since_Origin_Final.sol\":857:912  (block.timestamp - BITCOIN_CREATION_TIMESTAMP) / 1 days */\n      tag_23\n      swap2\n      swap1\n      tag_24\n      jump\t// in\n    tag_23:\n        /* \"Date_Since_Origin_Final.sol\":850:912  return (block.timestamp - BITCOIN_CREATION_TIMESTAMP) / 1 days */\n      swap1\n      pop\n        /* \"Date_Since_Origin_Final.sol\":633:920  function getDaysSinceOrigin() public view returns (uint256) {... */\n      swap1\n      jump\t// out\n        /* \"Date_Since_Origin_Final.sol\":1091:1525  function getThedate() public view returns (string memory) {... */\n    tag_11:\n        /* \"Date_Since_Origin_Final.sol\":1134:1147  string memory */\n      0x60\n        /* \"Date_Since_Origin_Final.sol\":1160:1177  uint256 daysSince */\n      0x00\n        /* \"Date_Since_Origin_Final.sol\":1180:1200  getDaysSinceOrigin() */\n      tag_26\n        /* \"Date_Since_Origin_Final.sol\":1180:1198  getDaysSinceOrigin */\n      tag_7\n        /* \"Date_Since_Origin_Final.sol\":1180:1200  getDaysSinceOrigin() */\n      jump\t// in\n    tag_26:\n        /* \"Date_Since_Origin_Final.sol\":1160:1200  uint256 daysSince = getDaysSinceOrigin() */\n      swap1\n      pop\n        /* \"Date_Since_Origin_Final.sol\":1212:1224  uint256 year */\n      0x00\n        /* \"Date_Since_Origin_Final.sol\":1226:1239  uint256 month */\n      dup1\n        /* \"Date_Since_Origin_Final.sol\":1241:1252  uint256 day */\n      0x00\n        /* \"Date_Since_Origin_Final.sol\":1256:1281  _calculateDate(daysSince) */\n      tag_27\n        /* \"Date_Since_Origin_Final.sol\":1271:1280  daysSince */\n      dup5\n        /* \"Date_Since_Origin_Final.sol\":1256:1270  _calculateDate */\n      tag_28\n        /* \"Date_Since_Origin_Final.sol\":1256:1281  _calculateDate(daysSince) */\n      jump\t// in\n    tag_27:\n        /* \"Date_Since_Origin_Final.sol\":1211:1281  (uint256 year, uint256 month, uint256 day) = _calculateDate(daysSince) */\n      swap3\n      pop\n      swap3\n      pop\n      swap3\n      pop\n        /* \"Date_Since_Origin_Final.sol\":1355:1372  uintToString(day) */\n      tag_29\n        /* \"Date_Since_Origin_Final.sol\":1368:1371  day */\n      dup2\n        /* \"Date_Since_Origin_Final.sol\":1355:1367  uintToString */\n      tag_30\n        /* \"Date_Since_Origin_Final.sol\":1355:1372  uintToString(day) */\n      jump\t// in\n    tag_29:\n        /* \"Date_Since_Origin_Final.sol\":1413:1432  uintToString(month) */\n      tag_31\n        /* \"Date_Since_Origin_Final.sol\":1426:1431  month */\n      dup4\n        /* \"Date_Since_Origin_Final.sol\":1413:1425  uintToString */\n      tag_30\n        /* \"Date_Since_Origin_Final.sol\":1413:1432  uintToString(month) */\n      jump\t// in\n    tag_31:\n        /* \"Date_Since_Origin_Final.sol\":1473:1491  uintToString(year) */\n      tag_32\n        /* \"Date_Since_Origin_Final.sol\":1486:1490  year */\n      dup6\n        /* \"Date_Since_Origin_Final.sol\":1473:1485  uintToString */\n      tag_30\n        /* \"Date_Since_Origin_Final.sol\":1473:1491  uintToString(year) */\n      jump\t// in\n    tag_32:\n        /* \"Date_Since_Origin_Final.sol\":1320:1506  abi.encodePacked(... */\n      add(0x20, mload(0x40))\n      tag_33\n      swap4\n      swap3\n      swap2\n      swap1\n      tag_34\n      jump\t// in\n    tag_33:\n      mload(0x40)\n      0x20\n      dup2\n      dup4\n      sub\n      sub\n      dup2\n      mstore\n      swap1\n      0x40\n      mstore\n        /* \"Date_Since_Origin_Final.sol\":1292:1517  return string(... */\n      swap5\n      pop\n      pop\n      pop\n      pop\n      pop\n        /* \"Date_Since_Origin_Final.sol\":1091:1525  function getThedate() public view returns (string memory) {... */\n      swap1\n      jump\t// out\n        /* \"Date_Since_Origin_Final.sol\":377:481  function getSecondsSinceOrigin() public view returns (uint256) {... */\n    tag_15:\n        /* \"Date_Since_Origin_Final.sol\":431:438  uint256 */\n      0x00\n        /* \"Date_Since_Origin_Final.sol\":458:473  block.timestamp */\n      timestamp\n        /* \"Date_Since_Origin_Final.sol\":451:473  return block.timestamp */\n      swap1\n      pop\n        /* \"Date_Since_Origin_Final.sol\":377:481  function getSecondsSinceOrigin() public view returns (uint256) {... */\n      swap1\n      jump\t// out\n        /* \"Date_Since_Origin_Final.sol\":1809:3428  function _calculateDate(uint256 _days)... */\n    tag_28:\n        /* \"Date_Since_Origin_Final.sol\":1912:1924  uint256 year */\n      0x00\n        /* \"Date_Since_Origin_Final.sol\":1939:1952  uint256 month */\n      dup1\n        /* \"Date_Since_Origin_Final.sol\":1967:1978  uint256 day */\n      0x00\n        /* \"Date_Since_Origin_Final.sol\":2013:2014  0 */\n      dup1\n        /* \"Date_Since_Origin_Final.sol\":2006:2014  year = 0 */\n      swap3\n      pop\n        /* \"Date_Since_Origin_Final.sol\":2147:2177  uint256[12] memory daysInMonth */\n      0x00\n        /* \"Date_Since_Origin_Final.sol\":2147:2628  uint256[12] memory daysInMonth = [... */\n      mload(0x40)\n      dup1\n      0x0180\n      add\n      0x40\n      mstore\n      dup1\n        /* \"Date_Since_Origin_Final.sol\":2203:2205  31 */\n      0x1f\n        /* \"Date_Since_Origin_Final.sol\":2147:2628  uint256[12] memory daysInMonth = [... */\n      dup2\n      mstore\n      0x20\n      add\n        /* \"Date_Since_Origin_Final.sol\":2240:2242  28 */\n      0x1c\n        /* \"Date_Since_Origin_Final.sol\":2147:2628  uint256[12] memory daysInMonth = [... */\n      dup2\n      mstore\n      0x20\n      add\n        /* \"Date_Since_Origin_Final.sol\":2278:2280  31 */\n      0x1f\n        /* \"Date_Since_Origin_Final.sol\":2147:2628  uint256[12] memory daysInMonth = [... */\n      dup2\n      mstore\n      0x20\n      add\n        /* \"Date_Since_Origin_Final.sol\":2312:2314  30 */\n      0x1e\n        /* \"Date_Since_Origin_Final.sol\":2147:2628  uint256[12] memory daysInMonth = [... */\n      dup2\n      mstore\n      0x20\n      add\n        /* \"Date_Since_Origin_Final.sol\":2347:2349  31 */\n      0x1f\n        /* \"Date_Since_Origin_Final.sol\":2147:2628  uint256[12] memory daysInMonth = [... */\n      dup2\n      mstore\n      0x20\n      add\n        /* \"Date_Since_Origin_Final.sol\":2380:2382  30 */\n      0x1e\n        /* \"Date_Since_Origin_Final.sol\":2147:2628  uint256[12] memory daysInMonth = [... */\n      dup2\n      mstore\n      0x20\n      add\n        /* \"Date_Since_Origin_Final.sol\":2414:2416  31 */\n      0x1f\n        /* \"Date_Since_Origin_Final.sol\":2147:2628  uint256[12] memory daysInMonth = [... */\n      dup2\n      mstore\n      0x20\n      add\n        /* \"Date_Since_Origin_Final.sol\":2451:2453  31 */\n      0x1f\n        /* \"Date_Since_Origin_Final.sol\":2147:2628  uint256[12] memory daysInMonth = [... */\n      dup2\n      mstore\n      0x20\n      add\n        /* \"Date_Since_Origin_Final.sol\":2486:2488  30 */\n      0x1e\n        /* \"Date_Since_Origin_Final.sol\":2147:2628  uint256[12] memory daysInMonth = [... */\n      dup2\n      mstore\n      0x20\n      add\n        /* \"Date_Since_Origin_Final.sol\":2525:2527  31 */\n      0x1f\n        /* \"Date_Since_Origin_Final.sol\":2147:2628  uint256[12] memory daysInMonth = [... */\n      dup2\n      mstore\n      0x20\n      add\n        /* \"Date_Since_Origin_Final.sol\":2562:2564  30 */\n      0x1e\n        /* \"Date_Since_Origin_Final.sol\":2147:2628  uint256[12] memory daysInMonth = [... */\n      dup2\n      mstore\n      0x20\n      add\n        /* \"Date_Since_Origin_Final.sol\":2600:2602  31 */\n      0x1f\n        /* \"Date_Since_Origin_Final.sol\":2147:2628  uint256[12] memory daysInMonth = [... */\n      dup2\n      mstore\n      pop\n      swap1\n      pop\n        /* \"Date_Since_Origin_Final.sol\":2641:2986  while (_days >= 365) {... */\n    tag_37:\n        /* \"Date_Since_Origin_Final.sol\":2657:2660  365 */\n      0x016d\n        /* \"Date_Since_Origin_Final.sol\":2648:2653  _days */\n      dup6\n        /* \"Date_Since_Origin_Final.sol\":2648:2660  _days >= 365 */\n      lt\n        /* \"Date_Since_Origin_Final.sol\":2641:2986  while (_days >= 365) {... */\n      tag_38\n      jumpi\n        /* \"Date_Since_Origin_Final.sol\":2735:2759  _isLeapYear(2009 + year) */\n      tag_39\n        /* \"Date_Since_Origin_Final.sol\":2754:2758  year */\n      dup5\n        /* \"Date_Since_Origin_Final.sol\":2747:2751  2009 */\n      0x07d9\n        /* \"Date_Since_Origin_Final.sol\":2747:2758  2009 + year */\n      tag_40\n      swap2\n      swap1\n      tag_41\n      jump\t// in\n    tag_40:\n        /* \"Date_Since_Origin_Final.sol\":2735:2746  _isLeapYear */\n      tag_42\n        /* \"Date_Since_Origin_Final.sol\":2735:2759  _isLeapYear(2009 + year) */\n      jump\t// in\n    tag_39:\n        /* \"Date_Since_Origin_Final.sol\":2731:2975  if (_isLeapYear(2009 + year)) {... */\n      iszero\n      tag_43\n      jumpi\n        /* \"Date_Since_Origin_Final.sol\":2793:2796  366 */\n      0x016e\n        /* \"Date_Since_Origin_Final.sol\":2784:2789  _days */\n      dup6\n        /* \"Date_Since_Origin_Final.sol\":2784:2796  _days >= 366 */\n      lt\n        /* \"Date_Since_Origin_Final.sol\":2780:2882  if (_days >= 366) {... */\n      tag_44\n      jumpi\n        /* \"Date_Since_Origin_Final.sol\":2830:2833  366 */\n      0x016e\n        /* \"Date_Since_Origin_Final.sol\":2821:2833  _days -= 366 */\n      dup6\n      tag_45\n      swap2\n      swap1\n      tag_22\n      jump\t// in\n    tag_45:\n      swap5\n      pop\n        /* \"Date_Since_Origin_Final.sol\":2856:2862  year++ */\n      dup4\n      dup1\n      tag_46\n      swap1\n      tag_47\n      jump\t// in\n    tag_46:\n      swap5\n      pop\n      pop\n        /* \"Date_Since_Origin_Final.sol\":2780:2882  if (_days >= 366) {... */\n    tag_44:\n        /* \"Date_Since_Origin_Final.sol\":2731:2975  if (_isLeapYear(2009 + year)) {... */\n      jump(tag_48)\n    tag_43:\n        /* \"Date_Since_Origin_Final.sol\":2931:2934  365 */\n      0x016d\n        /* \"Date_Since_Origin_Final.sol\":2922:2934  _days -= 365 */\n      dup6\n      tag_49\n      swap2\n      swap1\n      tag_22\n      jump\t// in\n    tag_49:\n      swap5\n      pop\n        /* \"Date_Since_Origin_Final.sol\":2953:2959  year++ */\n      dup4\n      dup1\n      tag_50\n      swap1\n      tag_47\n      jump\t// in\n    tag_50:\n      swap5\n      pop\n      pop\n        /* \"Date_Since_Origin_Final.sol\":2731:2975  if (_isLeapYear(2009 + year)) {... */\n    tag_48:\n        /* \"Date_Since_Origin_Final.sol\":2641:2986  while (_days >= 365) {... */\n      jump(tag_37)\n    tag_38:\n        /* \"Date_Since_Origin_Final.sol\":3068:3092  _isLeapYear(2009 + year) */\n      tag_51\n        /* \"Date_Since_Origin_Final.sol\":3087:3091  year */\n      dup5\n        /* \"Date_Since_Origin_Final.sol\":3080:3084  2009 */\n      0x07d9\n        /* \"Date_Since_Origin_Final.sol\":3080:3091  2009 + year */\n      tag_52\n      swap2\n      swap1\n      tag_41\n      jump\t// in\n    tag_52:\n        /* \"Date_Since_Origin_Final.sol\":3068:3079  _isLeapYear */\n      tag_42\n        /* \"Date_Since_Origin_Final.sol\":3068:3092  _isLeapYear(2009 + year) */\n      jump\t// in\n    tag_51:\n        /* \"Date_Since_Origin_Final.sol\":3064:3140  if (_isLeapYear(2009 + year)) {... */\n      iszero\n      tag_53\n      jumpi\n        /* \"Date_Since_Origin_Final.sol\":3126:3128  29 */\n      0x1d\n        /* \"Date_Since_Origin_Final.sol\":3109:3120  daysInMonth */\n      dup2\n        /* \"Date_Since_Origin_Final.sol\":3121:3122  1 */\n      0x01\n        /* \"Date_Since_Origin_Final.sol\":3109:3123  daysInMonth[1] */\n      0x0c\n      dup2\n      lt\n      tag_54\n      jumpi\n      tag_55\n      tag_56\n      jump\t// in\n    tag_55:\n    tag_54:\n      0x20\n      mul\n      add\n        /* \"Date_Since_Origin_Final.sol\":3109:3128  daysInMonth[1] = 29 */\n      dup2\n      dup2\n      mstore\n      pop\n      pop\n        /* \"Date_Since_Origin_Final.sol\":3064:3140  if (_isLeapYear(2009 + year)) {... */\n    tag_53:\n        /* \"Date_Since_Origin_Final.sol\":3195:3204  uint256 i */\n      0x00\n        /* \"Date_Since_Origin_Final.sol\":3190:3421  for (uint256 i = 0; i < 12; i++) {... */\n    tag_57:\n        /* \"Date_Since_Origin_Final.sol\":3214:3216  12 */\n      0x0c\n        /* \"Date_Since_Origin_Final.sol\":3210:3211  i */\n      dup2\n        /* \"Date_Since_Origin_Final.sol\":3210:3216  i < 12 */\n      lt\n        /* \"Date_Since_Origin_Final.sol\":3190:3421  for (uint256 i = 0; i < 12; i++) {... */\n      iszero\n      tag_58\n      jumpi\n        /* \"Date_Since_Origin_Final.sol\":3250:3261  daysInMonth */\n      dup2\n        /* \"Date_Since_Origin_Final.sol\":3262:3263  i */\n      dup2\n        /* \"Date_Since_Origin_Final.sol\":3250:3264  daysInMonth[i] */\n      0x0c\n      dup2\n      lt\n      tag_60\n      jumpi\n      tag_61\n      tag_56\n      jump\t// in\n    tag_61:\n    tag_60:\n      0x20\n      mul\n      add\n      mload\n        /* \"Date_Since_Origin_Final.sol\":3242:3247  _days */\n      dup7\n        /* \"Date_Since_Origin_Final.sol\":3242:3264  _days < daysInMonth[i] */\n      lt\n        /* \"Date_Since_Origin_Final.sol\":3238:3372  if (_days < daysInMonth[i]) {... */\n      iszero\n      tag_62\n      jumpi\n        /* \"Date_Since_Origin_Final.sol\":3297:3298  1 */\n      0x01\n        /* \"Date_Since_Origin_Final.sol\":3293:3294  i */\n      dup2\n        /* \"Date_Since_Origin_Final.sol\":3293:3298  i + 1 */\n      tag_63\n      swap2\n      swap1\n      tag_41\n      jump\t// in\n    tag_63:\n        /* \"Date_Since_Origin_Final.sol\":3285:3298  month = i + 1 */\n      swap4\n      pop\n        /* \"Date_Since_Origin_Final.sol\":3331:3332  1 */\n      0x01\n        /* \"Date_Since_Origin_Final.sol\":3323:3328  _days */\n      dup7\n        /* \"Date_Since_Origin_Final.sol\":3323:3332  _days + 1 */\n      tag_64\n      swap2\n      swap1\n      tag_41\n      jump\t// in\n    tag_64:\n        /* \"Date_Since_Origin_Final.sol\":3317:3332  day = _days + 1 */\n      swap3\n      pop\n        /* \"Date_Since_Origin_Final.sol\":3351:3356  break */\n      jump(tag_58)\n        /* \"Date_Since_Origin_Final.sol\":3238:3372  if (_days < daysInMonth[i]) {... */\n    tag_62:\n        /* \"Date_Since_Origin_Final.sol\":3395:3406  daysInMonth */\n      dup2\n        /* \"Date_Since_Origin_Final.sol\":3407:3408  i */\n      dup2\n        /* \"Date_Since_Origin_Final.sol\":3395:3409  daysInMonth[i] */\n      0x0c\n      dup2\n      lt\n      tag_65\n      jumpi\n      tag_66\n      tag_56\n      jump\t// in\n    tag_66:\n    tag_65:\n      0x20\n      mul\n      add\n      mload\n        /* \"Date_Since_Origin_Final.sol\":3386:3409  _days -= daysInMonth[i] */\n      dup7\n      tag_67\n      swap2\n      swap1\n      tag_22\n      jump\t// in\n    tag_67:\n      swap6\n      pop\n        /* \"Date_Since_Origin_Final.sol\":3218:3221  i++ */\n      dup1\n      dup1\n      0x01\n      add\n      swap2\n      pop\n      pop\n        /* \"Date_Since_Origin_Final.sol\":3190:3421  for (uint256 i = 0; i < 12; i++) {... */\n      jump(tag_57)\n    tag_58:\n      pop\n        /* \"Date_Since_Origin_Final.sol\":1995:3428  {... */\n      pop\n        /* \"Date_Since_Origin_Final.sol\":1809:3428  function _calculateDate(uint256 _days)... */\n      swap2\n      swap4\n      swap1\n      swap3\n      pop\n      jump\t// out\n        /* \"Date_Since_Origin_Final.sol\":4011:4553  function uintToString(uint256 _value) internal pure returns (string memory) {... */\n    tag_30:\n        /* \"Date_Since_Origin_Final.sol\":4072:4085  string memory */\n      0x60\n        /* \"Date_Since_Origin_Final.sol\":4112:4113  0 */\n      0x00\n        /* \"Date_Since_Origin_Final.sol\":4102:4108  _value */\n      dup3\n        /* \"Date_Since_Origin_Final.sol\":4102:4113  _value == 0 */\n      sub\n        /* \"Date_Since_Origin_Final.sol\":4098:4152  if (_value == 0) {... */\n      tag_69\n      jumpi\n        /* \"Date_Since_Origin_Final.sol\":4130:4140  return \"0\" */\n      mload(0x40)\n      dup1\n      0x40\n      add\n      0x40\n      mstore\n      dup1\n      0x01\n      dup2\n      mstore\n      0x20\n      add\n      0x3000000000000000000000000000000000000000000000000000000000000000\n      dup2\n      mstore\n      pop\n      swap1\n      pop\n      jump(tag_68)\n        /* \"Date_Since_Origin_Final.sol\":4098:4152  if (_value == 0) {... */\n    tag_69:\n        /* \"Date_Since_Origin_Final.sol\":4162:4174  uint256 temp */\n      0x00\n        /* \"Date_Since_Origin_Final.sol\":4177:4183  _value */\n      dup3\n        /* \"Date_Since_Origin_Final.sol\":4162:4183  uint256 temp = _value */\n      swap1\n      pop\n        /* \"Date_Since_Origin_Final.sol\":4194:4208  uint256 digits */\n      0x00\n        /* \"Date_Since_Origin_Final.sol\":4219:4297  while (temp != 0) {... */\n    tag_70:\n        /* \"Date_Since_Origin_Final.sol\":4234:4235  0 */\n      0x00\n        /* \"Date_Since_Origin_Final.sol\":4226:4230  temp */\n      dup3\n        /* \"Date_Since_Origin_Final.sol\":4226:4235  temp != 0 */\n      eq\n        /* \"Date_Since_Origin_Final.sol\":4219:4297  while (temp != 0) {... */\n      tag_71\n      jumpi\n        /* \"Date_Since_Origin_Final.sol\":4252:4260  digits++ */\n      dup1\n      dup1\n      tag_72\n      swap1\n      tag_47\n      jump\t// in\n    tag_72:\n      swap2\n      pop\n      pop\n        /* \"Date_Since_Origin_Final.sol\":4283:4285  10 */\n      0x0a\n        /* \"Date_Since_Origin_Final.sol\":4275:4285  temp /= 10 */\n      dup3\n      tag_73\n      swap2\n      swap1\n      tag_24\n      jump\t// in\n    tag_73:\n      swap2\n      pop\n        /* \"Date_Since_Origin_Final.sol\":4219:4297  while (temp != 0) {... */\n      jump(tag_70)\n    tag_71:\n        /* \"Date_Since_Origin_Final.sol\":4307:4326  bytes memory buffer */\n      0x00\n        /* \"Date_Since_Origin_Final.sol\":4339:4345  digits */\n      dup2\n        /* \"Date_Since_Origin_Final.sol\":4329:4346  new bytes(digits) */\n      0xffffffffffffffff\n      dup2\n      gt\n      iszero\n      tag_74\n      jumpi\n      tag_75\n      tag_76\n      jump\t// in\n    tag_75:\n    tag_74:\n      mload(0x40)\n      swap1\n      dup1\n      dup3\n      mstore\n      dup1\n      0x1f\n      add\n      not(0x1f)\n      and\n      0x20\n      add\n      dup3\n      add\n      0x40\n      mstore\n      dup1\n      iszero\n      tag_77\n      jumpi\n      dup2\n      0x20\n      add\n      0x01\n      dup3\n      mul\n      dup1\n      calldatasize\n      dup4\n      calldatacopy\n      dup1\n      dup3\n      add\n      swap2\n      pop\n      pop\n      swap1\n      pop\n    tag_77:\n      pop\n        /* \"Date_Since_Origin_Final.sol\":4307:4346  bytes memory buffer = new bytes(digits) */\n      swap1\n      pop\n        /* \"Date_Since_Origin_Final.sol\":4357:4514  while (_value != 0) {... */\n    tag_78:\n        /* \"Date_Since_Origin_Final.sol\":4374:4375  0 */\n      0x00\n        /* \"Date_Since_Origin_Final.sol\":4364:4370  _value */\n      dup6\n        /* \"Date_Since_Origin_Final.sol\":4364:4375  _value != 0 */\n      eq\n        /* \"Date_Since_Origin_Final.sol\":4357:4514  while (_value != 0) {... */\n      tag_79\n      jumpi\n        /* \"Date_Since_Origin_Final.sol\":4402:4403  1 */\n      0x01\n        /* \"Date_Since_Origin_Final.sol\":4392:4403  digits -= 1 */\n      dup3\n      tag_80\n      swap2\n      swap1\n      tag_22\n      jump\t// in\n    tag_80:\n      swap2\n      pop\n        /* \"Date_Since_Origin_Final.sol\":4470:4472  10 */\n      0x0a\n        /* \"Date_Since_Origin_Final.sol\":4461:4467  _value */\n      dup6\n        /* \"Date_Since_Origin_Final.sol\":4461:4472  _value % 10 */\n      tag_81\n      swap2\n      swap1\n      tag_82\n      jump\t// in\n    tag_81:\n        /* \"Date_Since_Origin_Final.sol\":4448:4450  48 */\n      0x30\n        /* \"Date_Since_Origin_Final.sol\":4448:4473  48 + uint256(_value % 10) */\n      tag_83\n      swap2\n      swap1\n      tag_41\n      jump\t// in\n    tag_83:\n        /* \"Date_Since_Origin_Final.sol\":4435:4475  bytes1(uint8(48 + uint256(_value % 10))) */\n      0xf8\n      shl\n        /* \"Date_Since_Origin_Final.sol\":4418:4424  buffer */\n      dup2\n        /* \"Date_Since_Origin_Final.sol\":4425:4431  digits */\n      dup4\n        /* \"Date_Since_Origin_Final.sol\":4418:4432  buffer[digits] */\n      dup2\n      mload\n      dup2\n      lt\n      tag_84\n      jumpi\n      tag_85\n      tag_56\n      jump\t// in\n    tag_85:\n    tag_84:\n      0x20\n      add\n      add\n        /* \"Date_Since_Origin_Final.sol\":4418:4475  buffer[digits] = bytes1(uint8(48 + uint256(_value % 10))) */\n      swap1\n      not(0xffffffffffffffffffffffffffffffffffffffffffffffffffffffffffffff)\n      and\n      swap1\n      dup2\n      0x00\n      byte\n      swap1\n      mstore8\n      pop\n        /* \"Date_Since_Origin_Final.sol\":4500:4502  10 */\n      0x0a\n        /* \"Date_Since_Origin_Final.sol\":4490:4502  _value /= 10 */\n      dup6\n      tag_86\n      swap2\n      swap1\n      tag_24\n      jump\t// in\n    tag_86:\n      swap5\n      pop\n        /* \"Date_Since_Origin_Final.sol\":4357:4514  while (_value != 0) {... */\n      jump(tag_78)\n    tag_79:\n        /* \"Date_Since_Origin_Final.sol\":4538:4544  buffer */\n      dup1\n        /* \"Date_Since_Origin_Final.sol\":4524:4545  return string(buffer) */\n      swap4\n      pop\n      pop\n      pop\n      pop\n        /* \"Date_Since_Origin_Final.sol\":4011:4553  function uintToString(uint256 _value) internal pure returns (string memory) {... */\n    tag_68:\n      swap2\n      swap1\n      pop\n      jump\t// out\n        /* \"Date_Since_Origin_Final.sol\":3585:3843  function _isLeapYear(uint256 _year) internal pure returns (bool) {... */\n    tag_42:\n        /* \"Date_Since_Origin_Final.sol\":3644:3648  bool */\n      0x00\n        /* \"Date_Since_Origin_Final.sol\":3678:3679  0 */\n      dup1\n        /* \"Date_Since_Origin_Final.sol\":3673:3674  4 */\n      0x04\n        /* \"Date_Since_Origin_Final.sol\":3665:3670  _year */\n      dup4\n        /* \"Date_Since_Origin_Final.sol\":3665:3674  _year % 4 */\n      tag_88\n      swap2\n      swap1\n      tag_82\n      jump\t// in\n    tag_88:\n        /* \"Date_Since_Origin_Final.sol\":3665:3679  _year % 4 == 0 */\n      sub\n        /* \"Date_Since_Origin_Final.sol\":3661:3813  if (_year % 4 == 0) {... */\n      tag_89\n      jumpi\n        /* \"Date_Since_Origin_Final.sol\":3715:3716  0 */\n      0x00\n        /* \"Date_Since_Origin_Final.sol\":3708:3711  100 */\n      0x64\n        /* \"Date_Since_Origin_Final.sol\":3700:3705  _year */\n      dup4\n        /* \"Date_Since_Origin_Final.sol\":3700:3711  _year % 100 */\n      tag_90\n      swap2\n      swap1\n      tag_82\n      jump\t// in\n    tag_90:\n        /* \"Date_Since_Origin_Final.sol\":3700:3716  _year % 100 == 0 */\n      sub\n        /* \"Date_Since_Origin_Final.sol\":3696:3776  if (_year % 100 == 0) {... */\n      tag_91\n      jumpi\n        /* \"Date_Since_Origin_Final.sol\":3759:3760  0 */\n      0x00\n        /* \"Date_Since_Origin_Final.sol\":3752:3755  400 */\n      0x0190\n        /* \"Date_Since_Origin_Final.sol\":3744:3749  _year */\n      dup4\n        /* \"Date_Since_Origin_Final.sol\":3744:3755  _year % 400 */\n      tag_92\n      swap2\n      swap1\n      tag_82\n      jump\t// in\n    tag_92:\n        /* \"Date_Since_Origin_Final.sol\":3744:3760  _year % 400 == 0 */\n      eq\n        /* \"Date_Since_Origin_Final.sol\":3737:3760  return _year % 400 == 0 */\n      swap1\n      pop\n      jump(tag_87)\n        /* \"Date_Since_Origin_Final.sol\":3696:3776  if (_year % 100 == 0) {... */\n    tag_91:\n        /* \"Date_Since_Origin_Final.sol\":3797:3801  true */\n      0x01\n        /* \"Date_Since_Origin_Final.sol\":3790:3801  return true */\n      swap1\n      pop\n      jump(tag_87)\n        /* \"Date_Since_Origin_Final.sol\":3661:3813  if (_year % 4 == 0) {... */\n    tag_89:\n        /* \"Date_Since_Origin_Final.sol\":3830:3835  false */\n      0x00\n        /* \"Date_Since_Origin_Final.sol\":3823:3835  return false */\n      swap1\n      pop\n        /* \"Date_Since_Origin_Final.sol\":3585:3843  function _isLeapYear(uint256 _year) internal pure returns (bool) {... */\n    tag_87:\n      swap2\n      swap1\n      pop\n      jump\t// out\n        /* \"#utility.yul\":7:84   */\n    tag_93:\n        /* \"#utility.yul\":44:51   */\n      0x00\n        /* \"#utility.yul\":73:78   */\n      dup2\n        /* \"#utility.yul\":62:78   */\n      swap1\n      pop\n        /* \"#utility.yul\":7:84   */\n      swap2\n      swap1\n      pop\n      jump\t// out\n        /* \"#utility.yul\":90:208   */\n    tag_94:\n        /* \"#utility.yul\":177:201   */\n      tag_111\n        /* \"#utility.yul\":195:200   */\n      dup2\n        /* \"#utility.yul\":177:201   */\n      tag_93\n      jump\t// in\n    tag_111:\n        /* \"#utility.yul\":172:175   */\n      dup3\n        /* \"#utility.yul\":165:202   */\n      mstore\n        /* \"#utility.yul\":90:208   */\n      pop\n      pop\n      jump\t// out\n        /* \"#utility.yul\":214:436   */\n    tag_9:\n        /* \"#utility.yul\":307:311   */\n      0x00\n        /* \"#utility.yul\":345:347   */\n      0x20\n        /* \"#utility.yul\":334:343   */\n      dup3\n        /* \"#utility.yul\":330:348   */\n      add\n        /* \"#utility.yul\":322:348   */\n      swap1\n      pop\n        /* \"#utility.yul\":358:429   */\n      tag_113\n        /* \"#utility.yul\":426:427   */\n      0x00\n        /* \"#utility.yul\":415:424   */\n      dup4\n        /* \"#utility.yul\":411:428   */\n      add\n        /* \"#utility.yul\":402:408   */\n      dup5\n        /* \"#utility.yul\":358:429   */\n      tag_94\n      jump\t// in\n    tag_113:\n        /* \"#utility.yul\":214:436   */\n      swap3\n      swap2\n      pop\n      pop\n      jump\t// out\n        /* \"#utility.yul\":442:541   */\n    tag_95:\n        /* \"#utility.yul\":494:500   */\n      0x00\n        /* \"#utility.yul\":528:533   */\n      dup2\n        /* \"#utility.yul\":522:534   */\n      mload\n        /* \"#utility.yul\":512:534   */\n      swap1\n      pop\n        /* \"#utility.yul\":442:541   */\n      swap2\n      swap1\n      pop\n      jump\t// out\n        /* \"#utility.yul\":547:716   */\n    tag_96:\n        /* \"#utility.yul\":631:642   */\n      0x00\n        /* \"#utility.yul\":665:671   */\n      dup3\n        /* \"#utility.yul\":660:663   */\n      dup3\n        /* \"#utility.yul\":653:672   */\n      mstore\n        /* \"#utility.yul\":705:709   */\n      0x20\n        /* \"#utility.yul\":700:703   */\n      dup3\n        /* \"#utility.yul\":696:710   */\n      add\n        /* \"#utility.yul\":681:710   */\n      swap1\n      pop\n        /* \"#utility.yul\":547:716   */\n      swap3\n      swap2\n      pop\n      pop\n      jump\t// out\n        /* \"#utility.yul\":722:970   */\n    tag_97:\n        /* \"#utility.yul\":804:805   */\n      0x00\n        /* \"#utility.yul\":814:927   */\n    tag_117:\n        /* \"#utility.yul\":828:834   */\n      dup4\n        /* \"#utility.yul\":825:826   */\n      dup2\n        /* \"#utility.yul\":822:835   */\n      lt\n        /* \"#utility.yul\":814:927   */\n      iszero\n      tag_119\n      jumpi\n        /* \"#utility.yul\":913:914   */\n      dup1\n        /* \"#utility.yul\":908:911   */\n      dup3\n        /* \"#utility.yul\":904:915   */\n      add\n        /* \"#utility.yul\":898:916   */\n      mload\n        /* \"#utility.yul\":894:895   */\n      dup2\n        /* \"#utility.yul\":889:892   */\n      dup5\n        /* \"#utility.yul\":885:896   */\n      add\n        /* \"#utility.yul\":878:917   */\n      mstore\n        /* \"#utility.yul\":850:852   */\n      0x20\n        /* \"#utility.yul\":847:848   */\n      dup2\n        /* \"#utility.yul\":843:853   */\n      add\n        /* \"#utility.yul\":838:853   */\n      swap1\n      pop\n        /* \"#utility.yul\":814:927   */\n      jump(tag_117)\n    tag_119:\n        /* \"#utility.yul\":961:962   */\n      0x00\n        /* \"#utility.yul\":952:958   */\n      dup5\n        /* \"#utility.yul\":947:950   */\n      dup5\n        /* \"#utility.yul\":943:959   */\n      add\n        /* \"#utility.yul\":936:963   */\n      mstore\n        /* \"#utility.yul\":784:970   */\n      pop\n        /* \"#utility.yul\":722:970   */\n      pop\n      pop\n      pop\n      jump\t// out\n        /* \"#utility.yul\":976:1078   */\n    tag_98:\n        /* \"#utility.yul\":1017:1023   */\n      0x00\n        /* \"#utility.yul\":1068:1070   */\n      0x1f\n        /* \"#utility.yul\":1064:1071   */\n      not\n        /* \"#utility.yul\":1059:1061   */\n      0x1f\n        /* \"#utility.yul\":1052:1057   */\n      dup4\n        /* \"#utility.yul\":1048:1062   */\n      add\n        /* \"#utility.yul\":1044:1072   */\n      and\n        /* \"#utility.yul\":1034:1072   */\n      swap1\n      pop\n        /* \"#utility.yul\":976:1078   */\n      swap2\n      swap1\n      pop\n      jump\t// out\n        /* \"#utility.yul\":1084:1461   */\n    tag_99:\n        /* \"#utility.yul\":1172:1175   */\n      0x00\n        /* \"#utility.yul\":1200:1239   */\n      tag_122\n        /* \"#utility.yul\":1233:1238   */\n      dup3\n        /* \"#utility.yul\":1200:1239   */\n      tag_95\n      jump\t// in\n    tag_122:\n        /* \"#utility.yul\":1255:1326   */\n      tag_123\n        /* \"#utility.yul\":1319:1325   */\n      dup2\n        /* \"#utility.yul\":1314:1317   */\n      dup6\n        /* \"#utility.yul\":1255:1326   */\n      tag_96\n      jump\t// in\n    tag_123:\n        /* \"#utility.yul\":1248:1326   */\n      swap4\n      pop\n        /* \"#utility.yul\":1335:1400   */\n      tag_124\n        /* \"#utility.yul\":1393:1399   */\n      dup2\n        /* \"#utility.yul\":1388:1391   */\n      dup6\n        /* \"#utility.yul\":1381:1385   */\n      0x20\n        /* \"#utility.yul\":1374:1379   */\n      dup7\n        /* \"#utility.yul\":1370:1386   */\n      add\n        /* \"#utility.yul\":1335:1400   */\n      tag_97\n      jump\t// in\n    tag_124:\n        /* \"#utility.yul\":1425:1454   */\n      tag_125\n        /* \"#utility.yul\":1447:1453   */\n      dup2\n        /* \"#utility.yul\":1425:1454   */\n      tag_98\n      jump\t// in\n    tag_125:\n        /* \"#utility.yul\":1420:1423   */\n      dup5\n        /* \"#utility.yul\":1416:1455   */\n      add\n        /* \"#utility.yul\":1409:1455   */\n      swap2\n      pop\n        /* \"#utility.yul\":1176:1461   */\n      pop\n        /* \"#utility.yul\":1084:1461   */\n      swap3\n      swap2\n      pop\n      pop\n      jump\t// out\n        /* \"#utility.yul\":1467:1780   */\n    tag_13:\n        /* \"#utility.yul\":1580:1584   */\n      0x00\n        /* \"#utility.yul\":1618:1620   */\n      0x20\n        /* \"#utility.yul\":1607:1616   */\n      dup3\n        /* \"#utility.yul\":1603:1621   */\n      add\n        /* \"#utility.yul\":1595:1621   */\n      swap1\n      pop\n        /* \"#utility.yul\":1667:1676   */\n      dup2\n        /* \"#utility.yul\":1661:1665   */\n      dup2\n        /* \"#utility.yul\":1657:1677   */\n      sub\n        /* \"#utility.yul\":1653:1654   */\n      0x00\n        /* \"#utility.yul\":1642:1651   */\n      dup4\n        /* \"#utility.yul\":1638:1655   */\n      add\n        /* \"#utility.yul\":1631:1678   */\n      mstore\n        /* \"#utility.yul\":1695:1773   */\n      tag_127\n        /* \"#utility.yul\":1768:1772   */\n      dup2\n        /* \"#utility.yul\":1759:1765   */\n      dup5\n        /* \"#utility.yul\":1695:1773   */\n      tag_99\n      jump\t// in\n    tag_127:\n        /* \"#utility.yul\":1687:1773   */\n      swap1\n      pop\n        /* \"#utility.yul\":1467:1780   */\n      swap3\n      swap2\n      pop\n      pop\n      jump\t// out\n        /* \"#utility.yul\":1786:2013   */\n    tag_100:\n        /* \"#utility.yul\":1926:1960   */\n      0x43757272656e742074696d65206973206265666f726520426974636f696e2063\n        /* \"#utility.yul\":1922:1923   */\n      0x00\n        /* \"#utility.yul\":1914:1920   */\n      dup3\n        /* \"#utility.yul\":1910:1924   */\n      add\n        /* \"#utility.yul\":1903:1961   */\n      mstore\n        /* \"#utility.yul\":1995:2005   */\n      0x72656174696f6e2e000000000000000000000000000000000000000000000000\n        /* \"#utility.yul\":1990:1992   */\n      0x20\n        /* \"#utility.yul\":1982:1988   */\n      dup3\n        /* \"#utility.yul\":1978:1993   */\n      add\n        /* \"#utility.yul\":1971:2006   */\n      mstore\n        /* \"#utility.yul\":1786:2013   */\n      pop\n      jump\t// out\n        /* \"#utility.yul\":2019:2385   */\n    tag_101:\n        /* \"#utility.yul\":2161:2164   */\n      0x00\n        /* \"#utility.yul\":2182:2249   */\n      tag_130\n        /* \"#utility.yul\":2246:2248   */\n      0x28\n        /* \"#utility.yul\":2241:2244   */\n      dup4\n        /* \"#utility.yul\":2182:2249   */\n      tag_96\n      jump\t// in\n    tag_130:\n        /* \"#utility.yul\":2175:2249   */\n      swap2\n      pop\n        /* \"#utility.yul\":2258:2351   */\n      tag_131\n        /* \"#utility.yul\":2347:2350   */\n      dup3\n        /* \"#utility.yul\":2258:2351   */\n      tag_100\n      jump\t// in\n    tag_131:\n        /* \"#utility.yul\":2376:2378   */\n      0x40\n        /* \"#utility.yul\":2371:2374   */\n      dup3\n        /* \"#utility.yul\":2367:2379   */\n      add\n        /* \"#utility.yul\":2360:2379   */\n      swap1\n      pop\n        /* \"#utility.yul\":2019:2385   */\n      swap2\n      swap1\n      pop\n      jump\t// out\n        /* \"#utility.yul\":2391:2810   */\n    tag_20:\n        /* \"#utility.yul\":2557:2561   */\n      0x00\n        /* \"#utility.yul\":2595:2597   */\n      0x20\n        /* \"#utility.yul\":2584:2593   */\n      dup3\n        /* \"#utility.yul\":2580:2598   */\n      add\n        /* \"#utility.yul\":2572:2598   */\n      swap1\n      pop\n        /* \"#utility.yul\":2644:2653   */\n      dup2\n        /* \"#utility.yul\":2638:2642   */\n      dup2\n        /* \"#utility.yul\":2634:2654   */\n      sub\n        /* \"#utility.yul\":2630:2631   */\n      0x00\n        /* \"#utility.yul\":2619:2628   */\n      dup4\n        /* \"#utility.yul\":2615:2632   */\n      add\n        /* \"#utility.yul\":2608:2655   */\n      mstore\n        /* \"#utility.yul\":2672:2803   */\n      tag_133\n        /* \"#utility.yul\":2798:2802   */\n      dup2\n        /* \"#utility.yul\":2672:2803   */\n      tag_101\n      jump\t// in\n    tag_133:\n        /* \"#utility.yul\":2664:2803   */\n      swap1\n      pop\n        /* \"#utility.yul\":2391:2810   */\n      swap2\n      swap1\n      pop\n      jump\t// out\n        /* \"#utility.yul\":2816:2996   */\n    tag_102:\n        /* \"#utility.yul\":2864:2941   */\n      0x4e487b7100000000000000000000000000000000000000000000000000000000\n        /* \"#utility.yul\":2861:2862   */\n      0x00\n        /* \"#utility.yul\":2854:2942   */\n      mstore\n        /* \"#utility.yul\":2961:2965   */\n      0x11\n        /* \"#utility.yul\":2958:2959   */\n      0x04\n        /* \"#utility.yul\":2951:2966   */\n      mstore\n        /* \"#utility.yul\":2985:2989   */\n      0x24\n        /* \"#utility.yul\":2982:2983   */\n      0x00\n        /* \"#utility.yul\":2975:2990   */\n      revert\n        /* \"#utility.yul\":3002:3196   */\n    tag_22:\n        /* \"#utility.yul\":3042:3046   */\n      0x00\n        /* \"#utility.yul\":3062:3082   */\n      tag_136\n        /* \"#utility.yul\":3080:3081   */\n      dup3\n        /* \"#utility.yul\":3062:3082   */\n      tag_93\n      jump\t// in\n    tag_136:\n        /* \"#utility.yul\":3057:3082   */\n      swap2\n      pop\n        /* \"#utility.yul\":3096:3116   */\n      tag_137\n        /* \"#utility.yul\":3114:3115   */\n      dup4\n        /* \"#utility.yul\":3096:3116   */\n      tag_93\n      jump\t// in\n    tag_137:\n        /* \"#utility.yul\":3091:3116   */\n      swap3\n      pop\n        /* \"#utility.yul\":3140:3141   */\n      dup3\n        /* \"#utility.yul\":3137:3138   */\n      dup3\n        /* \"#utility.yul\":3133:3142   */\n      sub\n        /* \"#utility.yul\":3125:3142   */\n      swap1\n      pop\n        /* \"#utility.yul\":3164:3165   */\n      dup2\n        /* \"#utility.yul\":3158:3162   */\n      dup2\n        /* \"#utility.yul\":3155:3166   */\n      gt\n        /* \"#utility.yul\":3152:3189   */\n      iszero\n      tag_138\n      jumpi\n        /* \"#utility.yul\":3169:3187   */\n      tag_139\n      tag_102\n      jump\t// in\n    tag_139:\n        /* \"#utility.yul\":3152:3189   */\n    tag_138:\n        /* \"#utility.yul\":3002:3196   */\n      swap3\n      swap2\n      pop\n      pop\n      jump\t// out\n        /* \"#utility.yul\":3202:3382   */\n    tag_103:\n        /* \"#utility.yul\":3250:3327   */\n      0x4e487b7100000000000000000000000000000000000000000000000000000000\n        /* \"#utility.yul\":3247:3248   */\n      0x00\n        /* \"#utility.yul\":3240:3328   */\n      mstore\n        /* \"#utility.yul\":3347:3351   */\n      0x12\n        /* \"#utility.yul\":3344:3345   */\n      0x04\n        /* \"#utility.yul\":3337:3352   */\n      mstore\n        /* \"#utility.yul\":3371:3375   */\n      0x24\n        /* \"#utility.yul\":3368:3369   */\n      0x00\n        /* \"#utility.yul\":3361:3376   */\n      revert\n        /* \"#utility.yul\":3388:3573   */\n    tag_24:\n        /* \"#utility.yul\":3428:3429   */\n      0x00\n        /* \"#utility.yul\":3445:3465   */\n      tag_142\n        /* \"#utility.yul\":3463:3464   */\n      dup3\n        /* \"#utility.yul\":3445:3465   */\n      tag_93\n      jump\t// in\n    tag_142:\n        /* \"#utility.yul\":3440:3465   */\n      swap2\n      pop\n        /* \"#utility.yul\":3479:3499   */\n      tag_143\n        /* \"#utility.yul\":3497:3498   */\n      dup4\n        /* \"#utility.yul\":3479:3499   */\n      tag_93\n      jump\t// in\n    tag_143:\n        /* \"#utility.yul\":3474:3499   */\n      swap3\n      pop\n        /* \"#utility.yul\":3518:3519   */\n      dup3\n        /* \"#utility.yul\":3508:3543   */\n      tag_144\n      jumpi\n        /* \"#utility.yul\":3523:3541   */\n      tag_145\n      tag_103\n      jump\t// in\n    tag_145:\n        /* \"#utility.yul\":3508:3543   */\n    tag_144:\n        /* \"#utility.yul\":3565:3566   */\n      dup3\n        /* \"#utility.yul\":3562:3563   */\n      dup3\n        /* \"#utility.yul\":3558:3567   */\n      div\n        /* \"#utility.yul\":3553:3567   */\n      swap1\n      pop\n        /* \"#utility.yul\":3388:3573   */\n      swap3\n      swap2\n      pop\n      pop\n      jump\t// out\n        /* \"#utility.yul\":3579:3727   */\n    tag_104:\n        /* \"#utility.yul\":3681:3692   */\n      0x00\n        /* \"#utility.yul\":3718:3721   */\n      dup2\n        /* \"#utility.yul\":3703:3721   */\n      swap1\n      pop\n        /* \"#utility.yul\":3579:3727   */\n      swap3\n      swap2\n      pop\n      pop\n      jump\t// out\n        /* \"#utility.yul\":3733:4123   */\n    tag_105:\n        /* \"#utility.yul\":3839:3842   */\n      0x00\n        /* \"#utility.yul\":3867:3906   */\n      tag_148\n        /* \"#utility.yul\":3900:3905   */\n      dup3\n        /* \"#utility.yul\":3867:3906   */\n      tag_95\n      jump\t// in\n    tag_148:\n        /* \"#utility.yul\":3922:4011   */\n      tag_149\n        /* \"#utility.yul\":4004:4010   */\n      dup2\n        /* \"#utility.yul\":3999:4002   */\n      dup6\n        /* \"#utility.yul\":3922:4011   */\n      tag_104\n      jump\t// in\n    tag_149:\n        /* \"#utility.yul\":3915:4011   */\n      swap4\n      pop\n        /* \"#utility.yul\":4020:4085   */\n      tag_150\n        /* \"#utility.yul\":4078:4084   */\n      dup2\n        /* \"#utility.yul\":4073:4076   */\n      dup6\n        /* \"#utility.yul\":4066:4070   */\n      0x20\n        /* \"#utility.yul\":4059:4064   */\n      dup7\n        /* \"#utility.yul\":4055:4071   */\n      add\n        /* \"#utility.yul\":4020:4085   */\n      tag_97\n      jump\t// in\n    tag_150:\n        /* \"#utility.yul\":4110:4116   */\n      dup1\n        /* \"#utility.yul\":4105:4108   */\n      dup5\n        /* \"#utility.yul\":4101:4117   */\n      add\n        /* \"#utility.yul\":4094:4117   */\n      swap2\n      pop\n        /* \"#utility.yul\":3843:4123   */\n      pop\n        /* \"#utility.yul\":3733:4123   */\n      swap3\n      swap2\n      pop\n      pop\n      jump\t// out\n        /* \"#utility.yul\":4129:4280   */\n    tag_106:\n        /* \"#utility.yul\":4269:4272   */\n      0x2f00000000000000000000000000000000000000000000000000000000000000\n        /* \"#utility.yul\":4265:4266   */\n      0x00\n        /* \"#utility.yul\":4257:4263   */\n      dup3\n        /* \"#utility.yul\":4253:4267   */\n      add\n        /* \"#utility.yul\":4246:4273   */\n      mstore\n        /* \"#utility.yul\":4129:4280   */\n      pop\n      jump\t// out\n        /* \"#utility.yul\":4286:4686   */\n    tag_107:\n        /* \"#utility.yul\":4446:4449   */\n      0x00\n        /* \"#utility.yul\":4467:4551   */\n      tag_153\n        /* \"#utility.yul\":4549:4550   */\n      0x01\n        /* \"#utility.yul\":4544:4547   */\n      dup4\n        /* \"#utility.yul\":4467:4551   */\n      tag_104\n      jump\t// in\n    tag_153:\n        /* \"#utility.yul\":4460:4551   */\n      swap2\n      pop\n        /* \"#utility.yul\":4560:4653   */\n      tag_154\n        /* \"#utility.yul\":4649:4652   */\n      dup3\n        /* \"#utility.yul\":4560:4653   */\n      tag_106\n      jump\t// in\n    tag_154:\n        /* \"#utility.yul\":4678:4679   */\n      0x01\n        /* \"#utility.yul\":4673:4676   */\n      dup3\n        /* \"#utility.yul\":4669:4680   */\n      add\n        /* \"#utility.yul\":4662:4680   */\n      swap1\n      pop\n        /* \"#utility.yul\":4286:4686   */\n      swap2\n      swap1\n      pop\n      jump\t// out\n        /* \"#utility.yul\":4692:5819   */\n    tag_34:\n        /* \"#utility.yul\":5122:5125   */\n      0x00\n        /* \"#utility.yul\":5144:5239   */\n      tag_156\n        /* \"#utility.yul\":5235:5238   */\n      dup3\n        /* \"#utility.yul\":5226:5232   */\n      dup7\n        /* \"#utility.yul\":5144:5239   */\n      tag_105\n      jump\t// in\n    tag_156:\n        /* \"#utility.yul\":5137:5239   */\n      swap2\n      pop\n        /* \"#utility.yul\":5256:5404   */\n      tag_157\n        /* \"#utility.yul\":5400:5403   */\n      dup3\n        /* \"#utility.yul\":5256:5404   */\n      tag_107\n      jump\t// in\n    tag_157:\n        /* \"#utility.yul\":5249:5404   */\n      swap2\n      pop\n        /* \"#utility.yul\":5421:5516   */\n      tag_158\n        /* \"#utility.yul\":5512:5515   */\n      dup3\n        /* \"#utility.yul\":5503:5509   */\n      dup6\n        /* \"#utility.yul\":5421:5516   */\n      tag_105\n      jump\t// in\n    tag_158:\n        /* \"#utility.yul\":5414:5516   */\n      swap2\n      pop\n        /* \"#utility.yul\":5533:5681   */\n      tag_159\n        /* \"#utility.yul\":5677:5680   */\n      dup3\n        /* \"#utility.yul\":5533:5681   */\n      tag_107\n      jump\t// in\n    tag_159:\n        /* \"#utility.yul\":5526:5681   */\n      swap2\n      pop\n        /* \"#utility.yul\":5698:5793   */\n      tag_160\n        /* \"#utility.yul\":5789:5792   */\n      dup3\n        /* \"#utility.yul\":5780:5786   */\n      dup5\n        /* \"#utility.yul\":5698:5793   */\n      tag_105\n      jump\t// in\n    tag_160:\n        /* \"#utility.yul\":5691:5793   */\n      swap2\n      pop\n        /* \"#utility.yul\":5810:5813   */\n      dup2\n        /* \"#utility.yul\":5803:5813   */\n      swap1\n      pop\n        /* \"#utility.yul\":4692:5819   */\n      swap5\n      swap4\n      pop\n      pop\n      pop\n      pop\n      jump\t// out\n        /* \"#utility.yul\":5825:6016   */\n    tag_41:\n        /* \"#utility.yul\":5865:5868   */\n      0x00\n        /* \"#utility.yul\":5884:5904   */\n      tag_162\n        /* \"#utility.yul\":5902:5903   */\n      dup3\n        /* \"#utility.yul\":5884:5904   */\n      tag_93\n      jump\t// in\n    tag_162:\n        /* \"#utility.yul\":5879:5904   */\n      swap2\n      pop\n        /* \"#utility.yul\":5918:5938   */\n      tag_163\n        /* \"#utility.yul\":5936:5937   */\n      dup4\n        /* \"#utility.yul\":5918:5938   */\n      tag_93\n      jump\t// in\n    tag_163:\n        /* \"#utility.yul\":5913:5938   */\n      swap3\n      pop\n        /* \"#utility.yul\":5961:5962   */\n      dup3\n        /* \"#utility.yul\":5958:5959   */\n      dup3\n        /* \"#utility.yul\":5954:5963   */\n      add\n        /* \"#utility.yul\":5947:5963   */\n      swap1\n      pop\n        /* \"#utility.yul\":5982:5985   */\n      dup1\n        /* \"#utility.yul\":5979:5980   */\n      dup3\n        /* \"#utility.yul\":5976:5986   */\n      gt\n        /* \"#utility.yul\":5973:6009   */\n      iszero\n      tag_164\n      jumpi\n        /* \"#utility.yul\":5989:6007   */\n      tag_165\n      tag_102\n      jump\t// in\n    tag_165:\n        /* \"#utility.yul\":5973:6009   */\n    tag_164:\n        /* \"#utility.yul\":5825:6016   */\n      swap3\n      swap2\n      pop\n      pop\n      jump\t// out\n        /* \"#utility.yul\":6022:6255   */\n    tag_47:\n        /* \"#utility.yul\":6061:6064   */\n      0x00\n        /* \"#utility.yul\":6084:6108   */\n      tag_167\n        /* \"#utility.yul\":6102:6107   */\n      dup3\n        /* \"#utility.yul\":6084:6108   */\n      tag_93\n      jump\t// in\n    tag_167:\n        /* \"#utility.yul\":6075:6108   */\n      swap2\n      pop\n        /* \"#utility.yul\":6130:6196   */\n      0xffffffffffffffffffffffffffffffffffffffffffffffffffffffffffffffff\n        /* \"#utility.yul\":6123:6128   */\n      dup3\n        /* \"#utility.yul\":6120:6197   */\n      sub\n        /* \"#utility.yul\":6117:6220   */\n      tag_168\n      jumpi\n        /* \"#utility.yul\":6200:6218   */\n      tag_169\n      tag_102\n      jump\t// in\n    tag_169:\n        /* \"#utility.yul\":6117:6220   */\n    tag_168:\n        /* \"#utility.yul\":6247:6248   */\n      0x01\n        /* \"#utility.yul\":6240:6245   */\n      dup3\n        /* \"#utility.yul\":6236:6249   */\n      add\n        /* \"#utility.yul\":6229:6249   */\n      swap1\n      pop\n        /* \"#utility.yul\":6022:6255   */\n      swap2\n      swap1\n      pop\n      jump\t// out\n        /* \"#utility.yul\":6261:6441   */\n    tag_56:\n        /* \"#utility.yul\":6309:6386   */\n      0x4e487b7100000000000000000000000000000000000000000000000000000000\n        /* \"#utility.yul\":6306:6307   */\n      0x00\n        /* \"#utility.yul\":6299:6387   */\n      mstore\n        /* \"#utility.yul\":6406:6410   */\n      0x32\n        /* \"#utility.yul\":6403:6404   */\n      0x04\n        /* \"#utility.yul\":6396:6411   */\n      mstore\n        /* \"#utility.yul\":6430:6434   */\n      0x24\n        /* \"#utility.yul\":6427:6428   */\n      0x00\n        /* \"#utility.yul\":6420:6435   */\n      revert\n        /* \"#utility.yul\":6447:6627   */\n    tag_76:\n        /* \"#utility.yul\":6495:6572   */\n      0x4e487b7100000000000000000000000000000000000000000000000000000000\n        /* \"#utility.yul\":6492:6493   */\n      0x00\n        /* \"#utility.yul\":6485:6573   */\n      mstore\n        /* \"#utility.yul\":6592:6596   */\n      0x41\n        /* \"#utility.yul\":6589:6590   */\n      0x04\n        /* \"#utility.yul\":6582:6597   */\n      mstore\n        /* \"#utility.yul\":6616:6620   */\n      0x24\n        /* \"#utility.yul\":6613:6614   */\n      0x00\n        /* \"#utility.yul\":6606:6621   */\n      revert\n        /* \"#utility.yul\":6633:6809   */\n    tag_82:\n        /* \"#utility.yul\":6665:6666   */\n      0x00\n        /* \"#utility.yul\":6682:6702   */\n      tag_173\n        /* \"#utility.yul\":6700:6701   */\n      dup3\n        /* \"#utility.yul\":6682:6702   */\n      tag_93\n      jump\t// in\n    tag_173:\n        /* \"#utility.yul\":6677:6702   */\n      swap2\n      pop\n        /* \"#utility.yul\":6716:6736   */\n      tag_174\n        /* \"#utility.yul\":6734:6735   */\n      dup4\n        /* \"#utility.yul\":6716:6736   */\n      tag_93\n      jump\t// in\n    tag_174:\n        /* \"#utility.yul\":6711:6736   */\n      swap3\n      pop\n        /* \"#utility.yul\":6755:6756   */\n      dup3\n        /* \"#utility.yul\":6745:6780   */\n      tag_175\n      jumpi\n        /* \"#utility.yul\":6760:6778   */\n      tag_176\n      tag_103\n      jump\t// in\n    tag_176:\n        /* \"#utility.yul\":6745:6780   */\n    tag_175:\n        /* \"#utility.yul\":6801:6802   */\n      dup3\n        /* \"#utility.yul\":6798:6799   */\n      dup3\n        /* \"#utility.yul\":6794:6803   */\n      mod\n        /* \"#utility.yul\":6789:6803   */\n      swap1\n      pop\n        /* \"#utility.yul\":6633:6809   */\n      swap3\n      swap2\n      pop\n      pop\n      jump\t// out\n\n    auxdata: 0xa264697066735822122045685ae0eb041b3e11b15e558d575e1799cf177e73f368ce8736fdcf02f9ee8164736f6c634300081c0033\n}\n",
				"bytecode": {
					"linkReferences": {},
					"object": "6080604052348015600f57600080fd5b5061091e8061001f6000396000f3fe608060405234801561001057600080fd5b50600436106100415760003560e01c80631d261e4a1461004657806369f5717014610064578063bc8fa71914610082575b600080fd5b61004e6100a0565b60405161005b91906104ec565b60405180910390f35b61006c61010c565b6040516100799190610597565b60405180910390f35b61008a610173565b60405161009791906104ec565b60405180910390f35b600063495eaa804210156100e9576040517f08c379a00000000000000000000000000000000000000000000000000000000081526004016100e09061062b565b60405180910390fd5b6201518063495eaa80426100fd919061067a565b61010791906106dd565b905090565b606060006101186100a0565b905060008060006101288461017b565b9250925092506101378161031f565b6101408361031f565b6101498561031f565b60405160200161015b93929190610796565b60405160208183030381529060405294505050505090565b600042905090565b60008060008092506000604051806101800160405280601f8152602001601c8152602001601f8152602001601e8152602001601f8152602001601e8152602001601f8152602001601f8152602001601e8152602001601f8152602001601e8152602001601f81525090505b61016d851061025b57610205846107d961020091906107dd565b61047f565b156102375761016e85106102325761016e85610221919061067a565b9450838061022e90610811565b9450505b610256565b61016d85610245919061067a565b9450838061025290610811565b9450505b6101e6565b610271846107d961026c91906107dd565b61047f565b1561029657601d816001600c811061028c5761028b610859565b5b6020020181815250505b60005b600c811015610316578181600c81106102b5576102b4610859565b5b60200201518610156102e4576001816102ce91906107dd565b93506001866102dd91906107dd565b9250610316565b8181600c81106102f7576102f6610859565b5b602002015186610307919061067a565b95508080600101915050610299565b50509193909250565b606060008203610366576040518060400160405280600181526020017f3000000000000000000000000000000000000000000000000000000000000000815250905061047a565b600082905060005b6000821461039857808061038190610811565b915050600a8261039191906106dd565b915061036e565b60008167ffffffffffffffff8111156103b4576103b3610888565b5b6040519080825280601f01601f1916602001820160405280156103e65781602001600182028036833780820191505090505b5090505b60008514610473576001826103ff919061067a565b9150600a8561040e91906108b7565b603061041a91906107dd565b60f81b8183815181106104305761042f610859565b5b60200101907effffffffffffffffffffffffffffffffffffffffffffffffffffffffffffff1916908160001a905350600a8561046c91906106dd565b94506103ea565b8093505050505b919050565b60008060048361048f91906108b7565b036104c95760006064836104a391906108b7565b036104c0576000610190836104b891906108b7565b1490506104ce565b600190506104ce565b600090505b919050565b6000819050919050565b6104e6816104d3565b82525050565b600060208201905061050160008301846104dd565b92915050565b600081519050919050565b600082825260208201905092915050565b60005b83811015610541578082015181840152602081019050610526565b60008484015250505050565b6000601f19601f8301169050919050565b600061056982610507565b6105738185610512565b9350610583818560208601610523565b61058c8161054d565b840191505092915050565b600060208201905081810360008301526105b1818461055e565b905092915050565b7f43757272656e742074696d65206973206265666f726520426974636f696e206360008201527f72656174696f6e2e000000000000000000000000000000000000000000000000602082015250565b6000610615602883610512565b9150610620826105b9565b604082019050919050565b6000602082019050818103600083015261064481610608565b9050919050565b7f4e487b7100000000000000000000000000000000000000000000000000000000600052601160045260246000fd5b6000610685826104d3565b9150610690836104d3565b92508282039050818111156106a8576106a761064b565b5b92915050565b7f4e487b7100000000000000000000000000000000000000000000000000000000600052601260045260246000fd5b60006106e8826104d3565b91506106f3836104d3565b925082610703576107026106ae565b5b828204905092915050565b600081905092915050565b600061072482610507565b61072e818561070e565b935061073e818560208601610523565b80840191505092915050565b7f2f00000000000000000000000000000000000000000000000000000000000000600082015250565b600061078060018361070e565b915061078b8261074a565b600182019050919050565b60006107a28286610719565b91506107ad82610773565b91506107b98285610719565b91506107c482610773565b91506107d08284610719565b9150819050949350505050565b60006107e8826104d3565b91506107f3836104d3565b925082820190508082111561080b5761080a61064b565b5b92915050565b600061081c826104d3565b91507fffffffffffffffffffffffffffffffffffffffffffffffffffffffffffffffff820361084e5761084d61064b565b5b600182019050919050565b7f4e487b7100000000000000000000000000000000000000000000000000000000600052603260045260246000fd5b7f4e487b7100000000000000000000000000000000000000000000000000000000600052604160045260246000fd5b60006108c2826104d3565b91506108cd836104d3565b9250826108dd576108dc6106ae565b5b82820690509291505056fea264697066735822122045685ae0eb041b3e11b15e558d575e1799cf177e73f368ce8736fdcf02f9ee8164736f6c634300081c0033",
					"opcodes": "PUSH1 0x80 PUSH1 0x40 MSTORE CALLVALUE DUP1 ISZERO PUSH1 0xF JUMPI PUSH1 0x0 DUP1 REVERT JUMPDEST POP PUSH2 0x91E DUP1 PUSH2 0x1F PUSH1 0x0 CODECOPY PUSH1 0x0 RETURN INVALID PUSH1 0x80 PUSH1 0x40 MSTORE CALLVALUE DUP1 ISZERO PUSH2 0x10 JUMPI PUSH1 0x0 DUP1 REVERT JUMPDEST POP PUSH1 0x4 CALLDATASIZE LT PUSH2 0x41 JUMPI PUSH1 0x0 CALLDATALOAD PUSH1 0xE0 SHR DUP1 PUSH4 0x1D261E4A EQ PUSH2 0x46 JUMPI DUP1 PUSH4 0x69F57170 EQ PUSH2 0x64 JUMPI DUP1 PUSH4 0xBC8FA719 EQ PUSH2 0x82 JUMPI JUMPDEST PUSH1 0x0 DUP1 REVERT JUMPDEST PUSH2 0x4E PUSH2 0xA0 JUMP JUMPDEST PUSH1 0x40 MLOAD PUSH2 0x5B SWAP2 SWAP1 PUSH2 0x4EC JUMP JUMPDEST PUSH1 0x40 MLOAD DUP1 SWAP2 SUB SWAP1 RETURN JUMPDEST PUSH2 0x6C PUSH2 0x10C JUMP JUMPDEST PUSH1 0x40 MLOAD PUSH2 0x79 SWAP2 SWAP1 PUSH2 0x597 JUMP JUMPDEST PUSH1 0x40 MLOAD DUP1 SWAP2 SUB SWAP1 RETURN JUMPDEST PUSH2 0x8A PUSH2 0x173 JUMP JUMPDEST PUSH1 0x40 MLOAD PUSH2 0x97 SWAP2 SWAP1 PUSH2 0x4EC JUMP JUMPDEST PUSH1 0x40 MLOAD DUP1 SWAP2 SUB SWAP1 RETURN JUMPDEST PUSH1 0x0 PUSH4 0x495EAA80 TIMESTAMP LT ISZERO PUSH2 0xE9 JUMPI PUSH1 0x40 MLOAD PUSH32 0x8C379A000000000000000000000000000000000000000000000000000000000 DUP2 MSTORE PUSH1 0x4 ADD PUSH2 0xE0 SWAP1 PUSH2 0x62B JUMP JUMPDEST PUSH1 0x40 MLOAD DUP1 SWAP2 SUB SWAP1 REVERT JUMPDEST PUSH3 0x15180 PUSH4 0x495EAA80 TIMESTAMP PUSH2 0xFD SWAP2 SWAP1 PUSH2 0x67A JUMP JUMPDEST PUSH2 0x107 SWAP2 SWAP1 PUSH2 0x6DD JUMP JUMPDEST SWAP1 POP SWAP1 JUMP JUMPDEST PUSH1 0x60 PUSH1 0x0 PUSH2 0x118 PUSH2 0xA0 JUMP JUMPDEST SWAP1 POP PUSH1 0x0 DUP1 PUSH1 0x0 PUSH2 0x128 DUP5 PUSH2 0x17B JUMP JUMPDEST SWAP3 POP SWAP3 POP SWAP3 POP PUSH2 0x137 DUP2 PUSH2 0x31F JUMP JUMPDEST PUSH2 0x140 DUP4 PUSH2 0x31F JUMP JUMPDEST PUSH2 0x149 DUP6 PUSH2 0x31F JUMP JUMPDEST PUSH1 0x40 MLOAD PUSH1 0x20 ADD PUSH2 0x15B SWAP4 SWAP3 SWAP2 SWAP1 PUSH2 0x796 JUMP JUMPDEST PUSH1 0x40 MLOAD PUSH1 0x20 DUP2 DUP4 SUB SUB DUP2 MSTORE SWAP1 PUSH1 0x40 MSTORE SWAP5 POP POP POP POP POP SWAP1 JUMP JUMPDEST PUSH1 0x0 TIMESTAMP SWAP1 POP SWAP1 JUMP JUMPDEST PUSH1 0x0 DUP1 PUSH1 0x0 DUP1 SWAP3 POP PUSH1 0x0 PUSH1 0x40 MLOAD DUP1 PUSH2 0x180 ADD PUSH1 0x40 MSTORE DUP1 PUSH1 0x1F DUP2 MSTORE PUSH1 0x20 ADD PUSH1 0x1C DUP2 MSTORE PUSH1 0x20 ADD PUSH1 0x1F DUP2 MSTORE PUSH1 0x20 ADD PUSH1 0x1E DUP2 MSTORE PUSH1 0x20 ADD PUSH1 0x1F DUP2 MSTORE PUSH1 0x20 ADD PUSH1 0x1E DUP2 MSTORE PUSH1 0x20 ADD PUSH1 0x1F DUP2 MSTORE PUSH1 0x20 ADD PUSH1 0x1F DUP2 MSTORE PUSH1 0x20 ADD PUSH1 0x1E DUP2 MSTORE PUSH1 0x20 ADD PUSH1 0x1F DUP2 MSTORE PUSH1 0x20 ADD PUSH1 0x1E DUP2 MSTORE PUSH1 0x20 ADD PUSH1 0x1F DUP2 MSTORE POP SWAP1 POP JUMPDEST PUSH2 0x16D DUP6 LT PUSH2 0x25B JUMPI PUSH2 0x205 DUP5 PUSH2 0x7D9 PUSH2 0x200 SWAP2 SWAP1 PUSH2 0x7DD JUMP JUMPDEST PUSH2 0x47F JUMP JUMPDEST ISZERO PUSH2 0x237 JUMPI PUSH2 0x16E DUP6 LT PUSH2 0x232 JUMPI PUSH2 0x16E DUP6 PUSH2 0x221 SWAP2 SWAP1 PUSH2 0x67A JUMP JUMPDEST SWAP5 POP DUP4 DUP1 PUSH2 0x22E SWAP1 PUSH2 0x811 JUMP JUMPDEST SWAP5 POP POP JUMPDEST PUSH2 0x256 JUMP JUMPDEST PUSH2 0x16D DUP6 PUSH2 0x245 SWAP2 SWAP1 PUSH2 0x67A JUMP JUMPDEST SWAP5 POP DUP4 DUP1 PUSH2 0x252 SWAP1 PUSH2 0x811 JUMP JUMPDEST SWAP5 POP POP JUMPDEST PUSH2 0x1E6 JUMP JUMPDEST PUSH2 0x271 DUP5 PUSH2 0x7D9 PUSH2 0x26C SWAP2 SWAP1 PUSH2 0x7DD JUMP JUMPDEST PUSH2 0x47F JUMP JUMPDEST ISZERO PUSH2 0x296 JUMPI PUSH1 0x1D DUP2 PUSH1 0x1 PUSH1 0xC DUP2 LT PUSH2 0x28C JUMPI PUSH2 0x28B PUSH2 0x859 JUMP JUMPDEST JUMPDEST PUSH1 0x20 MUL ADD DUP2 DUP2 MSTORE POP POP JUMPDEST PUSH1 0x0 JUMPDEST PUSH1 0xC DUP2 LT ISZERO PUSH2 0x316 JUMPI DUP2 DUP2 PUSH1 0xC DUP2 LT PUSH2 0x2B5 JUMPI PUSH2 0x2B4 PUSH2 0x859 JUMP JUMPDEST JUMPDEST PUSH1 0x20 MUL ADD MLOAD DUP7 LT ISZERO PUSH2 0x2E4 JUMPI PUSH1 0x1 DUP2 PUSH2 0x2CE SWAP2 SWAP1 PUSH2 0x7DD JUMP JUMPDEST SWAP4 POP PUSH1 0x1 DUP7 PUSH2 0x2DD SWAP2 SWAP1 PUSH2 0x7DD JUMP JUMPDEST SWAP3 POP PUSH2 0x316 JUMP JUMPDEST DUP2 DUP2 PUSH1 0xC DUP2 LT PUSH2 0x2F7 JUMPI PUSH2 0x2F6 PUSH2 0x859 JUMP JUMPDEST JUMPDEST PUSH1 0x20 MUL ADD MLOAD DUP7 PUSH2 0x307 SWAP2 SWAP1 PUSH2 0x67A JUMP JUMPDEST SWAP6 POP DUP1 DUP1 PUSH1 0x1 ADD SWAP2 POP POP PUSH2 0x299 JUMP JUMPDEST POP POP SWAP2 SWAP4 SWAP1 SWAP3 POP JUMP JUMPDEST PUSH1 0x60 PUSH1 0x0 DUP3 SUB PUSH2 0x366 JUMPI PUSH1 0x40 MLOAD DUP1 PUSH1 0x40 ADD PUSH1 0x40 MSTORE DUP1 PUSH1 0x1 DUP2 MSTORE PUSH1 0x20 ADD PUSH32 0x3000000000000000000000000000000000000000000000000000000000000000 DUP2 MSTORE POP SWAP1 POP PUSH2 0x47A JUMP JUMPDEST PUSH1 0x0 DUP3 SWAP1 POP PUSH1 0x0 JUMPDEST PUSH1 0x0 DUP3 EQ PUSH2 0x398 JUMPI DUP1 DUP1 PUSH2 0x381 SWAP1 PUSH2 0x811 JUMP JUMPDEST SWAP2 POP POP PUSH1 0xA DUP3 PUSH2 0x391 SWAP2 SWAP1 PUSH2 0x6DD JUMP JUMPDEST SWAP2 POP PUSH2 0x36E JUMP JUMPDEST PUSH1 0x0 DUP2 PUSH8 0xFFFFFFFFFFFFFFFF DUP2 GT ISZERO PUSH2 0x3B4 JUMPI PUSH2 0x3B3 PUSH2 0x888 JUMP JUMPDEST JUMPDEST PUSH1 0x40 MLOAD SWAP1 DUP1 DUP3 MSTORE DUP1 PUSH1 0x1F ADD PUSH1 0x1F NOT AND PUSH1 0x20 ADD DUP3 ADD PUSH1 0x40 MSTORE DUP1 ISZERO PUSH2 0x3E6 JUMPI DUP2 PUSH1 0x20 ADD PUSH1 0x1 DUP3 MUL DUP1 CALLDATASIZE DUP4 CALLDATACOPY DUP1 DUP3 ADD SWAP2 POP POP SWAP1 POP JUMPDEST POP SWAP1 POP JUMPDEST PUSH1 0x0 DUP6 EQ PUSH2 0x473 JUMPI PUSH1 0x1 DUP3 PUSH2 0x3FF SWAP2 SWAP1 PUSH2 0x67A JUMP JUMPDEST SWAP2 POP PUSH1 0xA DUP6 PUSH2 0x40E SWAP2 SWAP1 PUSH2 0x8B7 JUMP JUMPDEST PUSH1 0x30 PUSH2 0x41A SWAP2 SWAP1 PUSH2 0x7DD JUMP JUMPDEST PUSH1 0xF8 SHL DUP2 DUP4 DUP2 MLOAD DUP2 LT PUSH2 0x430 JUMPI PUSH2 0x42F PUSH2 0x859 JUMP JUMPDEST JUMPDEST PUSH1 0x20 ADD ADD SWAP1 PUSH31 0xFFFFFFFFFFFFFFFFFFFFFFFFFFFFFFFFFFFFFFFFFFFFFFFFFFFFFFFFFFFFFF NOT AND SWAP1 DUP2 PUSH1 0x0 BYTE SWAP1 MSTORE8 POP PUSH1 0xA DUP6 PUSH2 0x46C SWAP2 SWAP1 PUSH2 0x6DD JUMP JUMPDEST SWAP5 POP PUSH2 0x3EA JUMP JUMPDEST DUP1 SWAP4 POP POP POP POP JUMPDEST SWAP2 SWAP1 POP JUMP JUMPDEST PUSH1 0x0 DUP1 PUSH1 0x4 DUP4 PUSH2 0x48F SWAP2 SWAP1 PUSH2 0x8B7 JUMP JUMPDEST SUB PUSH2 0x4C9 JUMPI PUSH1 0x0 PUSH1 0x64 DUP4 PUSH2 0x4A3 SWAP2 SWAP1 PUSH2 0x8B7 JUMP JUMPDEST SUB PUSH2 0x4C0 JUMPI PUSH1 0x0 PUSH2 0x190 DUP4 PUSH2 0x4B8 SWAP2 SWAP1 PUSH2 0x8B7 JUMP JUMPDEST EQ SWAP1 POP PUSH2 0x4CE JUMP JUMPDEST PUSH1 0x1 SWAP1 POP PUSH2 0x4CE JUMP JUMPDEST PUSH1 0x0 SWAP1 POP JUMPDEST SWAP2 SWAP1 POP JUMP JUMPDEST PUSH1 0x0 DUP2 SWAP1 POP SWAP2 SWAP1 POP JUMP JUMPDEST PUSH2 0x4E6 DUP2 PUSH2 0x4D3 JUMP JUMPDEST DUP3 MSTORE POP POP JUMP JUMPDEST PUSH1 0x0 PUSH1 0x20 DUP3 ADD SWAP1 POP PUSH2 0x501 PUSH1 0x0 DUP4 ADD DUP5 PUSH2 0x4DD JUMP JUMPDEST SWAP3 SWAP2 POP POP JUMP JUMPDEST PUSH1 0x0 DUP2 MLOAD SWAP1 POP SWAP2 SWAP1 POP JUMP JUMPDEST PUSH1 0x0 DUP3 DUP3 MSTORE PUSH1 0x20 DUP3 ADD SWAP1 POP SWAP3 SWAP2 POP POP JUMP JUMPDEST PUSH1 0x0 JUMPDEST DUP4 DUP2 LT ISZERO PUSH2 0x541 JUMPI DUP1 DUP3 ADD MLOAD DUP2 DUP5 ADD MSTORE PUSH1 0x20 DUP2 ADD SWAP1 POP PUSH2 0x526 JUMP JUMPDEST PUSH1 0x0 DUP5 DUP5 ADD MSTORE POP POP POP POP JUMP JUMPDEST PUSH1 0x0 PUSH1 0x1F NOT PUSH1 0x1F DUP4 ADD AND SWAP1 POP SWAP2 SWAP1 POP JUMP JUMPDEST PUSH1 0x0 PUSH2 0x569 DUP3 PUSH2 0x507 JUMP JUMPDEST PUSH2 0x573 DUP2 DUP6 PUSH2 0x512 JUMP JUMPDEST SWAP4 POP PUSH2 0x583 DUP2 DUP6 PUSH1 0x20 DUP7 ADD PUSH2 0x523 JUMP JUMPDEST PUSH2 0x58C DUP2 PUSH2 0x54D JUMP JUMPDEST DUP5 ADD SWAP2 POP POP SWAP3 SWAP2 POP POP JUMP JUMPDEST PUSH1 0x0 PUSH1 0x20 DUP3 ADD SWAP1 POP DUP2 DUP2 SUB PUSH1 0x0 DUP4 ADD MSTORE PUSH2 0x5B1 DUP2 DUP5 PUSH2 0x55E JUMP JUMPDEST SWAP1 POP SWAP3 SWAP2 POP POP JUMP JUMPDEST PUSH32 0x43757272656E742074696D65206973206265666F726520426974636F696E2063 PUSH1 0x0 DUP3 ADD MSTORE PUSH32 0x72656174696F6E2E000000000000000000000000000000000000000000000000 PUSH1 0x20 DUP3 ADD MSTORE POP JUMP JUMPDEST PUSH1 0x0 PUSH2 0x615 PUSH1 0x28 DUP4 PUSH2 0x512 JUMP JUMPDEST SWAP2 POP PUSH2 0x620 DUP3 PUSH2 0x5B9 JUMP JUMPDEST PUSH1 0x40 DUP3 ADD SWAP1 POP SWAP2 SWAP1 POP JUMP JUMPDEST PUSH1 0x0 PUSH1 0x20 DUP3 ADD SWAP1 POP DUP2 DUP2 SUB PUSH1 0x0 DUP4 ADD MSTORE PUSH2 0x644 DUP2 PUSH2 0x608 JUMP JUMPDEST SWAP1 POP SWAP2 SWAP1 POP JUMP JUMPDEST PUSH32 0x4E487B7100000000000000000000000000000000000000000000000000000000 PUSH1 0x0 MSTORE PUSH1 0x11 PUSH1 0x4 MSTORE PUSH1 0x24 PUSH1 0x0 REVERT JUMPDEST PUSH1 0x0 PUSH2 0x685 DUP3 PUSH2 0x4D3 JUMP JUMPDEST SWAP2 POP PUSH2 0x690 DUP4 PUSH2 0x4D3 JUMP JUMPDEST SWAP3 POP DUP3 DUP3 SUB SWAP1 POP DUP2 DUP2 GT ISZERO PUSH2 0x6A8 JUMPI PUSH2 0x6A7 PUSH2 0x64B JUMP JUMPDEST JUMPDEST SWAP3 SWAP2 POP POP JUMP JUMPDEST PUSH32 0x4E487B7100000000000000000000000000000000000000000000000000000000 PUSH1 0x0 MSTORE PUSH1 0x12 PUSH1 0x4 MSTORE PUSH1 0x24 PUSH1 0x0 REVERT JUMPDEST PUSH1 0x0 PUSH2 0x6E8 DUP3 PUSH2 0x4D3 JUMP JUMPDEST SWAP2 POP PUSH2 0x6F3 DUP4 PUSH2 0x4D3 JUMP JUMPDEST SWAP3 POP DUP3 PUSH2 0x703 JUMPI PUSH2 0x702 PUSH2 0x6AE JUMP JUMPDEST JUMPDEST DUP3 DUP3 DIV SWAP1 POP SWAP3 SWAP2 POP POP JUMP JUMPDEST PUSH1 0x0 DUP2 SWAP1 POP SWAP3 SWAP2 POP POP JUMP JUMPDEST PUSH1 0x0 PUSH2 0x724 DUP3 PUSH2 0x507 JUMP JUMPDEST PUSH2 0x72E DUP2 DUP6 PUSH2 0x70E JUMP JUMPDEST SWAP4 POP PUSH2 0x73E DUP2 DUP6 PUSH1 0x20 DUP7 ADD PUSH2 0x523 JUMP JUMPDEST DUP1 DUP5 ADD SWAP2 POP POP SWAP3 SWAP2 POP POP JUMP JUMPDEST PUSH32 0x2F00000000000000000000000000000000000000000000000000000000000000 PUSH1 0x0 DUP3 ADD MSTORE POP JUMP JUMPDEST PUSH1 0x0 PUSH2 0x780 PUSH1 0x1 DUP4 PUSH2 0x70E JUMP JUMPDEST SWAP2 POP PUSH2 0x78B DUP3 PUSH2 0x74A JUMP JUMPDEST PUSH1 0x1 DUP3 ADD SWAP1 POP SWAP2 SWAP1 POP JUMP JUMPDEST PUSH1 0x0 PUSH2 0x7A2 DUP3 DUP7 PUSH2 0x719 JUMP JUMPDEST SWAP2 POP PUSH2 0x7AD DUP3 PUSH2 0x773 JUMP JUMPDEST SWAP2 POP PUSH2 0x7B9 DUP3 DUP6 PUSH2 0x719 JUMP JUMPDEST SWAP2 POP PUSH2 0x7C4 DUP3 PUSH2 0x773 JUMP JUMPDEST SWAP2 POP PUSH2 0x7D0 DUP3 DUP5 PUSH2 0x719 JUMP JUMPDEST SWAP2 POP DUP2 SWAP1 POP SWAP5 SWAP4 POP POP POP POP JUMP JUMPDEST PUSH1 0x0 PUSH2 0x7E8 DUP3 PUSH2 0x4D3 JUMP JUMPDEST SWAP2 POP PUSH2 0x7F3 DUP4 PUSH2 0x4D3 JUMP JUMPDEST SWAP3 POP DUP3 DUP3 ADD SWAP1 POP DUP1 DUP3 GT ISZERO PUSH2 0x80B JUMPI PUSH2 0x80A PUSH2 0x64B JUMP JUMPDEST JUMPDEST SWAP3 SWAP2 POP POP JUMP JUMPDEST PUSH1 0x0 PUSH2 0x81C DUP3 PUSH2 0x4D3 JUMP JUMPDEST SWAP2 POP PUSH32 0xFFFFFFFFFFFFFFFFFFFFFFFFFFFFFFFFFFFFFFFFFFFFFFFFFFFFFFFFFFFFFFFF DUP3 SUB PUSH2 0x84E JUMPI PUSH2 0x84D PUSH2 0x64B JUMP JUMPDEST JUMPDEST PUSH1 0x1 DUP3 ADD SWAP1 POP SWAP2 SWAP1 POP JUMP JUMPDEST PUSH32 0x4E487B7100000000000000000000000000000000000000000000000000000000 PUSH1 0x0 MSTORE PUSH1 0x32 PUSH1 0x4 MSTORE PUSH1 0x24 PUSH1 0x0 REVERT JUMPDEST PUSH32 0x4E487B7100000000000000000000000000000000000000000000000000000000 PUSH1 0x0 MSTORE PUSH1 0x41 PUSH1 0x4 MSTORE PUSH1 0x24 PUSH1 0x0 REVERT JUMPDEST PUSH1 0x0 PUSH2 0x8C2 DUP3 PUSH2 0x4D3 JUMP JUMPDEST SWAP2 POP PUSH2 0x8CD DUP4 PUSH2 0x4D3 JUMP JUMPDEST SWAP3 POP DUP3 PUSH2 0x8DD JUMPI PUSH2 0x8DC PUSH2 0x6AE JUMP JUMPDEST JUMPDEST DUP3 DUP3 MOD SWAP1 POP SWAP3 SWAP2 POP POP JUMP INVALID LOG2 PUSH5 0x6970667358 0x22 SLT KECCAK256 GASLIMIT PUSH9 0x5AE0EB041B3E11B15E SSTORE DUP14 JUMPI MCOPY OR SWAP10 0xCF OR PUSH31 0x73F368CE8736FDCF02F9EE8164736F6C634300081C00330000000000000000 "
				},
				"gasEstimates": {
					"creation": {
						"codeDepositCost": "466800",
						"executionCost": "499",
						"totalCost": "467299"
					},
					"external": {
						"getDaysSinceOrigin()": "infinite",
						"getSecondsSinceOrigin()": "358",
						"getThedate()": "infinite"
					},
					"internal": {
						"_calculateDate(uint256)": "infinite",
						"_isLeapYear(uint256)": "infinite",
						"uintToString(uint256)": "infinite"
					}
				},
				"methodIdentifiers": {
					"getDaysSinceOrigin()": "1d261e4a",
					"getSecondsSinceOrigin()": "bc8fa719",
					"getThedate()": "69f57170"
				}
			},
			"storageLayout": {
				"storage": [],
				"types": null
			},
			"userdoc": {
				"kind": "user",
				"methods": {
					"getDaysSinceOrigin()": {
						"notice": "Calcule le nombre de jours écoulés depuis la création de Bitcoin"
					},
					"getSecondsSinceOrigin()": {
						"notice": "Retourne le timestamp actuel en secondes"
					},
					"getThedate()": {
						"notice": "Retourne une chaîne de caractères indiquant la date en jours/mois/année depuis Bitcoin creation"
					}
				},
				"version": 1
			}
		}
	}
}