{
	"Date_Since_Origin.sol": {
		"BitcoinEpochCounter": {
			"abi": [
				{
					"inputs": [],
					"name": "getDaysSinceOrigin",
					"outputs": [
						{
							"internalType": "uint256",
							"name": "",
							"type": "uint256"
						}
					],
					"stateMutability": "view",
					"type": "function"
				},
				{
					"inputs": [],
					"name": "getSecondsSinceOrigin",
					"outputs": [
						{
							"internalType": "uint256",
							"name": "",
							"type": "uint256"
						}
					],
					"stateMutability": "view",
					"type": "function"
				},
				{
					"inputs": [],
					"name": "getThedate",
					"outputs": [
						{
							"internalType": "string",
							"name": "",
							"type": "string"
						}
					],
					"stateMutability": "view",
					"type": "function"
				}
			],
			"devdoc": {
				"kind": "dev",
				"methods": {
					"getDaysSinceOrigin()": {
						"returns": {
							"_0": "DaysSinceOrigin Nombre de jours écoulés"
						}
					},
					"getSecondsSinceOrigin()": {
						"returns": {
							"_0": "SecondsSinceOrigin Le timestamp actuel"
						}
					},
					"getThedate()": {
						"returns": {
							"_0": "Thedate Une chaîne formatée"
						}
					}
				},
				"version": 1
			},
			"evm": {
				"assembly": "    /* \"Date_Since_Origin.sol\":61:4488  contract BitcoinEpochCounter {... */\n  mstore(0x40, 0x80)\n  callvalue\n  dup1\n  iszero\n  tag_1\n  jumpi\n  0x00\n  dup1\n  revert\ntag_1:\n  pop\n  dataSize(sub_0)\n  dup1\n  dataOffset(sub_0)\n  0x00\n  codecopy\n  0x00\n  return\nstop\n\nsub_0: assembly {\n        /* \"Date_Since_Origin.sol\":61:4488  contract BitcoinEpochCounter {... */\n      mstore(0x40, 0x80)\n      callvalue\n      dup1\n      iszero\n      tag_1\n      jumpi\n      0x00\n      dup1\n      revert\n    tag_1:\n      pop\n      jumpi(tag_2, lt(calldatasize, 0x04))\n      shr(0xe0, calldataload(0x00))\n      dup1\n      0x1d261e4a\n      eq\n      tag_3\n      jumpi\n      dup1\n      0x69f57170\n      eq\n      tag_4\n      jumpi\n      dup1\n      0xbc8fa719\n      eq\n      tag_5\n      jumpi\n    tag_2:\n      0x00\n      dup1\n      revert\n        /* \"Date_Since_Origin.sol\":633:920  function getDaysSinceOrigin() public view returns (uint256) {... */\n    tag_3:\n      tag_6\n      tag_7\n      jump\t// in\n    tag_6:\n      mload(0x40)\n      tag_8\n      swap2\n      swap1\n      tag_9\n      jump\t// in\n    tag_8:\n      mload(0x40)\n      dup1\n      swap2\n      sub\n      swap1\n      return\n        /* \"Date_Since_Origin.sol\":1091:1525  function getThedate() public view returns (string memory) {... */\n    tag_4:\n      tag_10\n      tag_11\n      jump\t// in\n    tag_10:\n      mload(0x40)\n      tag_12\n      swap2\n      swap1\n      tag_13\n      jump\t// in\n    tag_12:\n      mload(0x40)\n      dup1\n      swap2\n      sub\n      swap1\n      return\n        /* \"Date_Since_Origin.sol\":377:481  function getSecondsSinceOrigin() public view returns (uint256) {... */\n    tag_5:\n      tag_14\n      tag_15\n      jump\t// in\n    tag_14:\n      mload(0x40)\n      tag_16\n      swap2\n      swap1\n      tag_9\n      jump\t// in\n    tag_16:\n      mload(0x40)\n      dup1\n      swap2\n      sub\n      swap1\n      return\n        /* \"Date_Since_Origin.sol\":633:920  function getDaysSinceOrigin() public view returns (uint256) {... */\n    tag_7:\n        /* \"Date_Since_Origin.sol\":684:691  uint256 */\n      0x00\n        /* \"Date_Since_Origin.sol\":219:229  1230940800 */\n      0x495eaa80\n        /* \"Date_Since_Origin.sol\":726:741  block.timestamp */\n      timestamp\n        /* \"Date_Since_Origin.sol\":726:771  block.timestamp >= BITCOIN_CREATION_TIMESTAMP */\n      lt\n      iszero\n        /* \"Date_Since_Origin.sol\":704:839  require(... */\n      tag_18\n      jumpi\n      mload(0x40)\n      0x08c379a000000000000000000000000000000000000000000000000000000000\n      dup2\n      mstore\n      0x04\n      add\n      tag_19\n      swap1\n      tag_20\n      jump\t// in\n    tag_19:\n      mload(0x40)\n      dup1\n      swap2\n      sub\n      swap1\n      revert\n    tag_18:\n        /* \"Date_Since_Origin.sol\":906:912  1 days */\n      0x015180\n        /* \"Date_Since_Origin.sol\":219:229  1230940800 */\n      0x495eaa80\n        /* \"Date_Since_Origin.sol\":858:873  block.timestamp */\n      timestamp\n        /* \"Date_Since_Origin.sol\":858:902  block.timestamp - BITCOIN_CREATION_TIMESTAMP */\n      tag_21\n      swap2\n      swap1\n      tag_22\n      jump\t// in\n    tag_21:\n        /* \"Date_Since_Origin.sol\":857:912  (block.timestamp - BITCOIN_CREATION_TIMESTAMP) / 1 days */\n      tag_23\n      swap2\n      swap1\n      tag_24\n      jump\t// in\n    tag_23:\n        /* \"Date_Since_Origin.sol\":850:912  return (block.timestamp - BITCOIN_CREATION_TIMESTAMP) / 1 days */\n      swap1\n      pop\n        /* \"Date_Since_Origin.sol\":633:920  function getDaysSinceOrigin() public view returns (uint256) {... */\n      swap1\n      jump\t// out\n        /* \"Date_Since_Origin.sol\":1091:1525  function getThedate() public view returns (string memory) {... */\n    tag_11:\n        /* \"Date_Since_Origin.sol\":1134:1147  string memory */\n      0x60\n        /* \"Date_Since_Origin.sol\":1160:1177  uint256 daysSince */\n      0x00\n        /* \"Date_Since_Origin.sol\":1180:1200  getDaysSinceOrigin() */\n      tag_26\n        /* \"Date_Since_Origin.sol\":1180:1198  getDaysSinceOrigin */\n      tag_7\n        /* \"Date_Since_Origin.sol\":1180:1200  getDaysSinceOrigin() */\n      jump\t// in\n    tag_26:\n        /* \"Date_Since_Origin.sol\":1160:1200  uint256 daysSince = getDaysSinceOrigin() */\n      swap1\n      pop\n        /* \"Date_Since_Origin.sol\":1212:1224  uint256 year */\n      0x00\n        /* \"Date_Since_Origin.sol\":1226:1239  uint256 month */\n      dup1\n        /* \"Date_Since_Origin.sol\":1241:1252  uint256 day */\n      0x00\n        /* \"Date_Since_Origin.sol\":1256:1281  _calculateDate(daysSince) */\n      tag_27\n        /* \"Date_Since_Origin.sol\":1271:1280  daysSince */\n      dup5\n        /* \"Date_Since_Origin.sol\":1256:1270  _calculateDate */\n      tag_28\n        /* \"Date_Since_Origin.sol\":1256:1281  _calculateDate(daysSince) */\n      jump\t// in\n    tag_27:\n        /* \"Date_Since_Origin.sol\":1211:1281  (uint256 year, uint256 month, uint256 day) = _calculateDate(daysSince) */\n      swap3\n      pop\n      swap3\n      pop\n      swap3\n      pop\n        /* \"Date_Since_Origin.sol\":1355:1372  uintToString(day) */\n      tag_29\n        /* \"Date_Since_Origin.sol\":1368:1371  day */\n      dup2\n        /* \"Date_Since_Origin.sol\":1355:1367  uintToString */\n      tag_30\n        /* \"Date_Since_Origin.sol\":1355:1372  uintToString(day) */\n      jump\t// in\n    tag_29:\n        /* \"Date_Since_Origin.sol\":1413:1432  uintToString(month) */\n      tag_31\n        /* \"Date_Since_Origin.sol\":1426:1431  month */\n      dup4\n        /* \"Date_Since_Origin.sol\":1413:1425  uintToString */\n      tag_30\n        /* \"Date_Since_Origin.sol\":1413:1432  uintToString(month) */\n      jump\t// in\n    tag_31:\n        /* \"Date_Since_Origin.sol\":1473:1491  uintToString(year) */\n      tag_32\n        /* \"Date_Since_Origin.sol\":1486:1490  year */\n      dup6\n        /* \"Date_Since_Origin.sol\":1473:1485  uintToString */\n      tag_30\n        /* \"Date_Since_Origin.sol\":1473:1491  uintToString(year) */\n      jump\t// in\n    tag_32:\n        /* \"Date_Since_Origin.sol\":1320:1506  abi.encodePacked(... */\n      add(0x20, mload(0x40))\n      tag_33\n      swap4\n      swap3\n      swap2\n      swap1\n      tag_34\n      jump\t// in\n    tag_33:\n      mload(0x40)\n      0x20\n      dup2\n      dup4\n      sub\n      sub\n      dup2\n      mstore\n      swap1\n      0x40\n      mstore\n        /* \"Date_Since_Origin.sol\":1292:1517  return string(... */\n      swap5\n      pop\n      pop\n      pop\n      pop\n      pop\n        /* \"Date_Since_Origin.sol\":1091:1525  function getThedate() public view returns (string memory) {... */\n      swap1\n      jump\t// out\n        /* \"Date_Since_Origin.sol\":377:481  function getSecondsSinceOrigin() public view returns (uint256) {... */\n    tag_15:\n        /* \"Date_Since_Origin.sol\":431:438  uint256 */\n      0x00\n        /* \"Date_Since_Origin.sol\":458:473  block.timestamp */\n      timestamp\n        /* \"Date_Since_Origin.sol\":451:473  return block.timestamp */\n      swap1\n      pop\n        /* \"Date_Since_Origin.sol\":377:481  function getSecondsSinceOrigin() public view returns (uint256) {... */\n      swap1\n      jump\t// out\n        /* \"Date_Since_Origin.sol\":1775:3360  function _calculateDate(uint256 _days)... */\n    tag_28:\n        /* \"Date_Since_Origin.sol\":1878:1890  uint256 year */\n      0x00\n        /* \"Date_Since_Origin.sol\":1905:1918  uint256 month */\n      dup1\n        /* \"Date_Since_Origin.sol\":1933:1944  uint256 day */\n      0x00\n        /* \"Date_Since_Origin.sol\":1979:1983  2009 */\n      0x07d9\n        /* \"Date_Since_Origin.sol\":1972:1983  year = 2009 */\n      swap3\n      pop\n        /* \"Date_Since_Origin.sol\":2093:2123  uint256[12] memory daysInMonth */\n      0x00\n        /* \"Date_Since_Origin.sol\":2093:2574  uint256[12] memory daysInMonth = [... */\n      mload(0x40)\n      dup1\n      0x0180\n      add\n      0x40\n      mstore\n      dup1\n        /* \"Date_Since_Origin.sol\":2149:2151  31 */\n      0x1f\n        /* \"Date_Since_Origin.sol\":2093:2574  uint256[12] memory daysInMonth = [... */\n      dup2\n      mstore\n      0x20\n      add\n        /* \"Date_Since_Origin.sol\":2186:2188  28 */\n      0x1c\n        /* \"Date_Since_Origin.sol\":2093:2574  uint256[12] memory daysInMonth = [... */\n      dup2\n      mstore\n      0x20\n      add\n        /* \"Date_Since_Origin.sol\":2224:2226  31 */\n      0x1f\n        /* \"Date_Since_Origin.sol\":2093:2574  uint256[12] memory daysInMonth = [... */\n      dup2\n      mstore\n      0x20\n      add\n        /* \"Date_Since_Origin.sol\":2258:2260  30 */\n      0x1e\n        /* \"Date_Since_Origin.sol\":2093:2574  uint256[12] memory daysInMonth = [... */\n      dup2\n      mstore\n      0x20\n      add\n        /* \"Date_Since_Origin.sol\":2293:2295  31 */\n      0x1f\n        /* \"Date_Since_Origin.sol\":2093:2574  uint256[12] memory daysInMonth = [... */\n      dup2\n      mstore\n      0x20\n      add\n        /* \"Date_Since_Origin.sol\":2326:2328  30 */\n      0x1e\n        /* \"Date_Since_Origin.sol\":2093:2574  uint256[12] memory daysInMonth = [... */\n      dup2\n      mstore\n      0x20\n      add\n        /* \"Date_Since_Origin.sol\":2360:2362  31 */\n      0x1f\n        /* \"Date_Since_Origin.sol\":2093:2574  uint256[12] memory daysInMonth = [... */\n      dup2\n      mstore\n      0x20\n      add\n        /* \"Date_Since_Origin.sol\":2397:2399  31 */\n      0x1f\n        /* \"Date_Since_Origin.sol\":2093:2574  uint256[12] memory daysInMonth = [... */\n      dup2\n      mstore\n      0x20\n      add\n        /* \"Date_Since_Origin.sol\":2432:2434  30 */\n      0x1e\n        /* \"Date_Since_Origin.sol\":2093:2574  uint256[12] memory daysInMonth = [... */\n      dup2\n      mstore\n      0x20\n      add\n        /* \"Date_Since_Origin.sol\":2471:2473  31 */\n      0x1f\n        /* \"Date_Since_Origin.sol\":2093:2574  uint256[12] memory daysInMonth = [... */\n      dup2\n      mstore\n      0x20\n      add\n        /* \"Date_Since_Origin.sol\":2508:2510  30 */\n      0x1e\n        /* \"Date_Since_Origin.sol\":2093:2574  uint256[12] memory daysInMonth = [... */\n      dup2\n      mstore\n      0x20\n      add\n        /* \"Date_Since_Origin.sol\":2546:2548  31 */\n      0x1f\n        /* \"Date_Since_Origin.sol\":2093:2574  uint256[12] memory daysInMonth = [... */\n      dup2\n      mstore\n      pop\n      swap1\n      pop\n        /* \"Date_Since_Origin.sol\":2587:2925  while (_days >= 365) {... */\n    tag_37:\n        /* \"Date_Since_Origin.sol\":2603:2606  365 */\n      0x016d\n        /* \"Date_Since_Origin.sol\":2594:2599  _days */\n      dup6\n        /* \"Date_Since_Origin.sol\":2594:2606  _days >= 365 */\n      lt\n        /* \"Date_Since_Origin.sol\":2587:2925  while (_days >= 365) {... */\n      tag_38\n      jumpi\n        /* \"Date_Since_Origin.sol\":2681:2698  _isLeapYear(year) */\n      tag_39\n        /* \"Date_Since_Origin.sol\":2693:2697  year */\n      dup5\n        /* \"Date_Since_Origin.sol\":2681:2692  _isLeapYear */\n      tag_40\n        /* \"Date_Since_Origin.sol\":2681:2698  _isLeapYear(year) */\n      jump\t// in\n    tag_39:\n        /* \"Date_Since_Origin.sol\":2677:2914  if (_isLeapYear(year)) {... */\n      iszero\n      tag_41\n      jumpi\n        /* \"Date_Since_Origin.sol\":2732:2735  366 */\n      0x016e\n        /* \"Date_Since_Origin.sol\":2723:2728  _days */\n      dup6\n        /* \"Date_Since_Origin.sol\":2723:2735  _days >= 366 */\n      lt\n        /* \"Date_Since_Origin.sol\":2719:2821  if (_days >= 366) {... */\n      tag_42\n      jumpi\n        /* \"Date_Since_Origin.sol\":2769:2772  366 */\n      0x016e\n        /* \"Date_Since_Origin.sol\":2760:2772  _days -= 366 */\n      dup6\n      tag_43\n      swap2\n      swap1\n      tag_22\n      jump\t// in\n    tag_43:\n      swap5\n      pop\n        /* \"Date_Since_Origin.sol\":2795:2801  year++ */\n      dup4\n      dup1\n      tag_44\n      swap1\n      tag_45\n      jump\t// in\n    tag_44:\n      swap5\n      pop\n      pop\n        /* \"Date_Since_Origin.sol\":2719:2821  if (_days >= 366) {... */\n    tag_42:\n        /* \"Date_Since_Origin.sol\":2677:2914  if (_isLeapYear(year)) {... */\n      jump(tag_46)\n    tag_41:\n        /* \"Date_Since_Origin.sol\":2870:2873  365 */\n      0x016d\n        /* \"Date_Since_Origin.sol\":2861:2873  _days -= 365 */\n      dup6\n      tag_47\n      swap2\n      swap1\n      tag_22\n      jump\t// in\n    tag_47:\n      swap5\n      pop\n        /* \"Date_Since_Origin.sol\":2892:2898  year++ */\n      dup4\n      dup1\n      tag_48\n      swap1\n      tag_45\n      jump\t// in\n    tag_48:\n      swap5\n      pop\n      pop\n        /* \"Date_Since_Origin.sol\":2677:2914  if (_isLeapYear(year)) {... */\n    tag_46:\n        /* \"Date_Since_Origin.sol\":2587:2925  while (_days >= 365) {... */\n      jump(tag_37)\n    tag_38:\n        /* \"Date_Since_Origin.sol\":3007:3024  _isLeapYear(year) */\n      tag_49\n        /* \"Date_Since_Origin.sol\":3019:3023  year */\n      dup5\n        /* \"Date_Since_Origin.sol\":3007:3018  _isLeapYear */\n      tag_40\n        /* \"Date_Since_Origin.sol\":3007:3024  _isLeapYear(year) */\n      jump\t// in\n    tag_49:\n        /* \"Date_Since_Origin.sol\":3003:3072  if (_isLeapYear(year)) {... */\n      iszero\n      tag_50\n      jumpi\n        /* \"Date_Since_Origin.sol\":3058:3060  29 */\n      0x1d\n        /* \"Date_Since_Origin.sol\":3041:3052  daysInMonth */\n      dup2\n        /* \"Date_Since_Origin.sol\":3053:3054  1 */\n      0x01\n        /* \"Date_Since_Origin.sol\":3041:3055  daysInMonth[1] */\n      0x0c\n      dup2\n      lt\n      tag_51\n      jumpi\n      tag_52\n      tag_53\n      jump\t// in\n    tag_52:\n    tag_51:\n      0x20\n      mul\n      add\n        /* \"Date_Since_Origin.sol\":3041:3060  daysInMonth[1] = 29 */\n      dup2\n      dup2\n      mstore\n      pop\n      pop\n        /* \"Date_Since_Origin.sol\":3003:3072  if (_isLeapYear(year)) {... */\n    tag_50:\n        /* \"Date_Since_Origin.sol\":3127:3136  uint256 i */\n      0x00\n        /* \"Date_Since_Origin.sol\":3122:3353  for (uint256 i = 0; i < 12; i++) {... */\n    tag_54:\n        /* \"Date_Since_Origin.sol\":3146:3148  12 */\n      0x0c\n        /* \"Date_Since_Origin.sol\":3142:3143  i */\n      dup2\n        /* \"Date_Since_Origin.sol\":3142:3148  i < 12 */\n      lt\n        /* \"Date_Since_Origin.sol\":3122:3353  for (uint256 i = 0; i < 12; i++) {... */\n      iszero\n      tag_55\n      jumpi\n        /* \"Date_Since_Origin.sol\":3182:3193  daysInMonth */\n      dup2\n        /* \"Date_Since_Origin.sol\":3194:3195  i */\n      dup2\n        /* \"Date_Since_Origin.sol\":3182:3196  daysInMonth[i] */\n      0x0c\n      dup2\n      lt\n      tag_57\n      jumpi\n      tag_58\n      tag_53\n      jump\t// in\n    tag_58:\n    tag_57:\n      0x20\n      mul\n      add\n      mload\n        /* \"Date_Since_Origin.sol\":3174:3179  _days */\n      dup7\n        /* \"Date_Since_Origin.sol\":3174:3196  _days < daysInMonth[i] */\n      lt\n        /* \"Date_Since_Origin.sol\":3170:3304  if (_days < daysInMonth[i]) {... */\n      iszero\n      tag_59\n      jumpi\n        /* \"Date_Since_Origin.sol\":3229:3230  1 */\n      0x01\n        /* \"Date_Since_Origin.sol\":3225:3226  i */\n      dup2\n        /* \"Date_Since_Origin.sol\":3225:3230  i + 1 */\n      tag_60\n      swap2\n      swap1\n      tag_61\n      jump\t// in\n    tag_60:\n        /* \"Date_Since_Origin.sol\":3217:3230  month = i + 1 */\n      swap4\n      pop\n        /* \"Date_Since_Origin.sol\":3263:3264  1 */\n      0x01\n        /* \"Date_Since_Origin.sol\":3255:3260  _days */\n      dup7\n        /* \"Date_Since_Origin.sol\":3255:3264  _days + 1 */\n      tag_62\n      swap2\n      swap1\n      tag_61\n      jump\t// in\n    tag_62:\n        /* \"Date_Since_Origin.sol\":3249:3264  day = _days + 1 */\n      swap3\n      pop\n        /* \"Date_Since_Origin.sol\":3283:3288  break */\n      jump(tag_55)\n        /* \"Date_Since_Origin.sol\":3170:3304  if (_days < daysInMonth[i]) {... */\n    tag_59:\n        /* \"Date_Since_Origin.sol\":3327:3338  daysInMonth */\n      dup2\n        /* \"Date_Since_Origin.sol\":3339:3340  i */\n      dup2\n        /* \"Date_Since_Origin.sol\":3327:3341  daysInMonth[i] */\n      0x0c\n      dup2\n      lt\n      tag_63\n      jumpi\n      tag_64\n      tag_53\n      jump\t// in\n    tag_64:\n    tag_63:\n      0x20\n      mul\n      add\n      mload\n        /* \"Date_Since_Origin.sol\":3318:3341  _days -= daysInMonth[i] */\n      dup7\n      tag_65\n      swap2\n      swap1\n      tag_22\n      jump\t// in\n    tag_65:\n      swap6\n      pop\n        /* \"Date_Since_Origin.sol\":3150:3153  i++ */\n      dup1\n      dup1\n      0x01\n      add\n      swap2\n      pop\n      pop\n        /* \"Date_Since_Origin.sol\":3122:3353  for (uint256 i = 0; i < 12; i++) {... */\n      jump(tag_54)\n    tag_55:\n      pop\n        /* \"Date_Since_Origin.sol\":1961:3360  {... */\n      pop\n        /* \"Date_Since_Origin.sol\":1775:3360  function _calculateDate(uint256 _days)... */\n      swap2\n      swap4\n      swap1\n      swap3\n      pop\n      jump\t// out\n        /* \"Date_Since_Origin.sol\":3943:4485  function uintToString(uint256 _value) internal pure returns (string memory) {... */\n    tag_30:\n        /* \"Date_Since_Origin.sol\":4004:4017  string memory */\n      0x60\n        /* \"Date_Since_Origin.sol\":4044:4045  0 */\n      0x00\n        /* \"Date_Since_Origin.sol\":4034:4040  _value */\n      dup3\n        /* \"Date_Since_Origin.sol\":4034:4045  _value == 0 */\n      sub\n        /* \"Date_Since_Origin.sol\":4030:4084  if (_value == 0) {... */\n      tag_67\n      jumpi\n        /* \"Date_Since_Origin.sol\":4062:4072  return \"0\" */\n      mload(0x40)\n      dup1\n      0x40\n      add\n      0x40\n      mstore\n      dup1\n      0x01\n      dup2\n      mstore\n      0x20\n      add\n      0x3000000000000000000000000000000000000000000000000000000000000000\n      dup2\n      mstore\n      pop\n      swap1\n      pop\n      jump(tag_66)\n        /* \"Date_Since_Origin.sol\":4030:4084  if (_value == 0) {... */\n    tag_67:\n        /* \"Date_Since_Origin.sol\":4094:4106  uint256 temp */\n      0x00\n        /* \"Date_Since_Origin.sol\":4109:4115  _value */\n      dup3\n        /* \"Date_Since_Origin.sol\":4094:4115  uint256 temp = _value */\n      swap1\n      pop\n        /* \"Date_Since_Origin.sol\":4126:4140  uint256 digits */\n      0x00\n        /* \"Date_Since_Origin.sol\":4151:4229  while (temp != 0) {... */\n    tag_68:\n        /* \"Date_Since_Origin.sol\":4166:4167  0 */\n      0x00\n        /* \"Date_Since_Origin.sol\":4158:4162  temp */\n      dup3\n        /* \"Date_Since_Origin.sol\":4158:4167  temp != 0 */\n      eq\n        /* \"Date_Since_Origin.sol\":4151:4229  while (temp != 0) {... */\n      tag_69\n      jumpi\n        /* \"Date_Since_Origin.sol\":4184:4192  digits++ */\n      dup1\n      dup1\n      tag_70\n      swap1\n      tag_45\n      jump\t// in\n    tag_70:\n      swap2\n      pop\n      pop\n        /* \"Date_Since_Origin.sol\":4215:4217  10 */\n      0x0a\n        /* \"Date_Since_Origin.sol\":4207:4217  temp /= 10 */\n      dup3\n      tag_71\n      swap2\n      swap1\n      tag_24\n      jump\t// in\n    tag_71:\n      swap2\n      pop\n        /* \"Date_Since_Origin.sol\":4151:4229  while (temp != 0) {... */\n      jump(tag_68)\n    tag_69:\n        /* \"Date_Since_Origin.sol\":4239:4258  bytes memory buffer */\n      0x00\n        /* \"Date_Since_Origin.sol\":4271:4277  digits */\n      dup2\n        /* \"Date_Since_Origin.sol\":4261:4278  new bytes(digits) */\n      0xffffffffffffffff\n      dup2\n      gt\n      iszero\n      tag_72\n      jumpi\n      tag_73\n      tag_74\n      jump\t// in\n    tag_73:\n    tag_72:\n      mload(0x40)\n      swap1\n      dup1\n      dup3\n      mstore\n      dup1\n      0x1f\n      add\n      not(0x1f)\n      and\n      0x20\n      add\n      dup3\n      add\n      0x40\n      mstore\n      dup1\n      iszero\n      tag_75\n      jumpi\n      dup2\n      0x20\n      add\n      0x01\n      dup3\n      mul\n      dup1\n      calldatasize\n      dup4\n      calldatacopy\n      dup1\n      dup3\n      add\n      swap2\n      pop\n      pop\n      swap1\n      pop\n    tag_75:\n      pop\n        /* \"Date_Since_Origin.sol\":4239:4278  bytes memory buffer = new bytes(digits) */\n      swap1\n      pop\n        /* \"Date_Since_Origin.sol\":4289:4446  while (_value != 0) {... */\n    tag_76:\n        /* \"Date_Since_Origin.sol\":4306:4307  0 */\n      0x00\n        /* \"Date_Since_Origin.sol\":4296:4302  _value */\n      dup6\n        /* \"Date_Since_Origin.sol\":4296:4307  _value != 0 */\n      eq\n        /* \"Date_Since_Origin.sol\":4289:4446  while (_value != 0) {... */\n      tag_77\n      jumpi\n        /* \"Date_Since_Origin.sol\":4334:4335  1 */\n      0x01\n        /* \"Date_Since_Origin.sol\":4324:4335  digits -= 1 */\n      dup3\n      tag_78\n      swap2\n      swap1\n      tag_22\n      jump\t// in\n    tag_78:\n      swap2\n      pop\n        /* \"Date_Since_Origin.sol\":4402:4404  10 */\n      0x0a\n        /* \"Date_Since_Origin.sol\":4393:4399  _value */\n      dup6\n        /* \"Date_Since_Origin.sol\":4393:4404  _value % 10 */\n      tag_79\n      swap2\n      swap1\n      tag_80\n      jump\t// in\n    tag_79:\n        /* \"Date_Since_Origin.sol\":4380:4382  48 */\n      0x30\n        /* \"Date_Since_Origin.sol\":4380:4405  48 + uint256(_value % 10) */\n      tag_81\n      swap2\n      swap1\n      tag_61\n      jump\t// in\n    tag_81:\n        /* \"Date_Since_Origin.sol\":4367:4407  bytes1(uint8(48 + uint256(_value % 10))) */\n      0xf8\n      shl\n        /* \"Date_Since_Origin.sol\":4350:4356  buffer */\n      dup2\n        /* \"Date_Since_Origin.sol\":4357:4363  digits */\n      dup4\n        /* \"Date_Since_Origin.sol\":4350:4364  buffer[digits] */\n      dup2\n      mload\n      dup2\n      lt\n      tag_82\n      jumpi\n      tag_83\n      tag_53\n      jump\t// in\n    tag_83:\n    tag_82:\n      0x20\n      add\n      add\n        /* \"Date_Since_Origin.sol\":4350:4407  buffer[digits] = bytes1(uint8(48 + uint256(_value % 10))) */\n      swap1\n      not(0xffffffffffffffffffffffffffffffffffffffffffffffffffffffffffffff)\n      and\n      swap1\n      dup2\n      0x00\n      byte\n      swap1\n      mstore8\n      pop\n        /* \"Date_Since_Origin.sol\":4432:4434  10 */\n      0x0a\n        /* \"Date_Since_Origin.sol\":4422:4434  _value /= 10 */\n      dup6\n      tag_84\n      swap2\n      swap1\n      tag_24\n      jump\t// in\n    tag_84:\n      swap5\n      pop\n        /* \"Date_Since_Origin.sol\":4289:4446  while (_value != 0) {... */\n      jump(tag_76)\n    tag_77:\n        /* \"Date_Since_Origin.sol\":4470:4476  buffer */\n      dup1\n        /* \"Date_Since_Origin.sol\":4456:4477  return string(buffer) */\n      swap4\n      pop\n      pop\n      pop\n      pop\n        /* \"Date_Since_Origin.sol\":3943:4485  function uintToString(uint256 _value) internal pure returns (string memory) {... */\n    tag_66:\n      swap2\n      swap1\n      pop\n      jump\t// out\n        /* \"Date_Since_Origin.sol\":3517:3775  function _isLeapYear(uint256 _year) internal pure returns (bool) {... */\n    tag_40:\n        /* \"Date_Since_Origin.sol\":3576:3580  bool */\n      0x00\n        /* \"Date_Since_Origin.sol\":3610:3611  0 */\n      dup1\n        /* \"Date_Since_Origin.sol\":3605:3606  4 */\n      0x04\n        /* \"Date_Since_Origin.sol\":3597:3602  _year */\n      dup4\n        /* \"Date_Since_Origin.sol\":3597:3606  _year % 4 */\n      tag_86\n      swap2\n      swap1\n      tag_80\n      jump\t// in\n    tag_86:\n        /* \"Date_Since_Origin.sol\":3597:3611  _year % 4 == 0 */\n      sub\n        /* \"Date_Since_Origin.sol\":3593:3745  if (_year % 4 == 0) {... */\n      tag_87\n      jumpi\n        /* \"Date_Since_Origin.sol\":3647:3648  0 */\n      0x00\n        /* \"Date_Since_Origin.sol\":3640:3643  100 */\n      0x64\n        /* \"Date_Since_Origin.sol\":3632:3637  _year */\n      dup4\n        /* \"Date_Since_Origin.sol\":3632:3643  _year % 100 */\n      tag_88\n      swap2\n      swap1\n      tag_80\n      jump\t// in\n    tag_88:\n        /* \"Date_Since_Origin.sol\":3632:3648  _year % 100 == 0 */\n      sub\n        /* \"Date_Since_Origin.sol\":3628:3708  if (_year % 100 == 0) {... */\n      tag_89\n      jumpi\n        /* \"Date_Since_Origin.sol\":3691:3692  0 */\n      0x00\n        /* \"Date_Since_Origin.sol\":3684:3687  400 */\n      0x0190\n        /* \"Date_Since_Origin.sol\":3676:3681  _year */\n      dup4\n        /* \"Date_Since_Origin.sol\":3676:3687  _year % 400 */\n      tag_90\n      swap2\n      swap1\n      tag_80\n      jump\t// in\n    tag_90:\n        /* \"Date_Since_Origin.sol\":3676:3692  _year % 400 == 0 */\n      eq\n        /* \"Date_Since_Origin.sol\":3669:3692  return _year % 400 == 0 */\n      swap1\n      pop\n      jump(tag_85)\n        /* \"Date_Since_Origin.sol\":3628:3708  if (_year % 100 == 0) {... */\n    tag_89:\n        /* \"Date_Since_Origin.sol\":3729:3733  true */\n      0x01\n        /* \"Date_Since_Origin.sol\":3722:3733  return true */\n      swap1\n      pop\n      jump(tag_85)\n        /* \"Date_Since_Origin.sol\":3593:3745  if (_year % 4 == 0) {... */\n    tag_87:\n        /* \"Date_Since_Origin.sol\":3762:3767  false */\n      0x00\n        /* \"Date_Since_Origin.sol\":3755:3767  return false */\n      swap1\n      pop\n        /* \"Date_Since_Origin.sol\":3517:3775  function _isLeapYear(uint256 _year) internal pure returns (bool) {... */\n    tag_85:\n      swap2\n      swap1\n      pop\n      jump\t// out\n        /* \"#utility.yul\":7:84   */\n    tag_91:\n        /* \"#utility.yul\":44:51   */\n      0x00\n        /* \"#utility.yul\":73:78   */\n      dup2\n        /* \"#utility.yul\":62:78   */\n      swap1\n      pop\n        /* \"#utility.yul\":7:84   */\n      swap2\n      swap1\n      pop\n      jump\t// out\n        /* \"#utility.yul\":90:208   */\n    tag_92:\n        /* \"#utility.yul\":177:201   */\n      tag_109\n        /* \"#utility.yul\":195:200   */\n      dup2\n        /* \"#utility.yul\":177:201   */\n      tag_91\n      jump\t// in\n    tag_109:\n        /* \"#utility.yul\":172:175   */\n      dup3\n        /* \"#utility.yul\":165:202   */\n      mstore\n        /* \"#utility.yul\":90:208   */\n      pop\n      pop\n      jump\t// out\n        /* \"#utility.yul\":214:436   */\n    tag_9:\n        /* \"#utility.yul\":307:311   */\n      0x00\n        /* \"#utility.yul\":345:347   */\n      0x20\n        /* \"#utility.yul\":334:343   */\n      dup3\n        /* \"#utility.yul\":330:348   */\n      add\n        /* \"#utility.yul\":322:348   */\n      swap1\n      pop\n        /* \"#utility.yul\":358:429   */\n      tag_111\n        /* \"#utility.yul\":426:427   */\n      0x00\n        /* \"#utility.yul\":415:424   */\n      dup4\n        /* \"#utility.yul\":411:428   */\n      add\n        /* \"#utility.yul\":402:408   */\n      dup5\n        /* \"#utility.yul\":358:429   */\n      tag_92\n      jump\t// in\n    tag_111:\n        /* \"#utility.yul\":214:436   */\n      swap3\n      swap2\n      pop\n      pop\n      jump\t// out\n        /* \"#utility.yul\":442:541   */\n    tag_93:\n        /* \"#utility.yul\":494:500   */\n      0x00\n        /* \"#utility.yul\":528:533   */\n      dup2\n        /* \"#utility.yul\":522:534   */\n      mload\n        /* \"#utility.yul\":512:534   */\n      swap1\n      pop\n        /* \"#utility.yul\":442:541   */\n      swap2\n      swap1\n      pop\n      jump\t// out\n        /* \"#utility.yul\":547:716   */\n    tag_94:\n        /* \"#utility.yul\":631:642   */\n      0x00\n        /* \"#utility.yul\":665:671   */\n      dup3\n        /* \"#utility.yul\":660:663   */\n      dup3\n        /* \"#utility.yul\":653:672   */\n      mstore\n        /* \"#utility.yul\":705:709   */\n      0x20\n        /* \"#utility.yul\":700:703   */\n      dup3\n        /* \"#utility.yul\":696:710   */\n      add\n        /* \"#utility.yul\":681:710   */\n      swap1\n      pop\n        /* \"#utility.yul\":547:716   */\n      swap3\n      swap2\n      pop\n      pop\n      jump\t// out\n        /* \"#utility.yul\":722:970   */\n    tag_95:\n        /* \"#utility.yul\":804:805   */\n      0x00\n        /* \"#utility.yul\":814:927   */\n    tag_115:\n        /* \"#utility.yul\":828:834   */\n      dup4\n        /* \"#utility.yul\":825:826   */\n      dup2\n        /* \"#utility.yul\":822:835   */\n      lt\n        /* \"#utility.yul\":814:927   */\n      iszero\n      tag_117\n      jumpi\n        /* \"#utility.yul\":913:914   */\n      dup1\n        /* \"#utility.yul\":908:911   */\n      dup3\n        /* \"#utility.yul\":904:915   */\n      add\n        /* \"#utility.yul\":898:916   */\n      mload\n        /* \"#utility.yul\":894:895   */\n      dup2\n        /* \"#utility.yul\":889:892   */\n      dup5\n        /* \"#utility.yul\":885:896   */\n      add\n        /* \"#utility.yul\":878:917   */\n      mstore\n        /* \"#utility.yul\":850:852   */\n      0x20\n        /* \"#utility.yul\":847:848   */\n      dup2\n        /* \"#utility.yul\":843:853   */\n      add\n        /* \"#utility.yul\":838:853   */\n      swap1\n      pop\n        /* \"#utility.yul\":814:927   */\n      jump(tag_115)\n    tag_117:\n        /* \"#utility.yul\":961:962   */\n      0x00\n        /* \"#utility.yul\":952:958   */\n      dup5\n        /* \"#utility.yul\":947:950   */\n      dup5\n        /* \"#utility.yul\":943:959   */\n      add\n        /* \"#utility.yul\":936:963   */\n      mstore\n        /* \"#utility.yul\":784:970   */\n      pop\n        /* \"#utility.yul\":722:970   */\n      pop\n      pop\n      pop\n      jump\t// out\n        /* \"#utility.yul\":976:1078   */\n    tag_96:\n        /* \"#utility.yul\":1017:1023   */\n      0x00\n        /* \"#utility.yul\":1068:1070   */\n      0x1f\n        /* \"#utility.yul\":1064:1071   */\n      not\n        /* \"#utility.yul\":1059:1061   */\n      0x1f\n        /* \"#utility.yul\":1052:1057   */\n      dup4\n        /* \"#utility.yul\":1048:1062   */\n      add\n        /* \"#utility.yul\":1044:1072   */\n      and\n        /* \"#utility.yul\":1034:1072   */\n      swap1\n      pop\n        /* \"#utility.yul\":976:1078   */\n      swap2\n      swap1\n      pop\n      jump\t// out\n        /* \"#utility.yul\":1084:1461   */\n    tag_97:\n        /* \"#utility.yul\":1172:1175   */\n      0x00\n        /* \"#utility.yul\":1200:1239   */\n      tag_120\n        /* \"#utility.yul\":1233:1238   */\n      dup3\n        /* \"#utility.yul\":1200:1239   */\n      tag_93\n      jump\t// in\n    tag_120:\n        /* \"#utility.yul\":1255:1326   */\n      tag_121\n        /* \"#utility.yul\":1319:1325   */\n      dup2\n        /* \"#utility.yul\":1314:1317   */\n      dup6\n        /* \"#utility.yul\":1255:1326   */\n      tag_94\n      jump\t// in\n    tag_121:\n        /* \"#utility.yul\":1248:1326   */\n      swap4\n      pop\n        /* \"#utility.yul\":1335:1400   */\n      tag_122\n        /* \"#utility.yul\":1393:1399   */\n      dup2\n        /* \"#utility.yul\":1388:1391   */\n      dup6\n        /* \"#utility.yul\":1381:1385   */\n      0x20\n        /* \"#utility.yul\":1374:1379   */\n      dup7\n        /* \"#utility.yul\":1370:1386   */\n      add\n        /* \"#utility.yul\":1335:1400   */\n      tag_95\n      jump\t// in\n    tag_122:\n        /* \"#utility.yul\":1425:1454   */\n      tag_123\n        /* \"#utility.yul\":1447:1453   */\n      dup2\n        /* \"#utility.yul\":1425:1454   */\n      tag_96\n      jump\t// in\n    tag_123:\n        /* \"#utility.yul\":1420:1423   */\n      dup5\n        /* \"#utility.yul\":1416:1455   */\n      add\n        /* \"#utility.yul\":1409:1455   */\n      swap2\n      pop\n        /* \"#utility.yul\":1176:1461   */\n      pop\n        /* \"#utility.yul\":1084:1461   */\n      swap3\n      swap2\n      pop\n      pop\n      jump\t// out\n        /* \"#utility.yul\":1467:1780   */\n    tag_13:\n        /* \"#utility.yul\":1580:1584   */\n      0x00\n        /* \"#utility.yul\":1618:1620   */\n      0x20\n        /* \"#utility.yul\":1607:1616   */\n      dup3\n        /* \"#utility.yul\":1603:1621   */\n      add\n        /* \"#utility.yul\":1595:1621   */\n      swap1\n      pop\n        /* \"#utility.yul\":1667:1676   */\n      dup2\n        /* \"#utility.yul\":1661:1665   */\n      dup2\n        /* \"#utility.yul\":1657:1677   */\n      sub\n        /* \"#utility.yul\":1653:1654   */\n      0x00\n        /* \"#utility.yul\":1642:1651   */\n      dup4\n        /* \"#utility.yul\":1638:1655   */\n      add\n        /* \"#utility.yul\":1631:1678   */\n      mstore\n        /* \"#utility.yul\":1695:1773   */\n      tag_125\n        /* \"#utility.yul\":1768:1772   */\n      dup2\n        /* \"#utility.yul\":1759:1765   */\n      dup5\n        /* \"#utility.yul\":1695:1773   */\n      tag_97\n      jump\t// in\n    tag_125:\n        /* \"#utility.yul\":1687:1773   */\n      swap1\n      pop\n        /* \"#utility.yul\":1467:1780   */\n      swap3\n      swap2\n      pop\n      pop\n      jump\t// out\n        /* \"#utility.yul\":1786:2013   */\n    tag_98:\n        /* \"#utility.yul\":1926:1960   */\n      0x43757272656e742074696d65206973206265666f726520426974636f696e2063\n        /* \"#utility.yul\":1922:1923   */\n      0x00\n        /* \"#utility.yul\":1914:1920   */\n      dup3\n        /* \"#utility.yul\":1910:1924   */\n      add\n        /* \"#utility.yul\":1903:1961   */\n      mstore\n        /* \"#utility.yul\":1995:2005   */\n      0x72656174696f6e2e000000000000000000000000000000000000000000000000\n        /* \"#utility.yul\":1990:1992   */\n      0x20\n        /* \"#utility.yul\":1982:1988   */\n      dup3\n        /* \"#utility.yul\":1978:1993   */\n      add\n        /* \"#utility.yul\":1971:2006   */\n      mstore\n        /* \"#utility.yul\":1786:2013   */\n      pop\n      jump\t// out\n        /* \"#utility.yul\":2019:2385   */\n    tag_99:\n        /* \"#utility.yul\":2161:2164   */\n      0x00\n        /* \"#utility.yul\":2182:2249   */\n      tag_128\n        /* \"#utility.yul\":2246:2248   */\n      0x28\n        /* \"#utility.yul\":2241:2244   */\n      dup4\n        /* \"#utility.yul\":2182:2249   */\n      tag_94\n      jump\t// in\n    tag_128:\n        /* \"#utility.yul\":2175:2249   */\n      swap2\n      pop\n        /* \"#utility.yul\":2258:2351   */\n      tag_129\n        /* \"#utility.yul\":2347:2350   */\n      dup3\n        /* \"#utility.yul\":2258:2351   */\n      tag_98\n      jump\t// in\n    tag_129:\n        /* \"#utility.yul\":2376:2378   */\n      0x40\n        /* \"#utility.yul\":2371:2374   */\n      dup3\n        /* \"#utility.yul\":2367:2379   */\n      add\n        /* \"#utility.yul\":2360:2379   */\n      swap1\n      pop\n        /* \"#utility.yul\":2019:2385   */\n      swap2\n      swap1\n      pop\n      jump\t// out\n        /* \"#utility.yul\":2391:2810   */\n    tag_20:\n        /* \"#utility.yul\":2557:2561   */\n      0x00\n        /* \"#utility.yul\":2595:2597   */\n      0x20\n        /* \"#utility.yul\":2584:2593   */\n      dup3\n        /* \"#utility.yul\":2580:2598   */\n      add\n        /* \"#utility.yul\":2572:2598   */\n      swap1\n      pop\n        /* \"#utility.yul\":2644:2653   */\n      dup2\n        /* \"#utility.yul\":2638:2642   */\n      dup2\n        /* \"#utility.yul\":2634:2654   */\n      sub\n        /* \"#utility.yul\":2630:2631   */\n      0x00\n        /* \"#utility.yul\":2619:2628   */\n      dup4\n        /* \"#utility.yul\":2615:2632   */\n      add\n        /* \"#utility.yul\":2608:2655   */\n      mstore\n        /* \"#utility.yul\":2672:2803   */\n      tag_131\n        /* \"#utility.yul\":2798:2802   */\n      dup2\n        /* \"#utility.yul\":2672:2803   */\n      tag_99\n      jump\t// in\n    tag_131:\n        /* \"#utility.yul\":2664:2803   */\n      swap1\n      pop\n        /* \"#utility.yul\":2391:2810   */\n      swap2\n      swap1\n      pop\n      jump\t// out\n        /* \"#utility.yul\":2816:2996   */\n    tag_100:\n        /* \"#utility.yul\":2864:2941   */\n      0x4e487b7100000000000000000000000000000000000000000000000000000000\n        /* \"#utility.yul\":2861:2862   */\n      0x00\n        /* \"#utility.yul\":2854:2942   */\n      mstore\n        /* \"#utility.yul\":2961:2965   */\n      0x11\n        /* \"#utility.yul\":2958:2959   */\n      0x04\n        /* \"#utility.yul\":2951:2966   */\n      mstore\n        /* \"#utility.yul\":2985:2989   */\n      0x24\n        /* \"#utility.yul\":2982:2983   */\n      0x00\n        /* \"#utility.yul\":2975:2990   */\n      revert\n        /* \"#utility.yul\":3002:3196   */\n    tag_22:\n        /* \"#utility.yul\":3042:3046   */\n      0x00\n        /* \"#utility.yul\":3062:3082   */\n      tag_134\n        /* \"#utility.yul\":3080:3081   */\n      dup3\n        /* \"#utility.yul\":3062:3082   */\n      tag_91\n      jump\t// in\n    tag_134:\n        /* \"#utility.yul\":3057:3082   */\n      swap2\n      pop\n        /* \"#utility.yul\":3096:3116   */\n      tag_135\n        /* \"#utility.yul\":3114:3115   */\n      dup4\n        /* \"#utility.yul\":3096:3116   */\n      tag_91\n      jump\t// in\n    tag_135:\n        /* \"#utility.yul\":3091:3116   */\n      swap3\n      pop\n        /* \"#utility.yul\":3140:3141   */\n      dup3\n        /* \"#utility.yul\":3137:3138   */\n      dup3\n        /* \"#utility.yul\":3133:3142   */\n      sub\n        /* \"#utility.yul\":3125:3142   */\n      swap1\n      pop\n        /* \"#utility.yul\":3164:3165   */\n      dup2\n        /* \"#utility.yul\":3158:3162   */\n      dup2\n        /* \"#utility.yul\":3155:3166   */\n      gt\n        /* \"#utility.yul\":3152:3189   */\n      iszero\n      tag_136\n      jumpi\n        /* \"#utility.yul\":3169:3187   */\n      tag_137\n      tag_100\n      jump\t// in\n    tag_137:\n        /* \"#utility.yul\":3152:3189   */\n    tag_136:\n        /* \"#utility.yul\":3002:3196   */\n      swap3\n      swap2\n      pop\n      pop\n      jump\t// out\n        /* \"#utility.yul\":3202:3382   */\n    tag_101:\n        /* \"#utility.yul\":3250:3327   */\n      0x4e487b7100000000000000000000000000000000000000000000000000000000\n        /* \"#utility.yul\":3247:3248   */\n      0x00\n        /* \"#utility.yul\":3240:3328   */\n      mstore\n        /* \"#utility.yul\":3347:3351   */\n      0x12\n        /* \"#utility.yul\":3344:3345   */\n      0x04\n        /* \"#utility.yul\":3337:3352   */\n      mstore\n        /* \"#utility.yul\":3371:3375   */\n      0x24\n        /* \"#utility.yul\":3368:3369   */\n      0x00\n        /* \"#utility.yul\":3361:3376   */\n      revert\n        /* \"#utility.yul\":3388:3573   */\n    tag_24:\n        /* \"#utility.yul\":3428:3429   */\n      0x00\n        /* \"#utility.yul\":3445:3465   */\n      tag_140\n        /* \"#utility.yul\":3463:3464   */\n      dup3\n        /* \"#utility.yul\":3445:3465   */\n      tag_91\n      jump\t// in\n    tag_140:\n        /* \"#utility.yul\":3440:3465   */\n      swap2\n      pop\n        /* \"#utility.yul\":3479:3499   */\n      tag_141\n        /* \"#utility.yul\":3497:3498   */\n      dup4\n        /* \"#utility.yul\":3479:3499   */\n      tag_91\n      jump\t// in\n    tag_141:\n        /* \"#utility.yul\":3474:3499   */\n      swap3\n      pop\n        /* \"#utility.yul\":3518:3519   */\n      dup3\n        /* \"#utility.yul\":3508:3543   */\n      tag_142\n      jumpi\n        /* \"#utility.yul\":3523:3541   */\n      tag_143\n      tag_101\n      jump\t// in\n    tag_143:\n        /* \"#utility.yul\":3508:3543   */\n    tag_142:\n        /* \"#utility.yul\":3565:3566   */\n      dup3\n        /* \"#utility.yul\":3562:3563   */\n      dup3\n        /* \"#utility.yul\":3558:3567   */\n      div\n        /* \"#utility.yul\":3553:3567   */\n      swap1\n      pop\n        /* \"#utility.yul\":3388:3573   */\n      swap3\n      swap2\n      pop\n      pop\n      jump\t// out\n        /* \"#utility.yul\":3579:3727   */\n    tag_102:\n        /* \"#utility.yul\":3681:3692   */\n      0x00\n        /* \"#utility.yul\":3718:3721   */\n      dup2\n        /* \"#utility.yul\":3703:3721   */\n      swap1\n      pop\n        /* \"#utility.yul\":3579:3727   */\n      swap3\n      swap2\n      pop\n      pop\n      jump\t// out\n        /* \"#utility.yul\":3733:4123   */\n    tag_103:\n        /* \"#utility.yul\":3839:3842   */\n      0x00\n        /* \"#utility.yul\":3867:3906   */\n      tag_146\n        /* \"#utility.yul\":3900:3905   */\n      dup3\n        /* \"#utility.yul\":3867:3906   */\n      tag_93\n      jump\t// in\n    tag_146:\n        /* \"#utility.yul\":3922:4011   */\n      tag_147\n        /* \"#utility.yul\":4004:4010   */\n      dup2\n        /* \"#utility.yul\":3999:4002   */\n      dup6\n        /* \"#utility.yul\":3922:4011   */\n      tag_102\n      jump\t// in\n    tag_147:\n        /* \"#utility.yul\":3915:4011   */\n      swap4\n      pop\n        /* \"#utility.yul\":4020:4085   */\n      tag_148\n        /* \"#utility.yul\":4078:4084   */\n      dup2\n        /* \"#utility.yul\":4073:4076   */\n      dup6\n        /* \"#utility.yul\":4066:4070   */\n      0x20\n        /* \"#utility.yul\":4059:4064   */\n      dup7\n        /* \"#utility.yul\":4055:4071   */\n      add\n        /* \"#utility.yul\":4020:4085   */\n      tag_95\n      jump\t// in\n    tag_148:\n        /* \"#utility.yul\":4110:4116   */\n      dup1\n        /* \"#utility.yul\":4105:4108   */\n      dup5\n        /* \"#utility.yul\":4101:4117   */\n      add\n        /* \"#utility.yul\":4094:4117   */\n      swap2\n      pop\n        /* \"#utility.yul\":3843:4123   */\n      pop\n        /* \"#utility.yul\":3733:4123   */\n      swap3\n      swap2\n      pop\n      pop\n      jump\t// out\n        /* \"#utility.yul\":4129:4280   */\n    tag_104:\n        /* \"#utility.yul\":4269:4272   */\n      0x2f00000000000000000000000000000000000000000000000000000000000000\n        /* \"#utility.yul\":4265:4266   */\n      0x00\n        /* \"#utility.yul\":4257:4263   */\n      dup3\n        /* \"#utility.yul\":4253:4267   */\n      add\n        /* \"#utility.yul\":4246:4273   */\n      mstore\n        /* \"#utility.yul\":4129:4280   */\n      pop\n      jump\t// out\n        /* \"#utility.yul\":4286:4686   */\n    tag_105:\n        /* \"#utility.yul\":4446:4449   */\n      0x00\n        /* \"#utility.yul\":4467:4551   */\n      tag_151\n        /* \"#utility.yul\":4549:4550   */\n      0x01\n        /* \"#utility.yul\":4544:4547   */\n      dup4\n        /* \"#utility.yul\":4467:4551   */\n      tag_102\n      jump\t// in\n    tag_151:\n        /* \"#utility.yul\":4460:4551   */\n      swap2\n      pop\n        /* \"#utility.yul\":4560:4653   */\n      tag_152\n        /* \"#utility.yul\":4649:4652   */\n      dup3\n        /* \"#utility.yul\":4560:4653   */\n      tag_104\n      jump\t// in\n    tag_152:\n        /* \"#utility.yul\":4678:4679   */\n      0x01\n        /* \"#utility.yul\":4673:4676   */\n      dup3\n        /* \"#utility.yul\":4669:4680   */\n      add\n        /* \"#utility.yul\":4662:4680   */\n      swap1\n      pop\n        /* \"#utility.yul\":4286:4686   */\n      swap2\n      swap1\n      pop\n      jump\t// out\n        /* \"#utility.yul\":4692:5819   */\n    tag_34:\n        /* \"#utility.yul\":5122:5125   */\n      0x00\n        /* \"#utility.yul\":5144:5239   */\n      tag_154\n        /* \"#utility.yul\":5235:5238   */\n      dup3\n        /* \"#utility.yul\":5226:5232   */\n      dup7\n        /* \"#utility.yul\":5144:5239   */\n      tag_103\n      jump\t// in\n    tag_154:\n        /* \"#utility.yul\":5137:5239   */\n      swap2\n      pop\n        /* \"#utility.yul\":5256:5404   */\n      tag_155\n        /* \"#utility.yul\":5400:5403   */\n      dup3\n        /* \"#utility.yul\":5256:5404   */\n      tag_105\n      jump\t// in\n    tag_155:\n        /* \"#utility.yul\":5249:5404   */\n      swap2\n      pop\n        /* \"#utility.yul\":5421:5516   */\n      tag_156\n        /* \"#utility.yul\":5512:5515   */\n      dup3\n        /* \"#utility.yul\":5503:5509   */\n      dup6\n        /* \"#utility.yul\":5421:5516   */\n      tag_103\n      jump\t// in\n    tag_156:\n        /* \"#utility.yul\":5414:5516   */\n      swap2\n      pop\n        /* \"#utility.yul\":5533:5681   */\n      tag_157\n        /* \"#utility.yul\":5677:5680   */\n      dup3\n        /* \"#utility.yul\":5533:5681   */\n      tag_105\n      jump\t// in\n    tag_157:\n        /* \"#utility.yul\":5526:5681   */\n      swap2\n      pop\n        /* \"#utility.yul\":5698:5793   */\n      tag_158\n        /* \"#utility.yul\":5789:5792   */\n      dup3\n        /* \"#utility.yul\":5780:5786   */\n      dup5\n        /* \"#utility.yul\":5698:5793   */\n      tag_103\n      jump\t// in\n    tag_158:\n        /* \"#utility.yul\":5691:5793   */\n      swap2\n      pop\n        /* \"#utility.yul\":5810:5813   */\n      dup2\n        /* \"#utility.yul\":5803:5813   */\n      swap1\n      pop\n        /* \"#utility.yul\":4692:5819   */\n      swap5\n      swap4\n      pop\n      pop\n      pop\n      pop\n      jump\t// out\n        /* \"#utility.yul\":5825:6058   */\n    tag_45:\n        /* \"#utility.yul\":5864:5867   */\n      0x00\n        /* \"#utility.yul\":5887:5911   */\n      tag_160\n        /* \"#utility.yul\":5905:5910   */\n      dup3\n        /* \"#utility.yul\":5887:5911   */\n      tag_91\n      jump\t// in\n    tag_160:\n        /* \"#utility.yul\":5878:5911   */\n      swap2\n      pop\n        /* \"#utility.yul\":5933:5999   */\n      0xffffffffffffffffffffffffffffffffffffffffffffffffffffffffffffffff\n        /* \"#utility.yul\":5926:5931   */\n      dup3\n        /* \"#utility.yul\":5923:6000   */\n      sub\n        /* \"#utility.yul\":5920:6023   */\n      tag_161\n      jumpi\n        /* \"#utility.yul\":6003:6021   */\n      tag_162\n      tag_100\n      jump\t// in\n    tag_162:\n        /* \"#utility.yul\":5920:6023   */\n    tag_161:\n        /* \"#utility.yul\":6050:6051   */\n      0x01\n        /* \"#utility.yul\":6043:6048   */\n      dup3\n        /* \"#utility.yul\":6039:6052   */\n      add\n        /* \"#utility.yul\":6032:6052   */\n      swap1\n      pop\n        /* \"#utility.yul\":5825:6058   */\n      swap2\n      swap1\n      pop\n      jump\t// out\n        /* \"#utility.yul\":6064:6244   */\n    tag_53:\n        /* \"#utility.yul\":6112:6189   */\n      0x4e487b7100000000000000000000000000000000000000000000000000000000\n        /* \"#utility.yul\":6109:6110   */\n      0x00\n        /* \"#utility.yul\":6102:6190   */\n      mstore\n        /* \"#utility.yul\":6209:6213   */\n      0x32\n        /* \"#utility.yul\":6206:6207   */\n      0x04\n        /* \"#utility.yul\":6199:6214   */\n      mstore\n        /* \"#utility.yul\":6233:6237   */\n      0x24\n        /* \"#utility.yul\":6230:6231   */\n      0x00\n        /* \"#utility.yul\":6223:6238   */\n      revert\n        /* \"#utility.yul\":6250:6441   */\n    tag_61:\n        /* \"#utility.yul\":6290:6293   */\n      0x00\n        /* \"#utility.yul\":6309:6329   */\n      tag_165\n        /* \"#utility.yul\":6327:6328   */\n      dup3\n        /* \"#utility.yul\":6309:6329   */\n      tag_91\n      jump\t// in\n    tag_165:\n        /* \"#utility.yul\":6304:6329   */\n      swap2\n      pop\n        /* \"#utility.yul\":6343:6363   */\n      tag_166\n        /* \"#utility.yul\":6361:6362   */\n      dup4\n        /* \"#utility.yul\":6343:6363   */\n      tag_91\n      jump\t// in\n    tag_166:\n        /* \"#utility.yul\":6338:6363   */\n      swap3\n      pop\n        /* \"#utility.yul\":6386:6387   */\n      dup3\n        /* \"#utility.yul\":6383:6384   */\n      dup3\n        /* \"#utility.yul\":6379:6388   */\n      add\n        /* \"#utility.yul\":6372:6388   */\n      swap1\n      pop\n        /* \"#utility.yul\":6407:6410   */\n      dup1\n        /* \"#utility.yul\":6404:6405   */\n      dup3\n        /* \"#utility.yul\":6401:6411   */\n      gt\n        /* \"#utility.yul\":6398:6434   */\n      iszero\n      tag_167\n      jumpi\n        /* \"#utility.yul\":6414:6432   */\n      tag_168\n      tag_100\n      jump\t// in\n    tag_168:\n        /* \"#utility.yul\":6398:6434   */\n    tag_167:\n        /* \"#utility.yul\":6250:6441   */\n      swap3\n      swap2\n      pop\n      pop\n      jump\t// out\n        /* \"#utility.yul\":6447:6627   */\n    tag_74:\n        /* \"#utility.yul\":6495:6572   */\n      0x4e487b7100000000000000000000000000000000000000000000000000000000\n        /* \"#utility.yul\":6492:6493   */\n      0x00\n        /* \"#utility.yul\":6485:6573   */\n      mstore\n        /* \"#utility.yul\":6592:6596   */\n      0x41\n        /* \"#utility.yul\":6589:6590   */\n      0x04\n        /* \"#utility.yul\":6582:6597   */\n      mstore\n        /* \"#utility.yul\":6616:6620   */\n      0x24\n        /* \"#utility.yul\":6613:6614   */\n      0x00\n        /* \"#utility.yul\":6606:6621   */\n      revert\n        /* \"#utility.yul\":6633:6809   */\n    tag_80:\n        /* \"#utility.yul\":6665:6666   */\n      0x00\n        /* \"#utility.yul\":6682:6702   */\n      tag_171\n        /* \"#utility.yul\":6700:6701   */\n      dup3\n        /* \"#utility.yul\":6682:6702   */\n      tag_91\n      jump\t// in\n    tag_171:\n        /* \"#utility.yul\":6677:6702   */\n      swap2\n      pop\n        /* \"#utility.yul\":6716:6736   */\n      tag_172\n        /* \"#utility.yul\":6734:6735   */\n      dup4\n        /* \"#utility.yul\":6716:6736   */\n      tag_91\n      jump\t// in\n    tag_172:\n        /* \"#utility.yul\":6711:6736   */\n      swap3\n      pop\n        /* \"#utility.yul\":6755:6756   */\n      dup3\n        /* \"#utility.yul\":6745:6780   */\n      tag_173\n      jumpi\n        /* \"#utility.yul\":6760:6778   */\n      tag_174\n      tag_101\n      jump\t// in\n    tag_174:\n        /* \"#utility.yul\":6745:6780   */\n    tag_173:\n        /* \"#utility.yul\":6801:6802   */\n      dup3\n        /* \"#utility.yul\":6798:6799   */\n      dup3\n        /* \"#utility.yul\":6794:6803   */\n      mod\n        /* \"#utility.yul\":6789:6803   */\n      swap1\n      pop\n        /* \"#utility.yul\":6633:6809   */\n      swap3\n      swap2\n      pop\n      pop\n      jump\t// out\n\n    auxdata: 0xa2646970667358221220d6a0be8f309e73d2dd658c700145adc64ecf8ad9ec0618d3bb826857e83f55f364736f6c634300081c0033\n}\n",
				"bytecode": {
					"linkReferences": {},
					"object": "6080604052348015600f57600080fd5b506109068061001f6000396000f3fe608060405234801561001057600080fd5b50600436106100415760003560e01c80631d261e4a1461004657806369f5717014610064578063bc8fa71914610082575b600080fd5b61004e6100a0565b60405161005b91906104d4565b60405180910390f35b61006c61010c565b604051610079919061057f565b60405180910390f35b61008a610173565b60405161009791906104d4565b60405180910390f35b600063495eaa804210156100e9576040517f08c379a00000000000000000000000000000000000000000000000000000000081526004016100e090610613565b60405180910390fd5b6201518063495eaa80426100fd9190610662565b61010791906106c5565b905090565b606060006101186100a0565b905060008060006101288461017b565b92509250925061013781610307565b61014083610307565b61014985610307565b60405160200161015b9392919061077e565b60405160208183030381529060405294505050505090565b600042905090565b60008060006107d992506000604051806101800160405280601f8152602001601c8152602001601f8152602001601e8152602001601f8152602001601e8152602001601f8152602001601f8152602001601e8152602001601f8152602001601e8152602001601f81525090505b61016d8510610250576101fa84610467565b1561022c5761016e85106102275761016e856102169190610662565b94508380610223906107c5565b9450505b61024b565b61016d8561023a9190610662565b94508380610247906107c5565b9450505b6101e8565b61025984610467565b1561027e57601d816001600c81106102745761027361080d565b5b6020020181815250505b60005b600c8110156102fe578181600c811061029d5761029c61080d565b5b60200201518610156102cc576001816102b6919061083c565b93506001866102c5919061083c565b92506102fe565b8181600c81106102df576102de61080d565b5b6020020151866102ef9190610662565b95508080600101915050610281565b50509193909250565b60606000820361034e576040518060400160405280600181526020017f30000000000000000000000000000000000000000000000000000000000000008152509050610462565b600082905060005b60008214610380578080610369906107c5565b915050600a8261037991906106c5565b9150610356565b60008167ffffffffffffffff81111561039c5761039b610870565b5b6040519080825280601f01601f1916602001820160405280156103ce5781602001600182028036833780820191505090505b5090505b6000851461045b576001826103e79190610662565b9150600a856103f6919061089f565b6030610402919061083c565b60f81b8183815181106104185761041761080d565b5b60200101907effffffffffffffffffffffffffffffffffffffffffffffffffffffffffffff1916908160001a905350600a8561045491906106c5565b94506103d2565b8093505050505b919050565b600080600483610477919061089f565b036104b157600060648361048b919061089f565b036104a8576000610190836104a0919061089f565b1490506104b6565b600190506104b6565b600090505b919050565b6000819050919050565b6104ce816104bb565b82525050565b60006020820190506104e960008301846104c5565b92915050565b600081519050919050565b600082825260208201905092915050565b60005b8381101561052957808201518184015260208101905061050e565b60008484015250505050565b6000601f19601f8301169050919050565b6000610551826104ef565b61055b81856104fa565b935061056b81856020860161050b565b61057481610535565b840191505092915050565b600060208201905081810360008301526105998184610546565b905092915050565b7f43757272656e742074696d65206973206265666f726520426974636f696e206360008201527f72656174696f6e2e000000000000000000000000000000000000000000000000602082015250565b60006105fd6028836104fa565b9150610608826105a1565b604082019050919050565b6000602082019050818103600083015261062c816105f0565b9050919050565b7f4e487b7100000000000000000000000000000000000000000000000000000000600052601160045260246000fd5b600061066d826104bb565b9150610678836104bb565b92508282039050818111156106905761068f610633565b5b92915050565b7f4e487b7100000000000000000000000000000000000000000000000000000000600052601260045260246000fd5b60006106d0826104bb565b91506106db836104bb565b9250826106eb576106ea610696565b5b828204905092915050565b600081905092915050565b600061070c826104ef565b61071681856106f6565b935061072681856020860161050b565b80840191505092915050565b7f2f00000000000000000000000000000000000000000000000000000000000000600082015250565b60006107686001836106f6565b915061077382610732565b600182019050919050565b600061078a8286610701565b91506107958261075b565b91506107a18285610701565b91506107ac8261075b565b91506107b88284610701565b9150819050949350505050565b60006107d0826104bb565b91507fffffffffffffffffffffffffffffffffffffffffffffffffffffffffffffffff820361080257610801610633565b5b600182019050919050565b7f4e487b7100000000000000000000000000000000000000000000000000000000600052603260045260246000fd5b6000610847826104bb565b9150610852836104bb565b925082820190508082111561086a57610869610633565b5b92915050565b7f4e487b7100000000000000000000000000000000000000000000000000000000600052604160045260246000fd5b60006108aa826104bb565b91506108b5836104bb565b9250826108c5576108c4610696565b5b82820690509291505056fea2646970667358221220d6a0be8f309e73d2dd658c700145adc64ecf8ad9ec0618d3bb826857e83f55f364736f6c634300081c0033",
					"opcodes": "PUSH1 0x80 PUSH1 0x40 MSTORE CALLVALUE DUP1 ISZERO PUSH1 0xF JUMPI PUSH1 0x0 DUP1 REVERT JUMPDEST POP PUSH2 0x906 DUP1 PUSH2 0x1F PUSH1 0x0 CODECOPY PUSH1 0x0 RETURN INVALID PUSH1 0x80 PUSH1 0x40 MSTORE CALLVALUE DUP1 ISZERO PUSH2 0x10 JUMPI PUSH1 0x0 DUP1 REVERT JUMPDEST POP PUSH1 0x4 CALLDATASIZE LT PUSH2 0x41 JUMPI PUSH1 0x0 CALLDATALOAD PUSH1 0xE0 SHR DUP1 PUSH4 0x1D261E4A EQ PUSH2 0x46 JUMPI DUP1 PUSH4 0x69F57170 EQ PUSH2 0x64 JUMPI DUP1 PUSH4 0xBC8FA719 EQ PUSH2 0x82 JUMPI JUMPDEST PUSH1 0x0 DUP1 REVERT JUMPDEST PUSH2 0x4E PUSH2 0xA0 JUMP JUMPDEST PUSH1 0x40 MLOAD PUSH2 0x5B SWAP2 SWAP1 PUSH2 0x4D4 JUMP JUMPDEST PUSH1 0x40 MLOAD DUP1 SWAP2 SUB SWAP1 RETURN JUMPDEST PUSH2 0x6C PUSH2 0x10C JUMP JUMPDEST PUSH1 0x40 MLOAD PUSH2 0x79 SWAP2 SWAP1 PUSH2 0x57F JUMP JUMPDEST PUSH1 0x40 MLOAD DUP1 SWAP2 SUB SWAP1 RETURN JUMPDEST PUSH2 0x8A PUSH2 0x173 JUMP JUMPDEST PUSH1 0x40 MLOAD PUSH2 0x97 SWAP2 SWAP1 PUSH2 0x4D4 JUMP JUMPDEST PUSH1 0x40 MLOAD DUP1 SWAP2 SUB SWAP1 RETURN JUMPDEST PUSH1 0x0 PUSH4 0x495EAA80 TIMESTAMP LT ISZERO PUSH2 0xE9 JUMPI PUSH1 0x40 MLOAD PUSH32 0x8C379A000000000000000000000000000000000000000000000000000000000 DUP2 MSTORE PUSH1 0x4 ADD PUSH2 0xE0 SWAP1 PUSH2 0x613 JUMP JUMPDEST PUSH1 0x40 MLOAD DUP1 SWAP2 SUB SWAP1 REVERT JUMPDEST PUSH3 0x15180 PUSH4 0x495EAA80 TIMESTAMP PUSH2 0xFD SWAP2 SWAP1 PUSH2 0x662 JUMP JUMPDEST PUSH2 0x107 SWAP2 SWAP1 PUSH2 0x6C5 JUMP JUMPDEST SWAP1 POP SWAP1 JUMP JUMPDEST PUSH1 0x60 PUSH1 0x0 PUSH2 0x118 PUSH2 0xA0 JUMP JUMPDEST SWAP1 POP PUSH1 0x0 DUP1 PUSH1 0x0 PUSH2 0x128 DUP5 PUSH2 0x17B JUMP JUMPDEST SWAP3 POP SWAP3 POP SWAP3 POP PUSH2 0x137 DUP2 PUSH2 0x307 JUMP JUMPDEST PUSH2 0x140 DUP4 PUSH2 0x307 JUMP JUMPDEST PUSH2 0x149 DUP6 PUSH2 0x307 JUMP JUMPDEST PUSH1 0x40 MLOAD PUSH1 0x20 ADD PUSH2 0x15B SWAP4 SWAP3 SWAP2 SWAP1 PUSH2 0x77E JUMP JUMPDEST PUSH1 0x40 MLOAD PUSH1 0x20 DUP2 DUP4 SUB SUB DUP2 MSTORE SWAP1 PUSH1 0x40 MSTORE SWAP5 POP POP POP POP POP SWAP1 JUMP JUMPDEST PUSH1 0x0 TIMESTAMP SWAP1 POP SWAP1 JUMP JUMPDEST PUSH1 0x0 DUP1 PUSH1 0x0 PUSH2 0x7D9 SWAP3 POP PUSH1 0x0 PUSH1 0x40 MLOAD DUP1 PUSH2 0x180 ADD PUSH1 0x40 MSTORE DUP1 PUSH1 0x1F DUP2 MSTORE PUSH1 0x20 ADD PUSH1 0x1C DUP2 MSTORE PUSH1 0x20 ADD PUSH1 0x1F DUP2 MSTORE PUSH1 0x20 ADD PUSH1 0x1E DUP2 MSTORE PUSH1 0x20 ADD PUSH1 0x1F DUP2 MSTORE PUSH1 0x20 ADD PUSH1 0x1E DUP2 MSTORE PUSH1 0x20 ADD PUSH1 0x1F DUP2 MSTORE PUSH1 0x20 ADD PUSH1 0x1F DUP2 MSTORE PUSH1 0x20 ADD PUSH1 0x1E DUP2 MSTORE PUSH1 0x20 ADD PUSH1 0x1F DUP2 MSTORE PUSH1 0x20 ADD PUSH1 0x1E DUP2 MSTORE PUSH1 0x20 ADD PUSH1 0x1F DUP2 MSTORE POP SWAP1 POP JUMPDEST PUSH2 0x16D DUP6 LT PUSH2 0x250 JUMPI PUSH2 0x1FA DUP5 PUSH2 0x467 JUMP JUMPDEST ISZERO PUSH2 0x22C JUMPI PUSH2 0x16E DUP6 LT PUSH2 0x227 JUMPI PUSH2 0x16E DUP6 PUSH2 0x216 SWAP2 SWAP1 PUSH2 0x662 JUMP JUMPDEST SWAP5 POP DUP4 DUP1 PUSH2 0x223 SWAP1 PUSH2 0x7C5 JUMP JUMPDEST SWAP5 POP POP JUMPDEST PUSH2 0x24B JUMP JUMPDEST PUSH2 0x16D DUP6 PUSH2 0x23A SWAP2 SWAP1 PUSH2 0x662 JUMP JUMPDEST SWAP5 POP DUP4 DUP1 PUSH2 0x247 SWAP1 PUSH2 0x7C5 JUMP JUMPDEST SWAP5 POP POP JUMPDEST PUSH2 0x1E8 JUMP JUMPDEST PUSH2 0x259 DUP5 PUSH2 0x467 JUMP JUMPDEST ISZERO PUSH2 0x27E JUMPI PUSH1 0x1D DUP2 PUSH1 0x1 PUSH1 0xC DUP2 LT PUSH2 0x274 JUMPI PUSH2 0x273 PUSH2 0x80D JUMP JUMPDEST JUMPDEST PUSH1 0x20 MUL ADD DUP2 DUP2 MSTORE POP POP JUMPDEST PUSH1 0x0 JUMPDEST PUSH1 0xC DUP2 LT ISZERO PUSH2 0x2FE JUMPI DUP2 DUP2 PUSH1 0xC DUP2 LT PUSH2 0x29D JUMPI PUSH2 0x29C PUSH2 0x80D JUMP JUMPDEST JUMPDEST PUSH1 0x20 MUL ADD MLOAD DUP7 LT ISZERO PUSH2 0x2CC JUMPI PUSH1 0x1 DUP2 PUSH2 0x2B6 SWAP2 SWAP1 PUSH2 0x83C JUMP JUMPDEST SWAP4 POP PUSH1 0x1 DUP7 PUSH2 0x2C5 SWAP2 SWAP1 PUSH2 0x83C JUMP JUMPDEST SWAP3 POP PUSH2 0x2FE JUMP JUMPDEST DUP2 DUP2 PUSH1 0xC DUP2 LT PUSH2 0x2DF JUMPI PUSH2 0x2DE PUSH2 0x80D JUMP JUMPDEST JUMPDEST PUSH1 0x20 MUL ADD MLOAD DUP7 PUSH2 0x2EF SWAP2 SWAP1 PUSH2 0x662 JUMP JUMPDEST SWAP6 POP DUP1 DUP1 PUSH1 0x1 ADD SWAP2 POP POP PUSH2 0x281 JUMP JUMPDEST POP POP SWAP2 SWAP4 SWAP1 SWAP3 POP JUMP JUMPDEST PUSH1 0x60 PUSH1 0x0 DUP3 SUB PUSH2 0x34E JUMPI PUSH1 0x40 MLOAD DUP1 PUSH1 0x40 ADD PUSH1 0x40 MSTORE DUP1 PUSH1 0x1 DUP2 MSTORE PUSH1 0x20 ADD PUSH32 0x3000000000000000000000000000000000000000000000000000000000000000 DUP2 MSTORE POP SWAP1 POP PUSH2 0x462 JUMP JUMPDEST PUSH1 0x0 DUP3 SWAP1 POP PUSH1 0x0 JUMPDEST PUSH1 0x0 DUP3 EQ PUSH2 0x380 JUMPI DUP1 DUP1 PUSH2 0x369 SWAP1 PUSH2 0x7C5 JUMP JUMPDEST SWAP2 POP POP PUSH1 0xA DUP3 PUSH2 0x379 SWAP2 SWAP1 PUSH2 0x6C5 JUMP JUMPDEST SWAP2 POP PUSH2 0x356 JUMP JUMPDEST PUSH1 0x0 DUP2 PUSH8 0xFFFFFFFFFFFFFFFF DUP2 GT ISZERO PUSH2 0x39C JUMPI PUSH2 0x39B PUSH2 0x870 JUMP JUMPDEST JUMPDEST PUSH1 0x40 MLOAD SWAP1 DUP1 DUP3 MSTORE DUP1 PUSH1 0x1F ADD PUSH1 0x1F NOT AND PUSH1 0x20 ADD DUP3 ADD PUSH1 0x40 MSTORE DUP1 ISZERO PUSH2 0x3CE JUMPI DUP2 PUSH1 0x20 ADD PUSH1 0x1 DUP3 MUL DUP1 CALLDATASIZE DUP4 CALLDATACOPY DUP1 DUP3 ADD SWAP2 POP POP SWAP1 POP JUMPDEST POP SWAP1 POP JUMPDEST PUSH1 0x0 DUP6 EQ PUSH2 0x45B JUMPI PUSH1 0x1 DUP3 PUSH2 0x3E7 SWAP2 SWAP1 PUSH2 0x662 JUMP JUMPDEST SWAP2 POP PUSH1 0xA DUP6 PUSH2 0x3F6 SWAP2 SWAP1 PUSH2 0x89F JUMP JUMPDEST PUSH1 0x30 PUSH2 0x402 SWAP2 SWAP1 PUSH2 0x83C JUMP JUMPDEST PUSH1 0xF8 SHL DUP2 DUP4 DUP2 MLOAD DUP2 LT PUSH2 0x418 JUMPI PUSH2 0x417 PUSH2 0x80D JUMP JUMPDEST JUMPDEST PUSH1 0x20 ADD ADD SWAP1 PUSH31 0xFFFFFFFFFFFFFFFFFFFFFFFFFFFFFFFFFFFFFFFFFFFFFFFFFFFFFFFFFFFFFF NOT AND SWAP1 DUP2 PUSH1 0x0 BYTE SWAP1 MSTORE8 POP PUSH1 0xA DUP6 PUSH2 0x454 SWAP2 SWAP1 PUSH2 0x6C5 JUMP JUMPDEST SWAP5 POP PUSH2 0x3D2 JUMP JUMPDEST DUP1 SWAP4 POP POP POP POP JUMPDEST SWAP2 SWAP1 POP JUMP JUMPDEST PUSH1 0x0 DUP1 PUSH1 0x4 DUP4 PUSH2 0x477 SWAP2 SWAP1 PUSH2 0x89F JUMP JUMPDEST SUB PUSH2 0x4B1 JUMPI PUSH1 0x0 PUSH1 0x64 DUP4 PUSH2 0x48B SWAP2 SWAP1 PUSH2 0x89F JUMP JUMPDEST SUB PUSH2 0x4A8 JUMPI PUSH1 0x0 PUSH2 0x190 DUP4 PUSH2 0x4A0 SWAP2 SWAP1 PUSH2 0x89F JUMP JUMPDEST EQ SWAP1 POP PUSH2 0x4B6 JUMP JUMPDEST PUSH1 0x1 SWAP1 POP PUSH2 0x4B6 JUMP JUMPDEST PUSH1 0x0 SWAP1 POP JUMPDEST SWAP2 SWAP1 POP JUMP JUMPDEST PUSH1 0x0 DUP2 SWAP1 POP SWAP2 SWAP1 POP JUMP JUMPDEST PUSH2 0x4CE DUP2 PUSH2 0x4BB JUMP JUMPDEST DUP3 MSTORE POP POP JUMP JUMPDEST PUSH1 0x0 PUSH1 0x20 DUP3 ADD SWAP1 POP PUSH2 0x4E9 PUSH1 0x0 DUP4 ADD DUP5 PUSH2 0x4C5 JUMP JUMPDEST SWAP3 SWAP2 POP POP JUMP JUMPDEST PUSH1 0x0 DUP2 MLOAD SWAP1 POP SWAP2 SWAP1 POP JUMP JUMPDEST PUSH1 0x0 DUP3 DUP3 MSTORE PUSH1 0x20 DUP3 ADD SWAP1 POP SWAP3 SWAP2 POP POP JUMP JUMPDEST PUSH1 0x0 JUMPDEST DUP4 DUP2 LT ISZERO PUSH2 0x529 JUMPI DUP1 DUP3 ADD MLOAD DUP2 DUP5 ADD MSTORE PUSH1 0x20 DUP2 ADD SWAP1 POP PUSH2 0x50E JUMP JUMPDEST PUSH1 0x0 DUP5 DUP5 ADD MSTORE POP POP POP POP JUMP JUMPDEST PUSH1 0x0 PUSH1 0x1F NOT PUSH1 0x1F DUP4 ADD AND SWAP1 POP SWAP2 SWAP1 POP JUMP JUMPDEST PUSH1 0x0 PUSH2 0x551 DUP3 PUSH2 0x4EF JUMP JUMPDEST PUSH2 0x55B DUP2 DUP6 PUSH2 0x4FA JUMP JUMPDEST SWAP4 POP PUSH2 0x56B DUP2 DUP6 PUSH1 0x20 DUP7 ADD PUSH2 0x50B JUMP JUMPDEST PUSH2 0x574 DUP2 PUSH2 0x535 JUMP JUMPDEST DUP5 ADD SWAP2 POP POP SWAP3 SWAP2 POP POP JUMP JUMPDEST PUSH1 0x0 PUSH1 0x20 DUP3 ADD SWAP1 POP DUP2 DUP2 SUB PUSH1 0x0 DUP4 ADD MSTORE PUSH2 0x599 DUP2 DUP5 PUSH2 0x546 JUMP JUMPDEST SWAP1 POP SWAP3 SWAP2 POP POP JUMP JUMPDEST PUSH32 0x43757272656E742074696D65206973206265666F726520426974636F696E2063 PUSH1 0x0 DUP3 ADD MSTORE PUSH32 0x72656174696F6E2E000000000000000000000000000000000000000000000000 PUSH1 0x20 DUP3 ADD MSTORE POP JUMP JUMPDEST PUSH1 0x0 PUSH2 0x5FD PUSH1 0x28 DUP4 PUSH2 0x4FA JUMP JUMPDEST SWAP2 POP PUSH2 0x608 DUP3 PUSH2 0x5A1 JUMP JUMPDEST PUSH1 0x40 DUP3 ADD SWAP1 POP SWAP2 SWAP1 POP JUMP JUMPDEST PUSH1 0x0 PUSH1 0x20 DUP3 ADD SWAP1 POP DUP2 DUP2 SUB PUSH1 0x0 DUP4 ADD MSTORE PUSH2 0x62C DUP2 PUSH2 0x5F0 JUMP JUMPDEST SWAP1 POP SWAP2 SWAP1 POP JUMP JUMPDEST PUSH32 0x4E487B7100000000000000000000000000000000000000000000000000000000 PUSH1 0x0 MSTORE PUSH1 0x11 PUSH1 0x4 MSTORE PUSH1 0x24 PUSH1 0x0 REVERT JUMPDEST PUSH1 0x0 PUSH2 0x66D DUP3 PUSH2 0x4BB JUMP JUMPDEST SWAP2 POP PUSH2 0x678 DUP4 PUSH2 0x4BB JUMP JUMPDEST SWAP3 POP DUP3 DUP3 SUB SWAP1 POP DUP2 DUP2 GT ISZERO PUSH2 0x690 JUMPI PUSH2 0x68F PUSH2 0x633 JUMP JUMPDEST JUMPDEST SWAP3 SWAP2 POP POP JUMP JUMPDEST PUSH32 0x4E487B7100000000000000000000000000000000000000000000000000000000 PUSH1 0x0 MSTORE PUSH1 0x12 PUSH1 0x4 MSTORE PUSH1 0x24 PUSH1 0x0 REVERT JUMPDEST PUSH1 0x0 PUSH2 0x6D0 DUP3 PUSH2 0x4BB JUMP JUMPDEST SWAP2 POP PUSH2 0x6DB DUP4 PUSH2 0x4BB JUMP JUMPDEST SWAP3 POP DUP3 PUSH2 0x6EB JUMPI PUSH2 0x6EA PUSH2 0x696 JUMP JUMPDEST JUMPDEST DUP3 DUP3 DIV SWAP1 POP SWAP3 SWAP2 POP POP JUMP JUMPDEST PUSH1 0x0 DUP2 SWAP1 POP SWAP3 SWAP2 POP POP JUMP JUMPDEST PUSH1 0x0 PUSH2 0x70C DUP3 PUSH2 0x4EF JUMP JUMPDEST PUSH2 0x716 DUP2 DUP6 PUSH2 0x6F6 JUMP JUMPDEST SWAP4 POP PUSH2 0x726 DUP2 DUP6 PUSH1 0x20 DUP7 ADD PUSH2 0x50B JUMP JUMPDEST DUP1 DUP5 ADD SWAP2 POP POP SWAP3 SWAP2 POP POP JUMP JUMPDEST PUSH32 0x2F00000000000000000000000000000000000000000000000000000000000000 PUSH1 0x0 DUP3 ADD MSTORE POP JUMP JUMPDEST PUSH1 0x0 PUSH2 0x768 PUSH1 0x1 DUP4 PUSH2 0x6F6 JUMP JUMPDEST SWAP2 POP PUSH2 0x773 DUP3 PUSH2 0x732 JUMP JUMPDEST PUSH1 0x1 DUP3 ADD SWAP1 POP SWAP2 SWAP1 POP JUMP JUMPDEST PUSH1 0x0 PUSH2 0x78A DUP3 DUP7 PUSH2 0x701 JUMP JUMPDEST SWAP2 POP PUSH2 0x795 DUP3 PUSH2 0x75B JUMP JUMPDEST SWAP2 POP PUSH2 0x7A1 DUP3 DUP6 PUSH2 0x701 JUMP JUMPDEST SWAP2 POP PUSH2 0x7AC DUP3 PUSH2 0x75B JUMP JUMPDEST SWAP2 POP PUSH2 0x7B8 DUP3 DUP5 PUSH2 0x701 JUMP JUMPDEST SWAP2 POP DUP2 SWAP1 POP SWAP5 SWAP4 POP POP POP POP JUMP JUMPDEST PUSH1 0x0 PUSH2 0x7D0 DUP3 PUSH2 0x4BB JUMP JUMPDEST SWAP2 POP PUSH32 0xFFFFFFFFFFFFFFFFFFFFFFFFFFFFFFFFFFFFFFFFFFFFFFFFFFFFFFFFFFFFFFFF DUP3 SUB PUSH2 0x802 JUMPI PUSH2 0x801 PUSH2 0x633 JUMP JUMPDEST JUMPDEST PUSH1 0x1 DUP3 ADD SWAP1 POP SWAP2 SWAP1 POP JUMP JUMPDEST PUSH32 0x4E487B7100000000000000000000000000000000000000000000000000000000 PUSH1 0x0 MSTORE PUSH1 0x32 PUSH1 0x4 MSTORE PUSH1 0x24 PUSH1 0x0 REVERT JUMPDEST PUSH1 0x0 PUSH2 0x847 DUP3 PUSH2 0x4BB JUMP JUMPDEST SWAP2 POP PUSH2 0x852 DUP4 PUSH2 0x4BB JUMP JUMPDEST SWAP3 POP DUP3 DUP3 ADD SWAP1 POP DUP1 DUP3 GT ISZERO PUSH2 0x86A JUMPI PUSH2 0x869 PUSH2 0x633 JUMP JUMPDEST JUMPDEST SWAP3 SWAP2 POP POP JUMP JUMPDEST PUSH32 0x4E487B7100000000000000000000000000000000000000000000000000000000 PUSH1 0x0 MSTORE PUSH1 0x41 PUSH1 0x4 MSTORE PUSH1 0x24 PUSH1 0x0 REVERT JUMPDEST PUSH1 0x0 PUSH2 0x8AA DUP3 PUSH2 0x4BB JUMP JUMPDEST SWAP2 POP PUSH2 0x8B5 DUP4 PUSH2 0x4BB JUMP JUMPDEST SWAP3 POP DUP3 PUSH2 0x8C5 JUMPI PUSH2 0x8C4 PUSH2 0x696 JUMP JUMPDEST JUMPDEST DUP3 DUP3 MOD SWAP1 POP SWAP3 SWAP2 POP POP JUMP INVALID LOG2 PUSH5 0x6970667358 0x22 SLT KECCAK256 0xD6 LOG0 0xBE DUP16 ADDRESS SWAP15 PUSH20 0xD2DD658C700145ADC64ECF8AD9EC0618D3BB8268 JUMPI 0xE8 EXTCODEHASH SSTORE RETURN PUSH5 0x736F6C6343 STOP ADDMOD SHR STOP CALLER "
				},
				"gasEstimates": {
					"creation": {
						"codeDepositCost": "462000",
						"executionCost": "499",
						"totalCost": "462499"
					},
					"external": {
						"getDaysSinceOrigin()": "infinite",
						"getSecondsSinceOrigin()": "358",
						"getThedate()": "infinite"
					},
					"internal": {
						"_calculateDate(uint256)": "infinite",
						"_isLeapYear(uint256)": "infinite",
						"uintToString(uint256)": "infinite"
					}
				},
				"methodIdentifiers": {
					"getDaysSinceOrigin()": "1d261e4a",
					"getSecondsSinceOrigin()": "bc8fa719",
					"getThedate()": "69f57170"
				}
			},
			"storageLayout": {
				"storage": [],
				"types": null
			},
			"userdoc": {
				"kind": "user",
				"methods": {
					"getDaysSinceOrigin()": {
						"notice": "Calcule le nombre de jours écoulés depuis la création de Bitcoin"
					},
					"getSecondsSinceOrigin()": {
						"notice": "Retourne le timestamp actuel en secondes"
					},
					"getThedate()": {
						"notice": "Retourne une chaîne de caractères indiquant la date en jours/mois/année depuis Bitcoin creation"
					}
				},
				"version": 1
			}
		}
	}
}