{
	"data": {
		"bytecode": {
			"linkReferences": {},
			"object": "6080604052348015600f57600080fd5b5061091e8061001f6000396000f3fe608060405234801561001057600080fd5b50600436106100415760003560e01c80631d261e4a1461004657806369f5717014610064578063bc8fa71914610082575b600080fd5b61004e6100a0565b60405161005b91906104ec565b60405180910390f35b61006c61010c565b6040516100799190610597565b60405180910390f35b61008a610173565b60405161009791906104ec565b60405180910390f35b600063495eaa804210156100e9576040517f08c379a00000000000000000000000000000000000000000000000000000000081526004016100e09061062b565b60405180910390fd5b6201518063495eaa80426100fd919061067a565b61010791906106dd565b905090565b606060006101186100a0565b905060008060006101288461017b565b9250925092506101378161031f565b6101408361031f565b6101498561031f565b60405160200161015b93929190610796565b60405160208183030381529060405294505050505090565b600042905090565b60008060008092506000604051806101800160405280601f8152602001601c8152602001601f8152602001601e8152602001601f8152602001601e8152602001601f8152602001601f8152602001601e8152602001601f8152602001601e8152602001601f81525090505b61016d851061025b57610205846107d961020091906107dd565b61047f565b156102375761016e85106102325761016e85610221919061067a565b9450838061022e90610811565b9450505b610256565b61016d85610245919061067a565b9450838061025290610811565b9450505b6101e6565b610271846107d961026c91906107dd565b61047f565b1561029657601d816001600c811061028c5761028b610859565b5b6020020181815250505b60005b600c811015610316578181600c81106102b5576102b4610859565b5b60200201518610156102e4576001816102ce91906107dd565b93506001866102dd91906107dd565b9250610316565b8181600c81106102f7576102f6610859565b5b602002015186610307919061067a565b95508080600101915050610299565b50509193909250565b606060008203610366576040518060400160405280600181526020017f3000000000000000000000000000000000000000000000000000000000000000815250905061047a565b600082905060005b6000821461039857808061038190610811565b915050600a8261039191906106dd565b915061036e565b60008167ffffffffffffffff8111156103b4576103b3610888565b5b6040519080825280601f01601f1916602001820160405280156103e65781602001600182028036833780820191505090505b5090505b60008514610473576001826103ff919061067a565b9150600a8561040e91906108b7565b603061041a91906107dd565b60f81b8183815181106104305761042f610859565b5b60200101907effffffffffffffffffffffffffffffffffffffffffffffffffffffffffffff1916908160001a905350600a8561046c91906106dd565b94506103ea565b8093505050505b919050565b60008060048361048f91906108b7565b036104c95760006064836104a391906108b7565b036104c0576000610190836104b891906108b7565b1490506104ce565b600190506104ce565b600090505b919050565b6000819050919050565b6104e6816104d3565b82525050565b600060208201905061050160008301846104dd565b92915050565b600081519050919050565b600082825260208201905092915050565b60005b83811015610541578082015181840152602081019050610526565b60008484015250505050565b6000601f19601f8301169050919050565b600061056982610507565b6105738185610512565b9350610583818560208601610523565b61058c8161054d565b840191505092915050565b600060208201905081810360008301526105b1818461055e565b905092915050565b7f43757272656e742074696d65206973206265666f726520426974636f696e206360008201527f72656174696f6e2e000000000000000000000000000000000000000000000000602082015250565b6000610615602883610512565b9150610620826105b9565b604082019050919050565b6000602082019050818103600083015261064481610608565b9050919050565b7f4e487b7100000000000000000000000000000000000000000000000000000000600052601160045260246000fd5b6000610685826104d3565b9150610690836104d3565b92508282039050818111156106a8576106a761064b565b5b92915050565b7f4e487b7100000000000000000000000000000000000000000000000000000000600052601260045260246000fd5b60006106e8826104d3565b91506106f3836104d3565b925082610703576107026106ae565b5b828204905092915050565b600081905092915050565b600061072482610507565b61072e818561070e565b935061073e818560208601610523565b80840191505092915050565b7f2f00000000000000000000000000000000000000000000000000000000000000600082015250565b600061078060018361070e565b915061078b8261074a565b600182019050919050565b60006107a28286610719565b91506107ad82610773565b91506107b98285610719565b91506107c482610773565b91506107d08284610719565b9150819050949350505050565b60006107e8826104d3565b91506107f3836104d3565b925082820190508082111561080b5761080a61064b565b5b92915050565b600061081c826104d3565b91507fffffffffffffffffffffffffffffffffffffffffffffffffffffffffffffffff820361084e5761084d61064b565b5b600182019050919050565b7f4e487b7100000000000000000000000000000000000000000000000000000000600052603260045260246000fd5b7f4e487b7100000000000000000000000000000000000000000000000000000000600052604160045260246000fd5b60006108c2826104d3565b91506108cd836104d3565b9250826108dd576108dc6106ae565b5b82820690509291505056fea264697066735822122045685ae0eb041b3e11b15e558d575e1799cf177e73f368ce8736fdcf02f9ee8164736f6c634300081c0033",
			"opcodes": "PUSH1 0x80 PUSH1 0x40 MSTORE CALLVALUE DUP1 ISZERO PUSH1 0xF JUMPI PUSH1 0x0 DUP1 REVERT JUMPDEST POP PUSH2 0x91E DUP1 PUSH2 0x1F PUSH1 0x0 CODECOPY PUSH1 0x0 RETURN INVALID PUSH1 0x80 PUSH1 0x40 MSTORE CALLVALUE DUP1 ISZERO PUSH2 0x10 JUMPI PUSH1 0x0 DUP1 REVERT JUMPDEST POP PUSH1 0x4 CALLDATASIZE LT PUSH2 0x41 JUMPI PUSH1 0x0 CALLDATALOAD PUSH1 0xE0 SHR DUP1 PUSH4 0x1D261E4A EQ PUSH2 0x46 JUMPI DUP1 PUSH4 0x69F57170 EQ PUSH2 0x64 JUMPI DUP1 PUSH4 0xBC8FA719 EQ PUSH2 0x82 JUMPI JUMPDEST PUSH1 0x0 DUP1 REVERT JUMPDEST PUSH2 0x4E PUSH2 0xA0 JUMP JUMPDEST PUSH1 0x40 MLOAD PUSH2 0x5B SWAP2 SWAP1 PUSH2 0x4EC JUMP JUMPDEST PUSH1 0x40 MLOAD DUP1 SWAP2 SUB SWAP1 RETURN JUMPDEST PUSH2 0x6C PUSH2 0x10C JUMP JUMPDEST PUSH1 0x40 MLOAD PUSH2 0x79 SWAP2 SWAP1 PUSH2 0x597 JUMP JUMPDEST PUSH1 0x40 MLOAD DUP1 SWAP2 SUB SWAP1 RETURN JUMPDEST PUSH2 0x8A PUSH2 0x173 JUMP JUMPDEST PUSH1 0x40 MLOAD PUSH2 0x97 SWAP2 SWAP1 PUSH2 0x4EC JUMP JUMPDEST PUSH1 0x40 MLOAD DUP1 SWAP2 SUB SWAP1 RETURN JUMPDEST PUSH1 0x0 PUSH4 0x495EAA80 TIMESTAMP LT ISZERO PUSH2 0xE9 JUMPI PUSH1 0x40 MLOAD PUSH32 0x8C379A000000000000000000000000000000000000000000000000000000000 DUP2 MSTORE PUSH1 0x4 ADD PUSH2 0xE0 SWAP1 PUSH2 0x62B JUMP JUMPDEST PUSH1 0x40 MLOAD DUP1 SWAP2 SUB SWAP1 REVERT JUMPDEST PUSH3 0x15180 PUSH4 0x495EAA80 TIMESTAMP PUSH2 0xFD SWAP2 SWAP1 PUSH2 0x67A JUMP JUMPDEST PUSH2 0x107 SWAP2 SWAP1 PUSH2 0x6DD JUMP JUMPDEST SWAP1 POP SWAP1 JUMP JUMPDEST PUSH1 0x60 PUSH1 0x0 PUSH2 0x118 PUSH2 0xA0 JUMP JUMPDEST SWAP1 POP PUSH1 0x0 DUP1 PUSH1 0x0 PUSH2 0x128 DUP5 PUSH2 0x17B JUMP JUMPDEST SWAP3 POP SWAP3 POP SWAP3 POP PUSH2 0x137 DUP2 PUSH2 0x31F JUMP JUMPDEST PUSH2 0x140 DUP4 PUSH2 0x31F JUMP JUMPDEST PUSH2 0x149 DUP6 PUSH2 0x31F JUMP JUMPDEST PUSH1 0x40 MLOAD PUSH1 0x20 ADD PUSH2 0x15B SWAP4 SWAP3 SWAP2 SWAP1 PUSH2 0x796 JUMP JUMPDEST PUSH1 0x40 MLOAD PUSH1 0x20 DUP2 DUP4 SUB SUB DUP2 MSTORE SWAP1 PUSH1 0x40 MSTORE SWAP5 POP POP POP POP POP SWAP1 JUMP JUMPDEST PUSH1 0x0 TIMESTAMP SWAP1 POP SWAP1 JUMP JUMPDEST PUSH1 0x0 DUP1 PUSH1 0x0 DUP1 SWAP3 POP PUSH1 0x0 PUSH1 0x40 MLOAD DUP1 PUSH2 0x180 ADD PUSH1 0x40 MSTORE DUP1 PUSH1 0x1F DUP2 MSTORE PUSH1 0x20 ADD PUSH1 0x1C DUP2 MSTORE PUSH1 0x20 ADD PUSH1 0x1F DUP2 MSTORE PUSH1 0x20 ADD PUSH1 0x1E DUP2 MSTORE PUSH1 0x20 ADD PUSH1 0x1F DUP2 MSTORE PUSH1 0x20 ADD PUSH1 0x1E DUP2 MSTORE PUSH1 0x20 ADD PUSH1 0x1F DUP2 MSTORE PUSH1 0x20 ADD PUSH1 0x1F DUP2 MSTORE PUSH1 0x20 ADD PUSH1 0x1E DUP2 MSTORE PUSH1 0x20 ADD PUSH1 0x1F DUP2 MSTORE PUSH1 0x20 ADD PUSH1 0x1E DUP2 MSTORE PUSH1 0x20 ADD PUSH1 0x1F DUP2 MSTORE POP SWAP1 POP JUMPDEST PUSH2 0x16D DUP6 LT PUSH2 0x25B JUMPI PUSH2 0x205 DUP5 PUSH2 0x7D9 PUSH2 0x200 SWAP2 SWAP1 PUSH2 0x7DD JUMP JUMPDEST PUSH2 0x47F JUMP JUMPDEST ISZERO PUSH2 0x237 JUMPI PUSH2 0x16E DUP6 LT PUSH2 0x232 JUMPI PUSH2 0x16E DUP6 PUSH2 0x221 SWAP2 SWAP1 PUSH2 0x67A JUMP JUMPDEST SWAP5 POP DUP4 DUP1 PUSH2 0x22E SWAP1 PUSH2 0x811 JUMP JUMPDEST SWAP5 POP POP JUMPDEST PUSH2 0x256 JUMP JUMPDEST PUSH2 0x16D DUP6 PUSH2 0x245 SWAP2 SWAP1 PUSH2 0x67A JUMP JUMPDEST SWAP5 POP DUP4 DUP1 PUSH2 0x252 SWAP1 PUSH2 0x811 JUMP JUMPDEST SWAP5 POP POP JUMPDEST PUSH2 0x1E6 JUMP JUMPDEST PUSH2 0x271 DUP5 PUSH2 0x7D9 PUSH2 0x26C SWAP2 SWAP1 PUSH2 0x7DD JUMP JUMPDEST PUSH2 0x47F JUMP JUMPDEST ISZERO PUSH2 0x296 JUMPI PUSH1 0x1D DUP2 PUSH1 0x1 PUSH1 0xC DUP2 LT PUSH2 0x28C JUMPI PUSH2 0x28B PUSH2 0x859 JUMP JUMPDEST JUMPDEST PUSH1 0x20 MUL ADD DUP2 DUP2 MSTORE POP POP JUMPDEST PUSH1 0x0 JUMPDEST PUSH1 0xC DUP2 LT ISZERO PUSH2 0x316 JUMPI DUP2 DUP2 PUSH1 0xC DUP2 LT PUSH2 0x2B5 JUMPI PUSH2 0x2B4 PUSH2 0x859 JUMP JUMPDEST JUMPDEST PUSH1 0x20 MUL ADD MLOAD DUP7 LT ISZERO PUSH2 0x2E4 JUMPI PUSH1 0x1 DUP2 PUSH2 0x2CE SWAP2 SWAP1 PUSH2 0x7DD JUMP JUMPDEST SWAP4 POP PUSH1 0x1 DUP7 PUSH2 0x2DD SWAP2 SWAP1 PUSH2 0x7DD JUMP JUMPDEST SWAP3 POP PUSH2 0x316 JUMP JUMPDEST DUP2 DUP2 PUSH1 0xC DUP2 LT PUSH2 0x2F7 JUMPI PUSH2 0x2F6 PUSH2 0x859 JUMP JUMPDEST JUMPDEST PUSH1 0x20 MUL ADD MLOAD DUP7 PUSH2 0x307 SWAP2 SWAP1 PUSH2 0x67A JUMP JUMPDEST SWAP6 POP DUP1 DUP1 PUSH1 0x1 ADD SWAP2 POP POP PUSH2 0x299 JUMP JUMPDEST POP POP SWAP2 SWAP4 SWAP1 SWAP3 POP JUMP JUMPDEST PUSH1 0x60 PUSH1 0x0 DUP3 SUB PUSH2 0x366 JUMPI PUSH1 0x40 MLOAD DUP1 PUSH1 0x40 ADD PUSH1 0x40 MSTORE DUP1 PUSH1 0x1 DUP2 MSTORE PUSH1 0x20 ADD PUSH32 0x3000000000000000000000000000000000000000000000000000000000000000 DUP2 MSTORE POP SWAP1 POP PUSH2 0x47A JUMP JUMPDEST PUSH1 0x0 DUP3 SWAP1 POP PUSH1 0x0 JUMPDEST PUSH1 0x0 DUP3 EQ PUSH2 0x398 JUMPI DUP1 DUP1 PUSH2 0x381 SWAP1 PUSH2 0x811 JUMP JUMPDEST SWAP2 POP POP PUSH1 0xA DUP3 PUSH2 0x391 SWAP2 SWAP1 PUSH2 0x6DD JUMP JUMPDEST SWAP2 POP PUSH2 0x36E JUMP JUMPDEST PUSH1 0x0 DUP2 PUSH8 0xFFFFFFFFFFFFFFFF DUP2 GT ISZERO PUSH2 0x3B4 JUMPI PUSH2 0x3B3 PUSH2 0x888 JUMP JUMPDEST JUMPDEST PUSH1 0x40 MLOAD SWAP1 DUP1 DUP3 MSTORE DUP1 PUSH1 0x1F ADD PUSH1 0x1F NOT AND PUSH1 0x20 ADD DUP3 ADD PUSH1 0x40 MSTORE DUP1 ISZERO PUSH2 0x3E6 JUMPI DUP2 PUSH1 0x20 ADD PUSH1 0x1 DUP3 MUL DUP1 CALLDATASIZE DUP4 CALLDATACOPY DUP1 DUP3 ADD SWAP2 POP POP SWAP1 POP JUMPDEST POP SWAP1 POP JUMPDEST PUSH1 0x0 DUP6 EQ PUSH2 0x473 JUMPI PUSH1 0x1 DUP3 PUSH2 0x3FF SWAP2 SWAP1 PUSH2 0x67A JUMP JUMPDEST SWAP2 POP PUSH1 0xA DUP6 PUSH2 0x40E SWAP2 SWAP1 PUSH2 0x8B7 JUMP JUMPDEST PUSH1 0x30 PUSH2 0x41A SWAP2 SWAP1 PUSH2 0x7DD JUMP JUMPDEST PUSH1 0xF8 SHL DUP2 DUP4 DUP2 MLOAD DUP2 LT PUSH2 0x430 JUMPI PUSH2 0x42F PUSH2 0x859 JUMP JUMPDEST JUMPDEST PUSH1 0x20 ADD ADD SWAP1 PUSH31 0xFFFFFFFFFFFFFFFFFFFFFFFFFFFFFFFFFFFFFFFFFFFFFFFFFFFFFFFFFFFFFF NOT AND SWAP1 DUP2 PUSH1 0x0 BYTE SWAP1 MSTORE8 POP PUSH1 0xA DUP6 PUSH2 0x46C SWAP2 SWAP1 PUSH2 0x6DD JUMP JUMPDEST SWAP5 POP PUSH2 0x3EA JUMP JUMPDEST DUP1 SWAP4 POP POP POP POP JUMPDEST SWAP2 SWAP1 POP JUMP JUMPDEST PUSH1 0x0 DUP1 PUSH1 0x4 DUP4 PUSH2 0x48F SWAP2 SWAP1 PUSH2 0x8B7 JUMP JUMPDEST SUB PUSH2 0x4C9 JUMPI PUSH1 0x0 PUSH1 0x64 DUP4 PUSH2 0x4A3 SWAP2 SWAP1 PUSH2 0x8B7 JUMP JUMPDEST SUB PUSH2 0x4C0 JUMPI PUSH1 0x0 PUSH2 0x190 DUP4 PUSH2 0x4B8 SWAP2 SWAP1 PUSH2 0x8B7 JUMP JUMPDEST EQ SWAP1 POP PUSH2 0x4CE JUMP JUMPDEST PUSH1 0x1 SWAP1 POP PUSH2 0x4CE JUMP JUMPDEST PUSH1 0x0 SWAP1 POP JUMPDEST SWAP2 SWAP1 POP JUMP JUMPDEST PUSH1 0x0 DUP2 SWAP1 POP SWAP2 SWAP1 POP JUMP JUMPDEST PUSH2 0x4E6 DUP2 PUSH2 0x4D3 JUMP JUMPDEST DUP3 MSTORE POP POP JUMP JUMPDEST PUSH1 0x0 PUSH1 0x20 DUP3 ADD SWAP1 POP PUSH2 0x501 PUSH1 0x0 DUP4 ADD DUP5 PUSH2 0x4DD JUMP JUMPDEST SWAP3 SWAP2 POP POP JUMP JUMPDEST PUSH1 0x0 DUP2 MLOAD SWAP1 POP SWAP2 SWAP1 POP JUMP JUMPDEST PUSH1 0x0 DUP3 DUP3 MSTORE PUSH1 0x20 DUP3 ADD SWAP1 POP SWAP3 SWAP2 POP POP JUMP JUMPDEST PUSH1 0x0 JUMPDEST DUP4 DUP2 LT ISZERO PUSH2 0x541 JUMPI DUP1 DUP3 ADD MLOAD DUP2 DUP5 ADD MSTORE PUSH1 0x20 DUP2 ADD SWAP1 POP PUSH2 0x526 JUMP JUMPDEST PUSH1 0x0 DUP5 DUP5 ADD MSTORE POP POP POP POP JUMP JUMPDEST PUSH1 0x0 PUSH1 0x1F NOT PUSH1 0x1F DUP4 ADD AND SWAP1 POP SWAP2 SWAP1 POP JUMP JUMPDEST PUSH1 0x0 PUSH2 0x569 DUP3 PUSH2 0x507 JUMP JUMPDEST PUSH2 0x573 DUP2 DUP6 PUSH2 0x512 JUMP JUMPDEST SWAP4 POP PUSH2 0x583 DUP2 DUP6 PUSH1 0x20 DUP7 ADD PUSH2 0x523 JUMP JUMPDEST PUSH2 0x58C DUP2 PUSH2 0x54D JUMP JUMPDEST DUP5 ADD SWAP2 POP POP SWAP3 SWAP2 POP POP JUMP JUMPDEST PUSH1 0x0 PUSH1 0x20 DUP3 ADD SWAP1 POP DUP2 DUP2 SUB PUSH1 0x0 DUP4 ADD MSTORE PUSH2 0x5B1 DUP2 DUP5 PUSH2 0x55E JUMP JUMPDEST SWAP1 POP SWAP3 SWAP2 POP POP JUMP JUMPDEST PUSH32 0x43757272656E742074696D65206973206265666F726520426974636F696E2063 PUSH1 0x0 DUP3 ADD MSTORE PUSH32 0x72656174696F6E2E000000000000000000000000000000000000000000000000 PUSH1 0x20 DUP3 ADD MSTORE POP JUMP JUMPDEST PUSH1 0x0 PUSH2 0x615 PUSH1 0x28 DUP4 PUSH2 0x512 JUMP JUMPDEST SWAP2 POP PUSH2 0x620 DUP3 PUSH2 0x5B9 JUMP JUMPDEST PUSH1 0x40 DUP3 ADD SWAP1 POP SWAP2 SWAP1 POP JUMP JUMPDEST PUSH1 0x0 PUSH1 0x20 DUP3 ADD SWAP1 POP DUP2 DUP2 SUB PUSH1 0x0 DUP4 ADD MSTORE PUSH2 0x644 DUP2 PUSH2 0x608 JUMP JUMPDEST SWAP1 POP SWAP2 SWAP1 POP JUMP JUMPDEST PUSH32 0x4E487B7100000000000000000000000000000000000000000000000000000000 PUSH1 0x0 MSTORE PUSH1 0x11 PUSH1 0x4 MSTORE PUSH1 0x24 PUSH1 0x0 REVERT JUMPDEST PUSH1 0x0 PUSH2 0x685 DUP3 PUSH2 0x4D3 JUMP JUMPDEST SWAP2 POP PUSH2 0x690 DUP4 PUSH2 0x4D3 JUMP JUMPDEST SWAP3 POP DUP3 DUP3 SUB SWAP1 POP DUP2 DUP2 GT ISZERO PUSH2 0x6A8 JUMPI PUSH2 0x6A7 PUSH2 0x64B JUMP JUMPDEST JUMPDEST SWAP3 SWAP2 POP POP JUMP JUMPDEST PUSH32 0x4E487B7100000000000000000000000000000000000000000000000000000000 PUSH1 0x0 MSTORE PUSH1 0x12 PUSH1 0x4 MSTORE PUSH1 0x24 PUSH1 0x0 REVERT JUMPDEST PUSH1 0x0 PUSH2 0x6E8 DUP3 PUSH2 0x4D3 JUMP JUMPDEST SWAP2 POP PUSH2 0x6F3 DUP4 PUSH2 0x4D3 JUMP JUMPDEST SWAP3 POP DUP3 PUSH2 0x703 JUMPI PUSH2 0x702 PUSH2 0x6AE JUMP JUMPDEST JUMPDEST DUP3 DUP3 DIV SWAP1 POP SWAP3 SWAP2 POP POP JUMP JUMPDEST PUSH1 0x0 DUP2 SWAP1 POP SWAP3 SWAP2 POP POP JUMP JUMPDEST PUSH1 0x0 PUSH2 0x724 DUP3 PUSH2 0x507 JUMP JUMPDEST PUSH2 0x72E DUP2 DUP6 PUSH2 0x70E JUMP JUMPDEST SWAP4 POP PUSH2 0x73E DUP2 DUP6 PUSH1 0x20 DUP7 ADD PUSH2 0x523 JUMP JUMPDEST DUP1 DUP5 ADD SWAP2 POP POP SWAP3 SWAP2 POP POP JUMP JUMPDEST PUSH32 0x2F00000000000000000000000000000000000000000000000000000000000000 PUSH1 0x0 DUP3 ADD MSTORE POP JUMP JUMPDEST PUSH1 0x0 PUSH2 0x780 PUSH1 0x1 DUP4 PUSH2 0x70E JUMP JUMPDEST SWAP2 POP PUSH2 0x78B DUP3 PUSH2 0x74A JUMP JUMPDEST PUSH1 0x1 DUP3 ADD SWAP1 POP SWAP2 SWAP1 POP JUMP JUMPDEST PUSH1 0x0 PUSH2 0x7A2 DUP3 DUP7 PUSH2 0x719 JUMP JUMPDEST SWAP2 POP PUSH2 0x7AD DUP3 PUSH2 0x773 JUMP JUMPDEST SWAP2 POP PUSH2 0x7B9 DUP3 DUP6 PUSH2 0x719 JUMP JUMPDEST SWAP2 POP PUSH2 0x7C4 DUP3 PUSH2 0x773 JUMP JUMPDEST SWAP2 POP PUSH2 0x7D0 DUP3 DUP5 PUSH2 0x719 JUMP JUMPDEST SWAP2 POP DUP2 SWAP1 POP SWAP5 SWAP4 POP POP POP POP JUMP JUMPDEST PUSH1 0x0 PUSH2 0x7E8 DUP3 PUSH2 0x4D3 JUMP JUMPDEST SWAP2 POP PUSH2 0x7F3 DUP4 PUSH2 0x4D3 JUMP JUMPDEST SWAP3 POP DUP3 DUP3 ADD SWAP1 POP DUP1 DUP3 GT ISZERO PUSH2 0x80B JUMPI PUSH2 0x80A PUSH2 0x64B JUMP JUMPDEST JUMPDEST SWAP3 SWAP2 POP POP JUMP JUMPDEST PUSH1 0x0 PUSH2 0x81C DUP3 PUSH2 0x4D3 JUMP JUMPDEST SWAP2 POP PUSH32 0xFFFFFFFFFFFFFFFFFFFFFFFFFFFFFFFFFFFFFFFFFFFFFFFFFFFFFFFFFFFFFFFF DUP3 SUB PUSH2 0x84E JUMPI PUSH2 0x84D PUSH2 0x64B JUMP JUMPDEST JUMPDEST PUSH1 0x1 DUP3 ADD SWAP1 POP SWAP2 SWAP1 POP JUMP JUMPDEST PUSH32 0x4E487B7100000000000000000000000000000000000000000000000000000000 PUSH1 0x0 MSTORE PUSH1 0x32 PUSH1 0x4 MSTORE PUSH1 0x24 PUSH1 0x0 REVERT JUMPDEST PUSH32 0x4E487B7100000000000000000000000000000000000000000000000000000000 PUSH1 0x0 MSTORE PUSH1 0x41 PUSH1 0x4 MSTORE PUSH1 0x24 PUSH1 0x0 REVERT JUMPDEST PUSH1 0x0 PUSH2 0x8C2 DUP3 PUSH2 0x4D3 JUMP JUMPDEST SWAP2 POP PUSH2 0x8CD DUP4 PUSH2 0x4D3 JUMP JUMPDEST SWAP3 POP DUP3 PUSH2 0x8DD JUMPI PUSH2 0x8DC PUSH2 0x6AE JUMP JUMPDEST JUMPDEST DUP3 DUP3 MOD SWAP1 POP SWAP3 SWAP2 POP POP JUMP INVALID LOG2 PUSH5 0x6970667358 0x22 SLT KECCAK256 GASLIMIT PUSH9 0x5AE0EB041B3E11B15E SSTORE DUP14 JUMPI MCOPY OR SWAP10 0xCF OR PUSH31 0x73F368CE8736FDCF02F9EE8164736F6C634300081C00330000000000000000 "
		},
		"gasEstimates": {
			"creation": {
				"codeDepositCost": "466800",
				"executionCost": "499",
				"totalCost": "467299"
			},
			"external": {
				"getDaysSinceOrigin()": "infinite",
				"getSecondsSinceOrigin()": "358",
				"getThedate()": "infinite"
			},
			"internal": {
				"_calculateDate(uint256)": "infinite",
				"_isLeapYear(uint256)": "infinite",
				"uintToString(uint256)": "infinite"
			}
		},
		"methodIdentifiers": {
			"getDaysSinceOrigin()": "1d261e4a",
			"getSecondsSinceOrigin()": "bc8fa719",
			"getThedate()": "69f57170"
		}
	},
	"abi": [
		{
			"inputs": [],
			"name": "getDaysSinceOrigin",
			"outputs": [
				{
					"internalType": "uint256",
					"name": "",
					"type": "uint256"
				}
			],
			"stateMutability": "view",
			"type": "function"
		},
		{
			"inputs": [],
			"name": "getSecondsSinceOrigin",
			"outputs": [
				{
					"internalType": "uint256",
					"name": "",
					"type": "uint256"
				}
			],
			"stateMutability": "view",
			"type": "function"
		},
		{
			"inputs": [],
			"name": "getThedate",
			"outputs": [
				{
					"internalType": "string",
					"name": "",
					"type": "string"
				}
			],
			"stateMutability": "view",
			"type": "function"
		}
	]
}