{
	"data": {
		"bytecode": {
			"linkReferences": {},
			"object": "6080604052348015600f57600080fd5b506108fb8061001f6000396000f3fe608060405234801561001057600080fd5b50600436106100415760003560e01c80630f68108b14610046578063a2ed167314610064578063fd86547c14610082575b600080fd5b61004e6100a0565b60405161005b919061056a565b60405180910390f35b61006c6100b4565b604051610079919061056a565b60405180910390f35b61008a6100c8565b604051610097919061056a565b60405180910390f35b60606100af6364d3b8006100dc565b905090565b60606100c363495fab246100dc565b905090565b60606100d76355ba5e286100dc565b905090565b606081421015610121576040517f08c379a0000000000000000000000000000000000000000000000000000000008152600401610118906105fe565b60405180910390fd5b60006201518083426101339190610657565b61013d91906106ba565b9050600080600061014d8461019a565b92509250925061015c81610326565b61016583610326565b61016e85610326565b60405160200161018093929190610773565b604051602081830303815290604052945050505050919050565b60008060006107d992506000604051806101800160405280601f8152602001601c8152602001601f8152602001601e8152602001601f8152602001601e8152602001601f8152602001601f8152602001601e8152602001601f8152602001601e8152602001601f81525090505b61016d851061026f5761021984610486565b1561024b5761016e85106102465761016e856102359190610657565b94508380610242906107ba565b9450505b61026a565b61016d856102599190610657565b94508380610266906107ba565b9450505b610207565b61027884610486565b1561029d57601d816001600c811061029357610292610802565b5b6020020181815250505b60005b600c81101561031d578181600c81106102bc576102bb610802565b5b60200201518610156102eb576001816102d59190610831565b93506001866102e49190610831565b925061031d565b8181600c81106102fe576102fd610802565b5b60200201518661030e9190610657565b955080806001019150506102a0565b50509193909250565b60606000820361036d576040518060400160405280600181526020017f30000000000000000000000000000000000000000000000000000000000000008152509050610481565b600082905060005b6000821461039f578080610388906107ba565b915050600a8261039891906106ba565b9150610375565b60008167ffffffffffffffff8111156103bb576103ba610865565b5b6040519080825280601f01601f1916602001820160405280156103ed5781602001600182028036833780820191505090505b5090505b6000851461047a576001826104069190610657565b9150600a856104159190610894565b60306104219190610831565b60f81b81838151811061043757610436610802565b5b60200101907effffffffffffffffffffffffffffffffffffffffffffffffffffffffffffff1916908160001a905350600a8561047391906106ba565b94506103f1565b8093505050505b919050565b6000806004836104969190610894565b036104d05760006064836104aa9190610894565b036104c7576000610190836104bf9190610894565b1490506104d5565b600190506104d5565b600090505b919050565b600081519050919050565b600082825260208201905092915050565b60005b838110156105145780820151818401526020810190506104f9565b60008484015250505050565b6000601f19601f8301169050919050565b600061053c826104da565b61054681856104e5565b93506105568185602086016104f6565b61055f81610520565b840191505092915050565b600060208201905081810360008301526105848184610531565b905092915050565b7f43757272656e742074696d65206973206265666f72652074686520626c6f636b60008201527f636861696e206c61756e636820646174652e0000000000000000000000000000602082015250565b60006105e86032836104e5565b91506105f38261058c565b604082019050919050565b60006020820190508181036000830152610617816105db565b9050919050565b6000819050919050565b7f4e487b7100000000000000000000000000000000000000000000000000000000600052601160045260246000fd5b60006106628261061e565b915061066d8361061e565b925082820390508181111561068557610684610628565b5b92915050565b7f4e487b7100000000000000000000000000000000000000000000000000000000600052601260045260246000fd5b60006106c58261061e565b91506106d08361061e565b9250826106e0576106df61068b565b5b828204905092915050565b600081905092915050565b6000610701826104da565b61070b81856106eb565b935061071b8185602086016104f6565b80840191505092915050565b7f2f00000000000000000000000000000000000000000000000000000000000000600082015250565b600061075d6001836106eb565b915061076882610727565b600182019050919050565b600061077f82866106f6565b915061078a82610750565b915061079682856106f6565b91506107a182610750565b91506107ad82846106f6565b9150819050949350505050565b60006107c58261061e565b91507fffffffffffffffffffffffffffffffffffffffffffffffffffffffffffffffff82036107f7576107f6610628565b5b600182019050919050565b7f4e487b7100000000000000000000000000000000000000000000000000000000600052603260045260246000fd5b600061083c8261061e565b91506108478361061e565b925082820190508082111561085f5761085e610628565b5b92915050565b7f4e487b7100000000000000000000000000000000000000000000000000000000600052604160045260246000fd5b600061089f8261061e565b91506108aa8361061e565b9250826108ba576108b961068b565b5b82820690509291505056fea26469706673582212205d39c5bf63a8e1ade2313458a12a1d74bf78eee67ab9e0d946dab70df158e91864736f6c634300081c0033",
			"opcodes": "PUSH1 0x80 PUSH1 0x40 MSTORE CALLVALUE DUP1 ISZERO PUSH1 0xF JUMPI PUSH1 0x0 DUP1 REVERT JUMPDEST POP PUSH2 0x8FB DUP1 PUSH2 0x1F PUSH1 0x0 CODECOPY PUSH1 0x0 RETURN INVALID PUSH1 0x80 PUSH1 0x40 MSTORE CALLVALUE DUP1 ISZERO PUSH2 0x10 JUMPI PUSH1 0x0 DUP1 REVERT JUMPDEST POP PUSH1 0x4 CALLDATASIZE LT PUSH2 0x41 JUMPI PUSH1 0x0 CALLDATALOAD PUSH1 0xE0 SHR DUP1 PUSH4 0xF68108B EQ PUSH2 0x46 JUMPI DUP1 PUSH4 0xA2ED1673 EQ PUSH2 0x64 JUMPI DUP1 PUSH4 0xFD86547C EQ PUSH2 0x82 JUMPI JUMPDEST PUSH1 0x0 DUP1 REVERT JUMPDEST PUSH2 0x4E PUSH2 0xA0 JUMP JUMPDEST PUSH1 0x40 MLOAD PUSH2 0x5B SWAP2 SWAP1 PUSH2 0x56A JUMP JUMPDEST PUSH1 0x40 MLOAD DUP1 SWAP2 SUB SWAP1 RETURN JUMPDEST PUSH2 0x6C PUSH2 0xB4 JUMP JUMPDEST PUSH1 0x40 MLOAD PUSH2 0x79 SWAP2 SWAP1 PUSH2 0x56A JUMP JUMPDEST PUSH1 0x40 MLOAD DUP1 SWAP2 SUB SWAP1 RETURN JUMPDEST PUSH2 0x8A PUSH2 0xC8 JUMP JUMPDEST PUSH1 0x40 MLOAD PUSH2 0x97 SWAP2 SWAP1 PUSH2 0x56A JUMP JUMPDEST PUSH1 0x40 MLOAD DUP1 SWAP2 SUB SWAP1 RETURN JUMPDEST PUSH1 0x60 PUSH2 0xAF PUSH4 0x64D3B800 PUSH2 0xDC JUMP JUMPDEST SWAP1 POP SWAP1 JUMP JUMPDEST PUSH1 0x60 PUSH2 0xC3 PUSH4 0x495FAB24 PUSH2 0xDC JUMP JUMPDEST SWAP1 POP SWAP1 JUMP JUMPDEST PUSH1 0x60 PUSH2 0xD7 PUSH4 0x55BA5E28 PUSH2 0xDC JUMP JUMPDEST SWAP1 POP SWAP1 JUMP JUMPDEST PUSH1 0x60 DUP2 TIMESTAMP LT ISZERO PUSH2 0x121 JUMPI PUSH1 0x40 MLOAD PUSH32 0x8C379A000000000000000000000000000000000000000000000000000000000 DUP2 MSTORE PUSH1 0x4 ADD PUSH2 0x118 SWAP1 PUSH2 0x5FE JUMP JUMPDEST PUSH1 0x40 MLOAD DUP1 SWAP2 SUB SWAP1 REVERT JUMPDEST PUSH1 0x0 PUSH3 0x15180 DUP4 TIMESTAMP PUSH2 0x133 SWAP2 SWAP1 PUSH2 0x657 JUMP JUMPDEST PUSH2 0x13D SWAP2 SWAP1 PUSH2 0x6BA JUMP JUMPDEST SWAP1 POP PUSH1 0x0 DUP1 PUSH1 0x0 PUSH2 0x14D DUP5 PUSH2 0x19A JUMP JUMPDEST SWAP3 POP SWAP3 POP SWAP3 POP PUSH2 0x15C DUP2 PUSH2 0x326 JUMP JUMPDEST PUSH2 0x165 DUP4 PUSH2 0x326 JUMP JUMPDEST PUSH2 0x16E DUP6 PUSH2 0x326 JUMP JUMPDEST PUSH1 0x40 MLOAD PUSH1 0x20 ADD PUSH2 0x180 SWAP4 SWAP3 SWAP2 SWAP1 PUSH2 0x773 JUMP JUMPDEST PUSH1 0x40 MLOAD PUSH1 0x20 DUP2 DUP4 SUB SUB DUP2 MSTORE SWAP1 PUSH1 0x40 MSTORE SWAP5 POP POP POP POP POP SWAP2 SWAP1 POP JUMP JUMPDEST PUSH1 0x0 DUP1 PUSH1 0x0 PUSH2 0x7D9 SWAP3 POP PUSH1 0x0 PUSH1 0x40 MLOAD DUP1 PUSH2 0x180 ADD PUSH1 0x40 MSTORE DUP1 PUSH1 0x1F DUP2 MSTORE PUSH1 0x20 ADD PUSH1 0x1C DUP2 MSTORE PUSH1 0x20 ADD PUSH1 0x1F DUP2 MSTORE PUSH1 0x20 ADD PUSH1 0x1E DUP2 MSTORE PUSH1 0x20 ADD PUSH1 0x1F DUP2 MSTORE PUSH1 0x20 ADD PUSH1 0x1E DUP2 MSTORE PUSH1 0x20 ADD PUSH1 0x1F DUP2 MSTORE PUSH1 0x20 ADD PUSH1 0x1F DUP2 MSTORE PUSH1 0x20 ADD PUSH1 0x1E DUP2 MSTORE PUSH1 0x20 ADD PUSH1 0x1F DUP2 MSTORE PUSH1 0x20 ADD PUSH1 0x1E DUP2 MSTORE PUSH1 0x20 ADD PUSH1 0x1F DUP2 MSTORE POP SWAP1 POP JUMPDEST PUSH2 0x16D DUP6 LT PUSH2 0x26F JUMPI PUSH2 0x219 DUP5 PUSH2 0x486 JUMP JUMPDEST ISZERO PUSH2 0x24B JUMPI PUSH2 0x16E DUP6 LT PUSH2 0x246 JUMPI PUSH2 0x16E DUP6 PUSH2 0x235 SWAP2 SWAP1 PUSH2 0x657 JUMP JUMPDEST SWAP5 POP DUP4 DUP1 PUSH2 0x242 SWAP1 PUSH2 0x7BA JUMP JUMPDEST SWAP5 POP POP JUMPDEST PUSH2 0x26A JUMP JUMPDEST PUSH2 0x16D DUP6 PUSH2 0x259 SWAP2 SWAP1 PUSH2 0x657 JUMP JUMPDEST SWAP5 POP DUP4 DUP1 PUSH2 0x266 SWAP1 PUSH2 0x7BA JUMP JUMPDEST SWAP5 POP POP JUMPDEST PUSH2 0x207 JUMP JUMPDEST PUSH2 0x278 DUP5 PUSH2 0x486 JUMP JUMPDEST ISZERO PUSH2 0x29D JUMPI PUSH1 0x1D DUP2 PUSH1 0x1 PUSH1 0xC DUP2 LT PUSH2 0x293 JUMPI PUSH2 0x292 PUSH2 0x802 JUMP JUMPDEST JUMPDEST PUSH1 0x20 MUL ADD DUP2 DUP2 MSTORE POP POP JUMPDEST PUSH1 0x0 JUMPDEST PUSH1 0xC DUP2 LT ISZERO PUSH2 0x31D JUMPI DUP2 DUP2 PUSH1 0xC DUP2 LT PUSH2 0x2BC JUMPI PUSH2 0x2BB PUSH2 0x802 JUMP JUMPDEST JUMPDEST PUSH1 0x20 MUL ADD MLOAD DUP7 LT ISZERO PUSH2 0x2EB JUMPI PUSH1 0x1 DUP2 PUSH2 0x2D5 SWAP2 SWAP1 PUSH2 0x831 JUMP JUMPDEST SWAP4 POP PUSH1 0x1 DUP7 PUSH2 0x2E4 SWAP2 SWAP1 PUSH2 0x831 JUMP JUMPDEST SWAP3 POP PUSH2 0x31D JUMP JUMPDEST DUP2 DUP2 PUSH1 0xC DUP2 LT PUSH2 0x2FE JUMPI PUSH2 0x2FD PUSH2 0x802 JUMP JUMPDEST JUMPDEST PUSH1 0x20 MUL ADD MLOAD DUP7 PUSH2 0x30E SWAP2 SWAP1 PUSH2 0x657 JUMP JUMPDEST SWAP6 POP DUP1 DUP1 PUSH1 0x1 ADD SWAP2 POP POP PUSH2 0x2A0 JUMP JUMPDEST POP POP SWAP2 SWAP4 SWAP1 SWAP3 POP JUMP JUMPDEST PUSH1 0x60 PUSH1 0x0 DUP3 SUB PUSH2 0x36D JUMPI PUSH1 0x40 MLOAD DUP1 PUSH1 0x40 ADD PUSH1 0x40 MSTORE DUP1 PUSH1 0x1 DUP2 MSTORE PUSH1 0x20 ADD PUSH32 0x3000000000000000000000000000000000000000000000000000000000000000 DUP2 MSTORE POP SWAP1 POP PUSH2 0x481 JUMP JUMPDEST PUSH1 0x0 DUP3 SWAP1 POP PUSH1 0x0 JUMPDEST PUSH1 0x0 DUP3 EQ PUSH2 0x39F JUMPI DUP1 DUP1 PUSH2 0x388 SWAP1 PUSH2 0x7BA JUMP JUMPDEST SWAP2 POP POP PUSH1 0xA DUP3 PUSH2 0x398 SWAP2 SWAP1 PUSH2 0x6BA JUMP JUMPDEST SWAP2 POP PUSH2 0x375 JUMP JUMPDEST PUSH1 0x0 DUP2 PUSH8 0xFFFFFFFFFFFFFFFF DUP2 GT ISZERO PUSH2 0x3BB JUMPI PUSH2 0x3BA PUSH2 0x865 JUMP JUMPDEST JUMPDEST PUSH1 0x40 MLOAD SWAP1 DUP1 DUP3 MSTORE DUP1 PUSH1 0x1F ADD PUSH1 0x1F NOT AND PUSH1 0x20 ADD DUP3 ADD PUSH1 0x40 MSTORE DUP1 ISZERO PUSH2 0x3ED JUMPI DUP2 PUSH1 0x20 ADD PUSH1 0x1 DUP3 MUL DUP1 CALLDATASIZE DUP4 CALLDATACOPY DUP1 DUP3 ADD SWAP2 POP POP SWAP1 POP JUMPDEST POP SWAP1 POP JUMPDEST PUSH1 0x0 DUP6 EQ PUSH2 0x47A JUMPI PUSH1 0x1 DUP3 PUSH2 0x406 SWAP2 SWAP1 PUSH2 0x657 JUMP JUMPDEST SWAP2 POP PUSH1 0xA DUP6 PUSH2 0x415 SWAP2 SWAP1 PUSH2 0x894 JUMP JUMPDEST PUSH1 0x30 PUSH2 0x421 SWAP2 SWAP1 PUSH2 0x831 JUMP JUMPDEST PUSH1 0xF8 SHL DUP2 DUP4 DUP2 MLOAD DUP2 LT PUSH2 0x437 JUMPI PUSH2 0x436 PUSH2 0x802 JUMP JUMPDEST JUMPDEST PUSH1 0x20 ADD ADD SWAP1 PUSH31 0xFFFFFFFFFFFFFFFFFFFFFFFFFFFFFFFFFFFFFFFFFFFFFFFFFFFFFFFFFFFFFF NOT AND SWAP1 DUP2 PUSH1 0x0 BYTE SWAP1 MSTORE8 POP PUSH1 0xA DUP6 PUSH2 0x473 SWAP2 SWAP1 PUSH2 0x6BA JUMP JUMPDEST SWAP5 POP PUSH2 0x3F1 JUMP JUMPDEST DUP1 SWAP4 POP POP POP POP JUMPDEST SWAP2 SWAP1 POP JUMP JUMPDEST PUSH1 0x0 DUP1 PUSH1 0x4 DUP4 PUSH2 0x496 SWAP2 SWAP1 PUSH2 0x894 JUMP JUMPDEST SUB PUSH2 0x4D0 JUMPI PUSH1 0x0 PUSH1 0x64 DUP4 PUSH2 0x4AA SWAP2 SWAP1 PUSH2 0x894 JUMP JUMPDEST SUB PUSH2 0x4C7 JUMPI PUSH1 0x0 PUSH2 0x190 DUP4 PUSH2 0x4BF SWAP2 SWAP1 PUSH2 0x894 JUMP JUMPDEST EQ SWAP1 POP PUSH2 0x4D5 JUMP JUMPDEST PUSH1 0x1 SWAP1 POP PUSH2 0x4D5 JUMP JUMPDEST PUSH1 0x0 SWAP1 POP JUMPDEST SWAP2 SWAP1 POP JUMP JUMPDEST PUSH1 0x0 DUP2 MLOAD SWAP1 POP SWAP2 SWAP1 POP JUMP JUMPDEST PUSH1 0x0 DUP3 DUP3 MSTORE PUSH1 0x20 DUP3 ADD SWAP1 POP SWAP3 SWAP2 POP POP JUMP JUMPDEST PUSH1 0x0 JUMPDEST DUP4 DUP2 LT ISZERO PUSH2 0x514 JUMPI DUP1 DUP3 ADD MLOAD DUP2 DUP5 ADD MSTORE PUSH1 0x20 DUP2 ADD SWAP1 POP PUSH2 0x4F9 JUMP JUMPDEST PUSH1 0x0 DUP5 DUP5 ADD MSTORE POP POP POP POP JUMP JUMPDEST PUSH1 0x0 PUSH1 0x1F NOT PUSH1 0x1F DUP4 ADD AND SWAP1 POP SWAP2 SWAP1 POP JUMP JUMPDEST PUSH1 0x0 PUSH2 0x53C DUP3 PUSH2 0x4DA JUMP JUMPDEST PUSH2 0x546 DUP2 DUP6 PUSH2 0x4E5 JUMP JUMPDEST SWAP4 POP PUSH2 0x556 DUP2 DUP6 PUSH1 0x20 DUP7 ADD PUSH2 0x4F6 JUMP JUMPDEST PUSH2 0x55F DUP2 PUSH2 0x520 JUMP JUMPDEST DUP5 ADD SWAP2 POP POP SWAP3 SWAP2 POP POP JUMP JUMPDEST PUSH1 0x0 PUSH1 0x20 DUP3 ADD SWAP1 POP DUP2 DUP2 SUB PUSH1 0x0 DUP4 ADD MSTORE PUSH2 0x584 DUP2 DUP5 PUSH2 0x531 JUMP JUMPDEST SWAP1 POP SWAP3 SWAP2 POP POP JUMP JUMPDEST PUSH32 0x43757272656E742074696D65206973206265666F72652074686520626C6F636B PUSH1 0x0 DUP3 ADD MSTORE PUSH32 0x636861696E206C61756E636820646174652E0000000000000000000000000000 PUSH1 0x20 DUP3 ADD MSTORE POP JUMP JUMPDEST PUSH1 0x0 PUSH2 0x5E8 PUSH1 0x32 DUP4 PUSH2 0x4E5 JUMP JUMPDEST SWAP2 POP PUSH2 0x5F3 DUP3 PUSH2 0x58C JUMP JUMPDEST PUSH1 0x40 DUP3 ADD SWAP1 POP SWAP2 SWAP1 POP JUMP JUMPDEST PUSH1 0x0 PUSH1 0x20 DUP3 ADD SWAP1 POP DUP2 DUP2 SUB PUSH1 0x0 DUP4 ADD MSTORE PUSH2 0x617 DUP2 PUSH2 0x5DB JUMP JUMPDEST SWAP1 POP SWAP2 SWAP1 POP JUMP JUMPDEST PUSH1 0x0 DUP2 SWAP1 POP SWAP2 SWAP1 POP JUMP JUMPDEST PUSH32 0x4E487B7100000000000000000000000000000000000000000000000000000000 PUSH1 0x0 MSTORE PUSH1 0x11 PUSH1 0x4 MSTORE PUSH1 0x24 PUSH1 0x0 REVERT JUMPDEST PUSH1 0x0 PUSH2 0x662 DUP3 PUSH2 0x61E JUMP JUMPDEST SWAP2 POP PUSH2 0x66D DUP4 PUSH2 0x61E JUMP JUMPDEST SWAP3 POP DUP3 DUP3 SUB SWAP1 POP DUP2 DUP2 GT ISZERO PUSH2 0x685 JUMPI PUSH2 0x684 PUSH2 0x628 JUMP JUMPDEST JUMPDEST SWAP3 SWAP2 POP POP JUMP JUMPDEST PUSH32 0x4E487B7100000000000000000000000000000000000000000000000000000000 PUSH1 0x0 MSTORE PUSH1 0x12 PUSH1 0x4 MSTORE PUSH1 0x24 PUSH1 0x0 REVERT JUMPDEST PUSH1 0x0 PUSH2 0x6C5 DUP3 PUSH2 0x61E JUMP JUMPDEST SWAP2 POP PUSH2 0x6D0 DUP4 PUSH2 0x61E JUMP JUMPDEST SWAP3 POP DUP3 PUSH2 0x6E0 JUMPI PUSH2 0x6DF PUSH2 0x68B JUMP JUMPDEST JUMPDEST DUP3 DUP3 DIV SWAP1 POP SWAP3 SWAP2 POP POP JUMP JUMPDEST PUSH1 0x0 DUP2 SWAP1 POP SWAP3 SWAP2 POP POP JUMP JUMPDEST PUSH1 0x0 PUSH2 0x701 DUP3 PUSH2 0x4DA JUMP JUMPDEST PUSH2 0x70B DUP2 DUP6 PUSH2 0x6EB JUMP JUMPDEST SWAP4 POP PUSH2 0x71B DUP2 DUP6 PUSH1 0x20 DUP7 ADD PUSH2 0x4F6 JUMP JUMPDEST DUP1 DUP5 ADD SWAP2 POP POP SWAP3 SWAP2 POP POP JUMP JUMPDEST PUSH32 0x2F00000000000000000000000000000000000000000000000000000000000000 PUSH1 0x0 DUP3 ADD MSTORE POP JUMP JUMPDEST PUSH1 0x0 PUSH2 0x75D PUSH1 0x1 DUP4 PUSH2 0x6EB JUMP JUMPDEST SWAP2 POP PUSH2 0x768 DUP3 PUSH2 0x727 JUMP JUMPDEST PUSH1 0x1 DUP3 ADD SWAP1 POP SWAP2 SWAP1 POP JUMP JUMPDEST PUSH1 0x0 PUSH2 0x77F DUP3 DUP7 PUSH2 0x6F6 JUMP JUMPDEST SWAP2 POP PUSH2 0x78A DUP3 PUSH2 0x750 JUMP JUMPDEST SWAP2 POP PUSH2 0x796 DUP3 DUP6 PUSH2 0x6F6 JUMP JUMPDEST SWAP2 POP PUSH2 0x7A1 DUP3 PUSH2 0x750 JUMP JUMPDEST SWAP2 POP PUSH2 0x7AD DUP3 DUP5 PUSH2 0x6F6 JUMP JUMPDEST SWAP2 POP DUP2 SWAP1 POP SWAP5 SWAP4 POP POP POP POP JUMP JUMPDEST PUSH1 0x0 PUSH2 0x7C5 DUP3 PUSH2 0x61E JUMP JUMPDEST SWAP2 POP PUSH32 0xFFFFFFFFFFFFFFFFFFFFFFFFFFFFFFFFFFFFFFFFFFFFFFFFFFFFFFFFFFFFFFFF DUP3 SUB PUSH2 0x7F7 JUMPI PUSH2 0x7F6 PUSH2 0x628 JUMP JUMPDEST JUMPDEST PUSH1 0x1 DUP3 ADD SWAP1 POP SWAP2 SWAP1 POP JUMP JUMPDEST PUSH32 0x4E487B7100000000000000000000000000000000000000000000000000000000 PUSH1 0x0 MSTORE PUSH1 0x32 PUSH1 0x4 MSTORE PUSH1 0x24 PUSH1 0x0 REVERT JUMPDEST PUSH1 0x0 PUSH2 0x83C DUP3 PUSH2 0x61E JUMP JUMPDEST SWAP2 POP PUSH2 0x847 DUP4 PUSH2 0x61E JUMP JUMPDEST SWAP3 POP DUP3 DUP3 ADD SWAP1 POP DUP1 DUP3 GT ISZERO PUSH2 0x85F JUMPI PUSH2 0x85E PUSH2 0x628 JUMP JUMPDEST JUMPDEST SWAP3 SWAP2 POP POP JUMP JUMPDEST PUSH32 0x4E487B7100000000000000000000000000000000000000000000000000000000 PUSH1 0x0 MSTORE PUSH1 0x41 PUSH1 0x4 MSTORE PUSH1 0x24 PUSH1 0x0 REVERT JUMPDEST PUSH1 0x0 PUSH2 0x89F DUP3 PUSH2 0x61E JUMP JUMPDEST SWAP2 POP PUSH2 0x8AA DUP4 PUSH2 0x61E JUMP JUMPDEST SWAP3 POP DUP3 PUSH2 0x8BA JUMPI PUSH2 0x8B9 PUSH2 0x68B JUMP JUMPDEST JUMPDEST DUP3 DUP3 MOD SWAP1 POP SWAP3 SWAP2 POP POP JUMP INVALID LOG2 PUSH5 0x6970667358 0x22 SLT KECCAK256 TSTORE CODECOPY 0xC5 0xBF PUSH4 0xA8E1ADE2 BALANCE CALLVALUE PC LOG1 0x2A SAR PUSH21 0xBF78EEE67AB9E0D946DAB70DF158E91864736F6C63 NUMBER STOP ADDMOD SHR STOP CALLER "
		},
		"gasEstimates": {
			"creation": {
				"codeDepositCost": "459800",
				"executionCost": "493",
				"totalCost": "460293"
			},
			"external": {
				"SinceBaseThePrettyChildLaunch()": "infinite",
				"SinceBitcoinTheDadLaunch()": "infinite",
				"SinceEthereumTheMotherLaunch()": "infinite"
			},
			"internal": {
				"_calculateDate(uint256)": "infinite",
				"_getFormattedDate(uint256)": "infinite",
				"_isLeapYear(uint256)": "infinite",
				"uintToString(uint256)": "infinite"
			}
		},
		"methodIdentifiers": {
			"SinceBaseThePrettyChildLaunch()": "0f68108b",
			"SinceBitcoinTheDadLaunch()": "a2ed1673",
			"SinceEthereumTheMotherLaunch()": "fd86547c"
		}
	},
	"abi": [
		{
			"inputs": [],
			"name": "SinceBaseThePrettyChildLaunch",
			"outputs": [
				{
					"internalType": "string",
					"name": "",
					"type": "string"
				}
			],
			"stateMutability": "view",
			"type": "function"
		},
		{
			"inputs": [],
			"name": "SinceBitcoinTheDadLaunch",
			"outputs": [
				{
					"internalType": "string",
					"name": "",
					"type": "string"
				}
			],
			"stateMutability": "view",
			"type": "function"
		},
		{
			"inputs": [],
			"name": "SinceEthereumTheMotherLaunch",
			"outputs": [
				{
					"internalType": "string",
					"name": "",
					"type": "string"
				}
			],
			"stateMutability": "view",
			"type": "function"
		}
	]
}